{
	"contracts/DeferredEquityPlan.sol": {
		"DeferredEquityPlan": {
			"abi": [
				{
					"inputs": [
						{
							"internalType": "address payable",
							"name": "_employee",
							"type": "address"
						}
					],
					"payable": false,
					"stateMutability": "nonpayable",
					"type": "constructor"
				},
				{
					"payable": true,
					"stateMutability": "payable",
					"type": "fallback"
				},
				{
					"constant": false,
					"inputs": [],
					"name": "deactivate",
					"outputs": [],
					"payable": false,
					"stateMutability": "nonpayable",
					"type": "function"
				},
				{
					"constant": false,
					"inputs": [],
					"name": "distribute",
					"outputs": [],
					"payable": false,
					"stateMutability": "nonpayable",
					"type": "function"
				},
				{
					"constant": true,
					"inputs": [],
					"name": "distributed_shares",
					"outputs": [
						{
							"internalType": "uint256",
							"name": "",
							"type": "uint256"
						}
					],
					"payable": false,
					"stateMutability": "view",
					"type": "function"
				},
				{
					"constant": false,
					"inputs": [],
					"name": "fastforward",
					"outputs": [],
					"payable": false,
					"stateMutability": "nonpayable",
					"type": "function"
				}
			],
			"devdoc": {
				"methods": {}
			},
			"evm": {
				"assembly": "    /* \"contracts/DeferredEquityPlan.sol\":50:2578  contract DeferredEquityPlan {\r... */\n  mstore(0x40, 0x80)\n    /* \"contracts/DeferredEquityPlan.sol\":169:173  true */\n  0x01\n    /* \"contracts/DeferredEquityPlan.sol\":155:173  bool active = true */\n  dup1\n  exp(0x0100, 0x14)\n  dup2\n  sload\n  dup2\n  0xff\n  mul\n  not\n  and\n  swap1\n  dup4\n  iszero\n  iszero\n  mul\n  or\n  swap1\n  sstore\n  pop\n    /* \"contracts/DeferredEquityPlan.sol\":337:340  now */\n  timestamp\n    /* \"contracts/DeferredEquityPlan.sol\":322:340  uint fakenow = now */\n  0x02\n  sstore\n    /* \"contracts/DeferredEquityPlan.sol\":367:371  1000 */\n  0x03e8\n    /* \"contracts/DeferredEquityPlan.sol\":347:371  uint total_shares = 1000 */\n  0x03\n  sstore\n    /* \"contracts/DeferredEquityPlan.sol\":405:408  250 */\n  0xfa\n    /* \"contracts/DeferredEquityPlan.sol\":378:408  uint annual_distribution = 250 */\n  0x04\n  sstore\n    /* \"contracts/DeferredEquityPlan.sol\":433:436  now */\n  timestamp\n    /* \"contracts/DeferredEquityPlan.sol\":415:436  uint start_time = now */\n  0x05\n  sstore\n    /* \"contracts/DeferredEquityPlan.sol\":609:612  now */\n  timestamp\n    /* \"contracts/DeferredEquityPlan.sol\":590:612  uint unlock_time = now */\n  0x06\n  sstore\n    /* \"contracts/DeferredEquityPlan.sol\":652:653  0 */\n  0x00\n    /* \"contracts/DeferredEquityPlan.sol\":619:653  uint public distributed_shares = 0 */\n  0x07\n  sstore\n    /* \"contracts/DeferredEquityPlan.sol\":677:801  constructor(address payable _employee) public {\r... */\n  callvalue\n    /* \"--CODEGEN--\":8:17   */\n  dup1\n    /* \"--CODEGEN--\":5:7   */\n  iszero\n  tag_1\n  jumpi\n    /* \"--CODEGEN--\":30:31   */\n  0x00\n    /* \"--CODEGEN--\":27:28   */\n  dup1\n    /* \"--CODEGEN--\":20:32   */\n  revert\n    /* \"--CODEGEN--\":5:7   */\ntag_1:\n    /* \"contracts/DeferredEquityPlan.sol\":677:801  constructor(address payable _employee) public {\r... */\n  pop\n  mload(0x40)\n  sub(codesize, bytecodeSize)\n  dup1\n  bytecodeSize\n  dup4\n  codecopy\n  dup2\n  dup2\n  add\n  0x40\n  mstore\n    /* \"--CODEGEN--\":13:15   */\n  0x20\n    /* \"--CODEGEN--\":8:11   */\n  dup2\n    /* \"--CODEGEN--\":5:16   */\n  lt\n    /* \"--CODEGEN--\":2:4   */\n  iszero\n  tag_2\n  jumpi\n    /* \"--CODEGEN--\":29:30   */\n  0x00\n    /* \"--CODEGEN--\":26:27   */\n  dup1\n    /* \"--CODEGEN--\":19:31   */\n  revert\n    /* \"--CODEGEN--\":2:4   */\ntag_2:\n    /* \"contracts/DeferredEquityPlan.sol\":677:801  constructor(address payable _employee) public {\r... */\n  dup2\n  add\n  swap1\n  dup1\n  dup1\n  mload\n  swap1\n  0x20\n  add\n  swap1\n  swap3\n  swap2\n  swap1\n  pop\n  pop\n  pop\n    /* \"contracts/DeferredEquityPlan.sol\":752:762  msg.sender */\n  caller\n    /* \"contracts/DeferredEquityPlan.sol\":734:749  human_resources */\n  0x00\n  dup1\n    /* \"contracts/DeferredEquityPlan.sol\":734:762  human_resources = msg.sender */\n  0x0100\n  exp\n  dup2\n  sload\n  dup2\n  0xffffffffffffffffffffffffffffffffffffffff\n  mul\n  not\n  and\n  swap1\n  dup4\n  0xffffffffffffffffffffffffffffffffffffffff\n  and\n  mul\n  or\n  swap1\n  sstore\n  pop\n    /* \"contracts/DeferredEquityPlan.sol\":784:793  _employee */\n  dup1\n    /* \"contracts/DeferredEquityPlan.sol\":773:781  employee */\n  0x01\n  0x00\n    /* \"contracts/DeferredEquityPlan.sol\":773:793  employee = _employee */\n  0x0100\n  exp\n  dup2\n  sload\n  dup2\n  0xffffffffffffffffffffffffffffffffffffffff\n  mul\n  not\n  and\n  swap1\n  dup4\n  0xffffffffffffffffffffffffffffffffffffffff\n  and\n  mul\n  or\n  swap1\n  sstore\n  pop\n    /* \"contracts/DeferredEquityPlan.sol\":677:801  constructor(address payable _employee) public {\r... */\n  pop\n    /* \"contracts/DeferredEquityPlan.sol\":50:2578  contract DeferredEquityPlan {\r... */\n  dataSize(sub_0)\n  dup1\n  dataOffset(sub_0)\n  0x00\n  codecopy\n  0x00\n  return\nstop\n\nsub_0: assembly {\n        /* \"contracts/DeferredEquityPlan.sol\":50:2578  contract DeferredEquityPlan {\r... */\n      mstore(0x40, 0x80)\n      jumpi(tag_1, lt(calldatasize, 0x04))\n      shr(0xe0, calldataload(0x00))\n      dup1\n      0x51b42b00\n      eq\n      tag_2\n      jumpi\n      dup1\n      0x62cb5951\n      eq\n      tag_3\n      jumpi\n      dup1\n      0x9bc717f1\n      eq\n      tag_4\n      jumpi\n      dup1\n      0xe4fc6b6d\n      eq\n      tag_5\n      jumpi\n    tag_1:\n        /* \"contracts/DeferredEquityPlan.sol\":2453:2498  revert(\"Do not send Ether to this contract!\") */\n      mload(0x40)\n      0x08c379a000000000000000000000000000000000000000000000000000000000\n      dup2\n      mstore\n      0x04\n      add\n      dup1\n      dup1\n      0x20\n      add\n      dup3\n      dup2\n      sub\n      dup3\n      mstore\n      0x23\n      dup2\n      mstore\n      0x20\n      add\n      dup1\n      data_68f702e6388d2518088e18365eaa062fd5393371528035cdd118dd91cf2fd66b\n      0x23\n      swap2\n      codecopy\n      0x40\n      add\n      swap2\n      pop\n      pop\n      mload(0x40)\n      dup1\n      swap2\n      sub\n      swap1\n      revert\n        /* \"contracts/DeferredEquityPlan.sol\":2104:2296  function deactivate() public {\r... */\n    tag_2:\n      callvalue\n        /* \"--CODEGEN--\":8:17   */\n      dup1\n        /* \"--CODEGEN--\":5:7   */\n      iszero\n      tag_8\n      jumpi\n        /* \"--CODEGEN--\":30:31   */\n      0x00\n        /* \"--CODEGEN--\":27:28   */\n      dup1\n        /* \"--CODEGEN--\":20:32   */\n      revert\n        /* \"--CODEGEN--\":5:7   */\n    tag_8:\n        /* \"contracts/DeferredEquityPlan.sol\":2104:2296  function deactivate() public {\r... */\n      pop\n      tag_9\n      tag_10\n      jump\t// in\n    tag_9:\n      stop\n        /* \"contracts/DeferredEquityPlan.sol\":2512:2575  function fastforward() public {\r... */\n    tag_3:\n      callvalue\n        /* \"--CODEGEN--\":8:17   */\n      dup1\n        /* \"--CODEGEN--\":5:7   */\n      iszero\n      tag_11\n      jumpi\n        /* \"--CODEGEN--\":30:31   */\n      0x00\n        /* \"--CODEGEN--\":27:28   */\n      dup1\n        /* \"--CODEGEN--\":20:32   */\n      revert\n        /* \"--CODEGEN--\":5:7   */\n    tag_11:\n        /* \"contracts/DeferredEquityPlan.sol\":2512:2575  function fastforward() public {\r... */\n      pop\n      tag_12\n      tag_13\n      jump\t// in\n    tag_12:\n      stop\n        /* \"contracts/DeferredEquityPlan.sol\":619:653  uint public distributed_shares = 0 */\n    tag_4:\n      callvalue\n        /* \"--CODEGEN--\":8:17   */\n      dup1\n        /* \"--CODEGEN--\":5:7   */\n      iszero\n      tag_14\n      jumpi\n        /* \"--CODEGEN--\":30:31   */\n      0x00\n        /* \"--CODEGEN--\":27:28   */\n      dup1\n        /* \"--CODEGEN--\":20:32   */\n      revert\n        /* \"--CODEGEN--\":5:7   */\n    tag_14:\n        /* \"contracts/DeferredEquityPlan.sol\":619:653  uint public distributed_shares = 0 */\n      pop\n      tag_15\n      tag_16\n      jump\t// in\n    tag_15:\n      mload(0x40)\n      dup1\n      dup3\n      dup2\n      mstore\n      0x20\n      add\n      swap2\n      pop\n      pop\n      mload(0x40)\n      dup1\n      swap2\n      sub\n      swap1\n      return\n        /* \"contracts/DeferredEquityPlan.sol\":809:2018  function distribute() public {\r... */\n    tag_5:\n      callvalue\n        /* \"--CODEGEN--\":8:17   */\n      dup1\n        /* \"--CODEGEN--\":5:7   */\n      iszero\n      tag_17\n      jumpi\n        /* \"--CODEGEN--\":30:31   */\n      0x00\n        /* \"--CODEGEN--\":27:28   */\n      dup1\n        /* \"--CODEGEN--\":20:32   */\n      revert\n        /* \"--CODEGEN--\":5:7   */\n    tag_17:\n        /* \"contracts/DeferredEquityPlan.sol\":809:2018  function distribute() public {\r... */\n      pop\n      tag_18\n      tag_19\n      jump\t// in\n    tag_18:\n      stop\n        /* \"contracts/DeferredEquityPlan.sol\":2104:2296  function deactivate() public {\r... */\n    tag_10:\n        /* \"contracts/DeferredEquityPlan.sol\":2166:2181  human_resources */\n      0x00\n      dup1\n      swap1\n      sload\n      swap1\n      0x0100\n      exp\n      swap1\n      div\n      0xffffffffffffffffffffffffffffffffffffffff\n      and\n        /* \"contracts/DeferredEquityPlan.sol\":2152:2181  msg.sender == human_resources */\n      0xffffffffffffffffffffffffffffffffffffffff\n      and\n        /* \"contracts/DeferredEquityPlan.sol\":2152:2162  msg.sender */\n      caller\n        /* \"contracts/DeferredEquityPlan.sol\":2152:2181  msg.sender == human_resources */\n      0xffffffffffffffffffffffffffffffffffffffff\n      and\n      eq\n        /* \"contracts/DeferredEquityPlan.sol\":2152:2207  msg.sender == human_resources || msg.sender == employee */\n      dup1\n      tag_21\n      jumpi\n      pop\n        /* \"contracts/DeferredEquityPlan.sol\":2199:2207  employee */\n      0x01\n      0x00\n      swap1\n      sload\n      swap1\n      0x0100\n      exp\n      swap1\n      div\n      0xffffffffffffffffffffffffffffffffffffffff\n      and\n        /* \"contracts/DeferredEquityPlan.sol\":2185:2207  msg.sender == employee */\n      0xffffffffffffffffffffffffffffffffffffffff\n      and\n        /* \"contracts/DeferredEquityPlan.sol\":2185:2195  msg.sender */\n      caller\n        /* \"contracts/DeferredEquityPlan.sol\":2185:2207  msg.sender == employee */\n      0xffffffffffffffffffffffffffffffffffffffff\n      and\n      eq\n        /* \"contracts/DeferredEquityPlan.sol\":2152:2207  msg.sender == human_resources || msg.sender == employee */\n    tag_21:\n        /* \"contracts/DeferredEquityPlan.sol\":2144:2263  require(msg.sender == human_resources || msg.sender == employee, \"You are not authorized to deactivate this contract.\") */\n      tag_22\n      jumpi\n      mload(0x40)\n      0x08c379a000000000000000000000000000000000000000000000000000000000\n      dup2\n      mstore\n      0x04\n      add\n      dup1\n      dup1\n      0x20\n      add\n      dup3\n      dup2\n      sub\n      dup3\n      mstore\n      0x33\n      dup2\n      mstore\n      0x20\n      add\n      dup1\n      data_44fe763b3ac121d9373b3116501483b74bc02ac33c1be16c96619643c2e17c04\n      0x33\n      swap2\n      codecopy\n      0x40\n      add\n      swap2\n      pop\n      pop\n      mload(0x40)\n      dup1\n      swap2\n      sub\n      swap1\n      revert\n    tag_22:\n        /* \"contracts/DeferredEquityPlan.sol\":2283:2288  false */\n      0x00\n        /* \"contracts/DeferredEquityPlan.sol\":2274:2280  active */\n      0x01\n      0x14\n        /* \"contracts/DeferredEquityPlan.sol\":2274:2288  active = false */\n      0x0100\n      exp\n      dup2\n      sload\n      dup2\n      0xff\n      mul\n      not\n      and\n      swap1\n      dup4\n      iszero\n      iszero\n      mul\n      or\n      swap1\n      sstore\n      pop\n        /* \"contracts/DeferredEquityPlan.sol\":2104:2296  function deactivate() public {\r... */\n      jump\t// out\n        /* \"contracts/DeferredEquityPlan.sol\":2512:2575  function fastforward() public {\r... */\n    tag_13:\n        /* \"contracts/DeferredEquityPlan.sol\":2564:2567  100 */\n      0x64\n        /* \"contracts/DeferredEquityPlan.sol\":2553:2560  fakenow */\n      0x02\n      0x00\n        /* \"contracts/DeferredEquityPlan.sol\":2553:2567  fakenow += 100 */\n      dup3\n      dup3\n      sload\n      add\n      swap3\n      pop\n      pop\n      dup2\n      swap1\n      sstore\n      pop\n        /* \"contracts/DeferredEquityPlan.sol\":2512:2575  function fastforward() public {\r... */\n      jump\t// out\n        /* \"contracts/DeferredEquityPlan.sol\":619:653  uint public distributed_shares = 0 */\n    tag_16:\n      sload(0x07)\n      dup2\n      jump\t// out\n        /* \"contracts/DeferredEquityPlan.sol\":809:2018  function distribute() public {\r... */\n    tag_19:\n        /* \"contracts/DeferredEquityPlan.sol\":871:886  human_resources */\n      0x00\n      dup1\n      swap1\n      sload\n      swap1\n      0x0100\n      exp\n      swap1\n      div\n      0xffffffffffffffffffffffffffffffffffffffff\n      and\n        /* \"contracts/DeferredEquityPlan.sol\":857:886  msg.sender == human_resources */\n      0xffffffffffffffffffffffffffffffffffffffff\n      and\n        /* \"contracts/DeferredEquityPlan.sol\":857:867  msg.sender */\n      caller\n        /* \"contracts/DeferredEquityPlan.sol\":857:886  msg.sender == human_resources */\n      0xffffffffffffffffffffffffffffffffffffffff\n      and\n      eq\n        /* \"contracts/DeferredEquityPlan.sol\":857:912  msg.sender == human_resources || msg.sender == employee */\n      dup1\n      tag_25\n      jumpi\n      pop\n        /* \"contracts/DeferredEquityPlan.sol\":904:912  employee */\n      0x01\n      0x00\n      swap1\n      sload\n      swap1\n      0x0100\n      exp\n      swap1\n      div\n      0xffffffffffffffffffffffffffffffffffffffff\n      and\n        /* \"contracts/DeferredEquityPlan.sol\":890:912  msg.sender == employee */\n      0xffffffffffffffffffffffffffffffffffffffff\n      and\n        /* \"contracts/DeferredEquityPlan.sol\":890:900  msg.sender */\n      caller\n        /* \"contracts/DeferredEquityPlan.sol\":890:912  msg.sender == employee */\n      0xffffffffffffffffffffffffffffffffffffffff\n      and\n      eq\n        /* \"contracts/DeferredEquityPlan.sol\":857:912  msg.sender == human_resources || msg.sender == employee */\n    tag_25:\n        /* \"contracts/DeferredEquityPlan.sol\":849:965  require(msg.sender == human_resources || msg.sender == employee, \"You are not authorized to execute this contract.\") */\n      tag_26\n      jumpi\n      mload(0x40)\n      0x08c379a000000000000000000000000000000000000000000000000000000000\n      dup2\n      mstore\n      0x04\n      add\n      dup1\n      dup1\n      0x20\n      add\n      dup3\n      dup2\n      sub\n      dup3\n      mstore\n      0x30\n      dup2\n      mstore\n      0x20\n      add\n      dup1\n      data_ba2ee6ca50d86582f4490a3252728de9a213982133b99a8712775a266ab39acb\n      0x30\n      swap2\n      codecopy\n      0x40\n      add\n      swap2\n      pop\n      pop\n      mload(0x40)\n      dup1\n      swap2\n      sub\n      swap1\n      revert\n    tag_26:\n        /* \"contracts/DeferredEquityPlan.sol\":994:998  true */\n      0x01\n        /* \"contracts/DeferredEquityPlan.sol\":984:998  active == true */\n      iszero\n      iszero\n        /* \"contracts/DeferredEquityPlan.sol\":984:990  active */\n      0x01\n      0x14\n      swap1\n      sload\n      swap1\n      0x0100\n      exp\n      swap1\n      div\n      0xff\n      and\n        /* \"contracts/DeferredEquityPlan.sol\":984:998  active == true */\n      iszero\n      iszero\n      eq\n        /* \"contracts/DeferredEquityPlan.sol\":976:1023  require(active == true, \"Contract not active.\") */\n      tag_27\n      jumpi\n      mload(0x40)\n      0x08c379a000000000000000000000000000000000000000000000000000000000\n      dup2\n      mstore\n      0x04\n      add\n      dup1\n      dup1\n      0x20\n      add\n      dup3\n      dup2\n      sub\n      dup3\n      mstore\n      0x14\n      dup2\n      mstore\n      0x20\n      add\n      dup1\n      0x436f6e7472616374206e6f74206163746976652e000000000000000000000000\n      dup2\n      mstore\n      pop\n      0x20\n      add\n      swap2\n      pop\n      pop\n      mload(0x40)\n      dup1\n      swap2\n      sub\n      swap1\n      revert\n    tag_27:\n        /* \"contracts/DeferredEquityPlan.sol\":1277:1280  now */\n      timestamp\n        /* \"contracts/DeferredEquityPlan.sol\":1262:1273  unlock_time */\n      sload(0x06)\n        /* \"contracts/DeferredEquityPlan.sol\":1262:1280  unlock_time <= now */\n      gt\n      iszero\n        /* \"contracts/DeferredEquityPlan.sol\":1253:1292  require (unlock_time <= now ,\"ne ula\" ) */\n      tag_28\n      jumpi\n      mload(0x40)\n      0x08c379a000000000000000000000000000000000000000000000000000000000\n      dup2\n      mstore\n      0x04\n      add\n      dup1\n      dup1\n      0x20\n      add\n      dup3\n      dup2\n      sub\n      dup3\n      mstore\n      0x06\n      dup2\n      mstore\n      0x20\n      add\n      dup1\n      0x6e6520756c610000000000000000000000000000000000000000000000000000\n      dup2\n      mstore\n      pop\n      0x20\n      add\n      swap2\n      pop\n      pop\n      mload(0x40)\n      dup1\n      swap2\n      sub\n      swap1\n      revert\n    tag_28:\n        /* \"contracts/DeferredEquityPlan.sol\":1334:1346  total_shares */\n      sload(0x03)\n        /* \"contracts/DeferredEquityPlan.sol\":1312:1330  distributed_shares */\n      sload(0x07)\n        /* \"contracts/DeferredEquityPlan.sol\":1312:1346  distributed_shares <= total_shares */\n      gt\n      iszero\n        /* \"contracts/DeferredEquityPlan.sol\":1303:1362  require (distributed_shares <= total_shares, \"bu nedir lo\") */\n      tag_29\n      jumpi\n      mload(0x40)\n      0x08c379a000000000000000000000000000000000000000000000000000000000\n      dup2\n      mstore\n      0x04\n      add\n      dup1\n      dup1\n      0x20\n      add\n      dup3\n      dup2\n      sub\n      dup3\n      mstore\n      0x0b\n      dup2\n      mstore\n      0x20\n      add\n      dup1\n      0x6275206e65646972206c6f000000000000000000000000000000000000000000\n      dup2\n      mstore\n      pop\n      0x20\n      add\n      swap2\n      pop\n      pop\n      mload(0x40)\n      dup1\n      swap2\n      sub\n      swap1\n      revert\n    tag_29:\n        /* \"contracts/DeferredEquityPlan.sol\":1482:1485  365 */\n      0x016d\n        /* \"contracts/DeferredEquityPlan.sol\":1468:1479  unlock_time */\n      sload(0x06)\n        /* \"contracts/DeferredEquityPlan.sol\":1468:1485  unlock_time + 365 */\n      add\n        /* \"contracts/DeferredEquityPlan.sol\":1454:1465  unlock_time */\n      0x06\n        /* \"contracts/DeferredEquityPlan.sol\":1454:1485  unlock_time = unlock_time + 365 */\n      dup2\n      swap1\n      sstore\n      pop\n        /* \"contracts/DeferredEquityPlan.sol\":1803:1822  annual_distribution */\n      sload(0x04)\n        /* \"contracts/DeferredEquityPlan.sol\":1797:1800  365 */\n      0x016d\n        /* \"contracts/DeferredEquityPlan.sol\":1783:1793  start_time */\n      sload(0x05)\n        /* \"contracts/DeferredEquityPlan.sol\":1777:1780  now */\n      timestamp\n        /* \"contracts/DeferredEquityPlan.sol\":1777:1793  now - start_time */\n      sub\n        /* \"contracts/DeferredEquityPlan.sol\":1776:1800  (now - start_time) / 365 */\n      dup2\n      tag_30\n      jumpi\n      invalid\n    tag_30:\n      div\n        /* \"contracts/DeferredEquityPlan.sol\":1776:1822  (now - start_time) / 365 * annual_distribution */\n      mul\n        /* \"contracts/DeferredEquityPlan.sol\":1754:1772  distributed_shares */\n      0x07\n        /* \"contracts/DeferredEquityPlan.sol\":1754:1822  distributed_shares =  (now - start_time) / 365 * annual_distribution */\n      dup2\n      swap1\n      sstore\n      pop\n        /* \"contracts/DeferredEquityPlan.sol\":1953:1957  1000 */\n      0x03e8\n        /* \"contracts/DeferredEquityPlan.sol\":1932:1950  distributed_shares */\n      sload(0x07)\n        /* \"contracts/DeferredEquityPlan.sol\":1932:1957  distributed_shares > 1000 */\n      gt\n        /* \"contracts/DeferredEquityPlan.sol\":1928:2011  if (distributed_shares > 1000) {\r... */\n      iszero\n      tag_31\n      jumpi\n        /* \"contracts/DeferredEquityPlan.sol\":1995:1999  1000 */\n      0x03e8\n        /* \"contracts/DeferredEquityPlan.sol\":1974:1992  distributed_shares */\n      0x07\n        /* \"contracts/DeferredEquityPlan.sol\":1974:1999  distributed_shares = 1000 */\n      dup2\n      swap1\n      sstore\n      pop\n        /* \"contracts/DeferredEquityPlan.sol\":1928:2011  if (distributed_shares > 1000) {\r... */\n    tag_31:\n        /* \"contracts/DeferredEquityPlan.sol\":809:2018  function distribute() public {\r... */\n      jump\t// out\n    stop\n    data_44fe763b3ac121d9373b3116501483b74bc02ac33c1be16c96619643c2e17c04 596f7520617265206e6f7420617574686f72697a656420746f2064656163746976617465207468697320636f6e74726163742e\n    data_68f702e6388d2518088e18365eaa062fd5393371528035cdd118dd91cf2fd66b 446f206e6f742073656e6420457468657220746f207468697320636f6e747261637421\n    data_ba2ee6ca50d86582f4490a3252728de9a213982133b99a8712775a266ab39acb 596f7520617265206e6f7420617574686f72697a656420746f2065786563757465207468697320636f6e74726163742e\n\n    auxdata: 0xa265627a7a723158204849264a64fc2aa1fc2e72a53317e9b5e8330c378d4144191bbf0f1a9c8dac1a64736f6c63430005110032\n}\n",
				"bytecode": {
					"linkReferences": {},
					"object": "608060405260018060146101000a81548160ff021916908315150217905550426002556103e860035560fa6004554260055542600655600060075534801561004657600080fd5b506040516106b03803806106b08339818101604052602081101561006957600080fd5b8101908080519060200190929190505050336000806101000a81548173ffffffffffffffffffffffffffffffffffffffff021916908373ffffffffffffffffffffffffffffffffffffffff16021790555080600160006101000a81548173ffffffffffffffffffffffffffffffffffffffff021916908373ffffffffffffffffffffffffffffffffffffffff160217905550506105a58061010b6000396000f3fe60806040526004361061003f5760003560e01c806351b42b001461009057806362cb5951146100a75780639bc717f1146100be578063e4fc6b6d146100e9575b6040517f08c379a000000000000000000000000000000000000000000000000000000000815260040180806020018281038252602381526020018061051e6023913960400191505060405180910390fd5b34801561009c57600080fd5b506100a5610100565b005b3480156100b357600080fd5b506100bc61021a565b005b3480156100ca57600080fd5b506100d361022d565b6040518082815260200191505060405180910390f35b3480156100f557600080fd5b506100fe610233565b005b6000809054906101000a900473ffffffffffffffffffffffffffffffffffffffff1673ffffffffffffffffffffffffffffffffffffffff163373ffffffffffffffffffffffffffffffffffffffff1614806101a85750600160009054906101000a900473ffffffffffffffffffffffffffffffffffffffff1673ffffffffffffffffffffffffffffffffffffffff163373ffffffffffffffffffffffffffffffffffffffff16145b6101fd576040517f08c379a00000000000000000000000000000000000000000000000000000000081526004018080602001828103825260338152602001806104eb6033913960400191505060405180910390fd5b6000600160146101000a81548160ff021916908315150217905550565b6064600260008282540192505081905550565b60075481565b6000809054906101000a900473ffffffffffffffffffffffffffffffffffffffff1673ffffffffffffffffffffffffffffffffffffffff163373ffffffffffffffffffffffffffffffffffffffff1614806102db5750600160009054906101000a900473ffffffffffffffffffffffffffffffffffffffff1673ffffffffffffffffffffffffffffffffffffffff163373ffffffffffffffffffffffffffffffffffffffff16145b610330576040517f08c379a00000000000000000000000000000000000000000000000000000000081526004018080602001828103825260308152602001806105416030913960400191505060405180910390fd5b60011515600160149054906101000a900460ff161515146103b9576040517f08c379a00000000000000000000000000000000000000000000000000000000081526004018080602001828103825260148152602001807f436f6e7472616374206e6f74206163746976652e00000000000000000000000081525060200191505060405180910390fd5b426006541115610431576040517f08c379a00000000000000000000000000000000000000000000000000000000081526004018080602001828103825260068152602001807f6e6520756c61000000000000000000000000000000000000000000000000000081525060200191505060405180910390fd5b60035460075411156104ab576040517f08c379a000000000000000000000000000000000000000000000000000000000815260040180806020018281038252600b8152602001807f6275206e65646972206c6f00000000000000000000000000000000000000000081525060200191505060405180910390fd5b61016d6006540160068190555060045461016d6005544203816104ca57fe5b04026007819055506103e860075411156104e8576103e86007819055505b56fe596f7520617265206e6f7420617574686f72697a656420746f2064656163746976617465207468697320636f6e74726163742e446f206e6f742073656e6420457468657220746f207468697320636f6e747261637421596f7520617265206e6f7420617574686f72697a656420746f2065786563757465207468697320636f6e74726163742ea265627a7a723158204849264a64fc2aa1fc2e72a53317e9b5e8330c378d4144191bbf0f1a9c8dac1a64736f6c63430005110032",
					"opcodes": "PUSH1 0x80 PUSH1 0x40 MSTORE PUSH1 0x1 DUP1 PUSH1 0x14 PUSH2 0x100 EXP DUP2 SLOAD DUP2 PUSH1 0xFF MUL NOT AND SWAP1 DUP4 ISZERO ISZERO MUL OR SWAP1 SSTORE POP TIMESTAMP PUSH1 0x2 SSTORE PUSH2 0x3E8 PUSH1 0x3 SSTORE PUSH1 0xFA PUSH1 0x4 SSTORE TIMESTAMP PUSH1 0x5 SSTORE TIMESTAMP PUSH1 0x6 SSTORE PUSH1 0x0 PUSH1 0x7 SSTORE CALLVALUE DUP1 ISZERO PUSH2 0x46 JUMPI PUSH1 0x0 DUP1 REVERT JUMPDEST POP PUSH1 0x40 MLOAD PUSH2 0x6B0 CODESIZE SUB DUP1 PUSH2 0x6B0 DUP4 CODECOPY DUP2 DUP2 ADD PUSH1 0x40 MSTORE PUSH1 0x20 DUP2 LT ISZERO PUSH2 0x69 JUMPI PUSH1 0x0 DUP1 REVERT JUMPDEST DUP2 ADD SWAP1 DUP1 DUP1 MLOAD SWAP1 PUSH1 0x20 ADD SWAP1 SWAP3 SWAP2 SWAP1 POP POP POP CALLER PUSH1 0x0 DUP1 PUSH2 0x100 EXP DUP2 SLOAD DUP2 PUSH20 0xFFFFFFFFFFFFFFFFFFFFFFFFFFFFFFFFFFFFFFFF MUL NOT AND SWAP1 DUP4 PUSH20 0xFFFFFFFFFFFFFFFFFFFFFFFFFFFFFFFFFFFFFFFF AND MUL OR SWAP1 SSTORE POP DUP1 PUSH1 0x1 PUSH1 0x0 PUSH2 0x100 EXP DUP2 SLOAD DUP2 PUSH20 0xFFFFFFFFFFFFFFFFFFFFFFFFFFFFFFFFFFFFFFFF MUL NOT AND SWAP1 DUP4 PUSH20 0xFFFFFFFFFFFFFFFFFFFFFFFFFFFFFFFFFFFFFFFF AND MUL OR SWAP1 SSTORE POP POP PUSH2 0x5A5 DUP1 PUSH2 0x10B PUSH1 0x0 CODECOPY PUSH1 0x0 RETURN INVALID PUSH1 0x80 PUSH1 0x40 MSTORE PUSH1 0x4 CALLDATASIZE LT PUSH2 0x3F JUMPI PUSH1 0x0 CALLDATALOAD PUSH1 0xE0 SHR DUP1 PUSH4 0x51B42B00 EQ PUSH2 0x90 JUMPI DUP1 PUSH4 0x62CB5951 EQ PUSH2 0xA7 JUMPI DUP1 PUSH4 0x9BC717F1 EQ PUSH2 0xBE JUMPI DUP1 PUSH4 0xE4FC6B6D EQ PUSH2 0xE9 JUMPI JUMPDEST PUSH1 0x40 MLOAD PUSH32 0x8C379A000000000000000000000000000000000000000000000000000000000 DUP2 MSTORE PUSH1 0x4 ADD DUP1 DUP1 PUSH1 0x20 ADD DUP3 DUP2 SUB DUP3 MSTORE PUSH1 0x23 DUP2 MSTORE PUSH1 0x20 ADD DUP1 PUSH2 0x51E PUSH1 0x23 SWAP2 CODECOPY PUSH1 0x40 ADD SWAP2 POP POP PUSH1 0x40 MLOAD DUP1 SWAP2 SUB SWAP1 REVERT JUMPDEST CALLVALUE DUP1 ISZERO PUSH2 0x9C JUMPI PUSH1 0x0 DUP1 REVERT JUMPDEST POP PUSH2 0xA5 PUSH2 0x100 JUMP JUMPDEST STOP JUMPDEST CALLVALUE DUP1 ISZERO PUSH2 0xB3 JUMPI PUSH1 0x0 DUP1 REVERT JUMPDEST POP PUSH2 0xBC PUSH2 0x21A JUMP JUMPDEST STOP JUMPDEST CALLVALUE DUP1 ISZERO PUSH2 0xCA JUMPI PUSH1 0x0 DUP1 REVERT JUMPDEST POP PUSH2 0xD3 PUSH2 0x22D JUMP JUMPDEST PUSH1 0x40 MLOAD DUP1 DUP3 DUP2 MSTORE PUSH1 0x20 ADD SWAP2 POP POP PUSH1 0x40 MLOAD DUP1 SWAP2 SUB SWAP1 RETURN JUMPDEST CALLVALUE DUP1 ISZERO PUSH2 0xF5 JUMPI PUSH1 0x0 DUP1 REVERT JUMPDEST POP PUSH2 0xFE PUSH2 0x233 JUMP JUMPDEST STOP JUMPDEST PUSH1 0x0 DUP1 SWAP1 SLOAD SWAP1 PUSH2 0x100 EXP SWAP1 DIV PUSH20 0xFFFFFFFFFFFFFFFFFFFFFFFFFFFFFFFFFFFFFFFF AND PUSH20 0xFFFFFFFFFFFFFFFFFFFFFFFFFFFFFFFFFFFFFFFF AND CALLER PUSH20 0xFFFFFFFFFFFFFFFFFFFFFFFFFFFFFFFFFFFFFFFF AND EQ DUP1 PUSH2 0x1A8 JUMPI POP PUSH1 0x1 PUSH1 0x0 SWAP1 SLOAD SWAP1 PUSH2 0x100 EXP SWAP1 DIV PUSH20 0xFFFFFFFFFFFFFFFFFFFFFFFFFFFFFFFFFFFFFFFF AND PUSH20 0xFFFFFFFFFFFFFFFFFFFFFFFFFFFFFFFFFFFFFFFF AND CALLER PUSH20 0xFFFFFFFFFFFFFFFFFFFFFFFFFFFFFFFFFFFFFFFF AND EQ JUMPDEST PUSH2 0x1FD JUMPI PUSH1 0x40 MLOAD PUSH32 0x8C379A000000000000000000000000000000000000000000000000000000000 DUP2 MSTORE PUSH1 0x4 ADD DUP1 DUP1 PUSH1 0x20 ADD DUP3 DUP2 SUB DUP3 MSTORE PUSH1 0x33 DUP2 MSTORE PUSH1 0x20 ADD DUP1 PUSH2 0x4EB PUSH1 0x33 SWAP2 CODECOPY PUSH1 0x40 ADD SWAP2 POP POP PUSH1 0x40 MLOAD DUP1 SWAP2 SUB SWAP1 REVERT JUMPDEST PUSH1 0x0 PUSH1 0x1 PUSH1 0x14 PUSH2 0x100 EXP DUP2 SLOAD DUP2 PUSH1 0xFF MUL NOT AND SWAP1 DUP4 ISZERO ISZERO MUL OR SWAP1 SSTORE POP JUMP JUMPDEST PUSH1 0x64 PUSH1 0x2 PUSH1 0x0 DUP3 DUP3 SLOAD ADD SWAP3 POP POP DUP2 SWAP1 SSTORE POP JUMP JUMPDEST PUSH1 0x7 SLOAD DUP2 JUMP JUMPDEST PUSH1 0x0 DUP1 SWAP1 SLOAD SWAP1 PUSH2 0x100 EXP SWAP1 DIV PUSH20 0xFFFFFFFFFFFFFFFFFFFFFFFFFFFFFFFFFFFFFFFF AND PUSH20 0xFFFFFFFFFFFFFFFFFFFFFFFFFFFFFFFFFFFFFFFF AND CALLER PUSH20 0xFFFFFFFFFFFFFFFFFFFFFFFFFFFFFFFFFFFFFFFF AND EQ DUP1 PUSH2 0x2DB JUMPI POP PUSH1 0x1 PUSH1 0x0 SWAP1 SLOAD SWAP1 PUSH2 0x100 EXP SWAP1 DIV PUSH20 0xFFFFFFFFFFFFFFFFFFFFFFFFFFFFFFFFFFFFFFFF AND PUSH20 0xFFFFFFFFFFFFFFFFFFFFFFFFFFFFFFFFFFFFFFFF AND CALLER PUSH20 0xFFFFFFFFFFFFFFFFFFFFFFFFFFFFFFFFFFFFFFFF AND EQ JUMPDEST PUSH2 0x330 JUMPI PUSH1 0x40 MLOAD PUSH32 0x8C379A000000000000000000000000000000000000000000000000000000000 DUP2 MSTORE PUSH1 0x4 ADD DUP1 DUP1 PUSH1 0x20 ADD DUP3 DUP2 SUB DUP3 MSTORE PUSH1 0x30 DUP2 MSTORE PUSH1 0x20 ADD DUP1 PUSH2 0x541 PUSH1 0x30 SWAP2 CODECOPY PUSH1 0x40 ADD SWAP2 POP POP PUSH1 0x40 MLOAD DUP1 SWAP2 SUB SWAP1 REVERT JUMPDEST PUSH1 0x1 ISZERO ISZERO PUSH1 0x1 PUSH1 0x14 SWAP1 SLOAD SWAP1 PUSH2 0x100 EXP SWAP1 DIV PUSH1 0xFF AND ISZERO ISZERO EQ PUSH2 0x3B9 JUMPI PUSH1 0x40 MLOAD PUSH32 0x8C379A000000000000000000000000000000000000000000000000000000000 DUP2 MSTORE PUSH1 0x4 ADD DUP1 DUP1 PUSH1 0x20 ADD DUP3 DUP2 SUB DUP3 MSTORE PUSH1 0x14 DUP2 MSTORE PUSH1 0x20 ADD DUP1 PUSH32 0x436F6E7472616374206E6F74206163746976652E000000000000000000000000 DUP2 MSTORE POP PUSH1 0x20 ADD SWAP2 POP POP PUSH1 0x40 MLOAD DUP1 SWAP2 SUB SWAP1 REVERT JUMPDEST TIMESTAMP PUSH1 0x6 SLOAD GT ISZERO PUSH2 0x431 JUMPI PUSH1 0x40 MLOAD PUSH32 0x8C379A000000000000000000000000000000000000000000000000000000000 DUP2 MSTORE PUSH1 0x4 ADD DUP1 DUP1 PUSH1 0x20 ADD DUP3 DUP2 SUB DUP3 MSTORE PUSH1 0x6 DUP2 MSTORE PUSH1 0x20 ADD DUP1 PUSH32 0x6E6520756C610000000000000000000000000000000000000000000000000000 DUP2 MSTORE POP PUSH1 0x20 ADD SWAP2 POP POP PUSH1 0x40 MLOAD DUP1 SWAP2 SUB SWAP1 REVERT JUMPDEST PUSH1 0x3 SLOAD PUSH1 0x7 SLOAD GT ISZERO PUSH2 0x4AB JUMPI PUSH1 0x40 MLOAD PUSH32 0x8C379A000000000000000000000000000000000000000000000000000000000 DUP2 MSTORE PUSH1 0x4 ADD DUP1 DUP1 PUSH1 0x20 ADD DUP3 DUP2 SUB DUP3 MSTORE PUSH1 0xB DUP2 MSTORE PUSH1 0x20 ADD DUP1 PUSH32 0x6275206E65646972206C6F000000000000000000000000000000000000000000 DUP2 MSTORE POP PUSH1 0x20 ADD SWAP2 POP POP PUSH1 0x40 MLOAD DUP1 SWAP2 SUB SWAP1 REVERT JUMPDEST PUSH2 0x16D PUSH1 0x6 SLOAD ADD PUSH1 0x6 DUP2 SWAP1 SSTORE POP PUSH1 0x4 SLOAD PUSH2 0x16D PUSH1 0x5 SLOAD TIMESTAMP SUB DUP2 PUSH2 0x4CA JUMPI INVALID JUMPDEST DIV MUL PUSH1 0x7 DUP2 SWAP1 SSTORE POP PUSH2 0x3E8 PUSH1 0x7 SLOAD GT ISZERO PUSH2 0x4E8 JUMPI PUSH2 0x3E8 PUSH1 0x7 DUP2 SWAP1 SSTORE POP JUMPDEST JUMP INVALID MSIZE PUSH16 0x7520617265206E6F7420617574686F72 PUSH10 0x7A656420746F20646561 PUSH4 0x74697661 PUSH21 0x65207468697320636F6E74726163742E446F206E6F PUSH21 0x2073656E6420457468657220746F20746869732063 PUSH16 0x6E747261637421596F7520617265206E PUSH16 0x7420617574686F72697A656420746F20 PUSH6 0x786563757465 KECCAK256 PUSH21 0x68697320636F6E74726163742EA265627A7A723158 KECCAK256 0x48 0x49 0x26 0x4A PUSH5 0xFC2AA1FC2E PUSH19 0xA53317E9B5E8330C378D4144191BBF0F1A9C8D 0xAC BYTE PUSH5 0x736F6C6343 STOP SDIV GT STOP ORIGIN "
				},
				"gasEstimates": {
					"creation": {
						"codeDepositCost": "289000",
						"executionCost": "infinite",
						"totalCost": "infinite"
					},
					"external": {
						"": "infinite",
						"deactivate()": "infinite",
						"distribute()": "infinite",
						"distributed_shares()": "1027",
						"fastforward()": "20977"
					}
				},
				"methodIdentifiers": {
					"deactivate()": "51b42b00",
					"distribute()": "e4fc6b6d",
					"distributed_shares()": "9bc717f1",
					"fastforward()": "62cb5951"
				}
			},
			"storageLayout": {
				"storage": [
					{
						"astId": 3,
						"contract": "contracts/DeferredEquityPlan.sol:DeferredEquityPlan",
						"label": "human_resources",
						"offset": 0,
						"slot": "0",
						"type": "t_address"
					},
					{
						"astId": 5,
						"contract": "contracts/DeferredEquityPlan.sol:DeferredEquityPlan",
						"label": "employee",
						"offset": 0,
						"slot": "1",
						"type": "t_address_payable"
					},
					{
						"astId": 8,
						"contract": "contracts/DeferredEquityPlan.sol:DeferredEquityPlan",
						"label": "active",
						"offset": 20,
						"slot": "1",
						"type": "t_bool"
					},
					{
						"astId": 11,
						"contract": "contracts/DeferredEquityPlan.sol:DeferredEquityPlan",
						"label": "fakenow",
						"offset": 0,
						"slot": "2",
						"type": "t_uint256"
					},
					{
						"astId": 14,
						"contract": "contracts/DeferredEquityPlan.sol:DeferredEquityPlan",
						"label": "total_shares",
						"offset": 0,
						"slot": "3",
						"type": "t_uint256"
					},
					{
						"astId": 17,
						"contract": "contracts/DeferredEquityPlan.sol:DeferredEquityPlan",
						"label": "annual_distribution",
						"offset": 0,
						"slot": "4",
						"type": "t_uint256"
					},
					{
						"astId": 20,
						"contract": "contracts/DeferredEquityPlan.sol:DeferredEquityPlan",
						"label": "start_time",
						"offset": 0,
						"slot": "5",
						"type": "t_uint256"
					},
					{
						"astId": 23,
						"contract": "contracts/DeferredEquityPlan.sol:DeferredEquityPlan",
						"label": "unlock_time",
						"offset": 0,
						"slot": "6",
						"type": "t_uint256"
					},
					{
						"astId": 26,
						"contract": "contracts/DeferredEquityPlan.sol:DeferredEquityPlan",
						"label": "distributed_shares",
						"offset": 0,
						"slot": "7",
						"type": "t_uint256"
					}
				],
				"types": {
					"t_address": {
						"encoding": "inplace",
						"label": "address",
						"numberOfBytes": "20"
					},
					"t_address_payable": {
						"encoding": "inplace",
						"label": "address payable",
						"numberOfBytes": "20"
					},
					"t_bool": {
						"encoding": "inplace",
						"label": "bool",
						"numberOfBytes": "1"
					},
					"t_uint256": {
						"encoding": "inplace",
						"label": "uint256",
						"numberOfBytes": "32"
					}
				}
			},
			"userdoc": {
				"methods": {}
			}
		}
	}
}