{
	"contracts/TieredProfitSplitter.sol": {
		"TieredProfitSplitter": {
			"abi": [
				{
					"inputs": [
						{
							"internalType": "address payable",
							"name": "_one",
							"type": "address"
						},
						{
							"internalType": "address payable",
							"name": "_two",
							"type": "address"
						},
						{
							"internalType": "address payable",
							"name": "_three",
							"type": "address"
						}
					],
					"payable": false,
					"stateMutability": "nonpayable",
					"type": "constructor"
				},
				{
					"payable": true,
					"stateMutability": "payable",
					"type": "fallback"
				},
				{
					"constant": true,
					"inputs": [],
					"name": "balance",
					"outputs": [
						{
							"internalType": "uint256",
							"name": "",
							"type": "uint256"
						}
					],
					"payable": false,
					"stateMutability": "view",
					"type": "function"
				},
				{
					"constant": false,
					"inputs": [],
					"name": "deposit",
					"outputs": [],
					"payable": true,
					"stateMutability": "payable",
					"type": "function"
				}
			],
			"devdoc": {
				"methods": {}
			},
			"evm": {
				"assembly": "    /* \"contracts/TieredProfitSplitter.sol\":51:1635  contract TieredProfitSplitter {\r... */\n  mstore(0x40, 0x80)\n    /* \"contracts/TieredProfitSplitter.sol\":218:407  constructor(address payable _one, address payable _two, address payable _three) public {\r... */\n  callvalue\n    /* \"--CODEGEN--\":8:17   */\n  dup1\n    /* \"--CODEGEN--\":5:7   */\n  iszero\n  tag_1\n  jumpi\n    /* \"--CODEGEN--\":30:31   */\n  0x00\n    /* \"--CODEGEN--\":27:28   */\n  dup1\n    /* \"--CODEGEN--\":20:32   */\n  revert\n    /* \"--CODEGEN--\":5:7   */\ntag_1:\n    /* \"contracts/TieredProfitSplitter.sol\":218:407  constructor(address payable _one, address payable _two, address payable _three) public {\r... */\n  pop\n  mload(0x40)\n  sub(codesize, bytecodeSize)\n  dup1\n  bytecodeSize\n  dup4\n  codecopy\n  dup2\n  dup2\n  add\n  0x40\n  mstore\n    /* \"--CODEGEN--\":13:15   */\n  0x60\n    /* \"--CODEGEN--\":8:11   */\n  dup2\n    /* \"--CODEGEN--\":5:16   */\n  lt\n    /* \"--CODEGEN--\":2:4   */\n  iszero\n  tag_2\n  jumpi\n    /* \"--CODEGEN--\":29:30   */\n  0x00\n    /* \"--CODEGEN--\":26:27   */\n  dup1\n    /* \"--CODEGEN--\":19:31   */\n  revert\n    /* \"--CODEGEN--\":2:4   */\ntag_2:\n    /* \"contracts/TieredProfitSplitter.sol\":218:407  constructor(address payable _one, address payable _two, address payable _three) public {\r... */\n  dup2\n  add\n  swap1\n  dup1\n  dup1\n  mload\n  swap1\n  0x20\n  add\n  swap1\n  swap3\n  swap2\n  swap1\n  dup1\n  mload\n  swap1\n  0x20\n  add\n  swap1\n  swap3\n  swap2\n  swap1\n  dup1\n  mload\n  swap1\n  0x20\n  add\n  swap1\n  swap3\n  swap2\n  swap1\n  pop\n  pop\n  pop\n    /* \"contracts/TieredProfitSplitter.sol\":331:335  _one */\n  dup3\n    /* \"contracts/TieredProfitSplitter.sol\":316:328  employee_one */\n  0x00\n  dup1\n    /* \"contracts/TieredProfitSplitter.sol\":316:335  employee_one = _one */\n  0x0100\n  exp\n  dup2\n  sload\n  dup2\n  0xffffffffffffffffffffffffffffffffffffffff\n  mul\n  not\n  and\n  swap1\n  dup4\n  0xffffffffffffffffffffffffffffffffffffffff\n  and\n  mul\n  or\n  swap1\n  sstore\n  pop\n    /* \"contracts/TieredProfitSplitter.sol\":361:365  _two */\n  dup2\n    /* \"contracts/TieredProfitSplitter.sol\":346:358  employee_two */\n  0x01\n  0x00\n    /* \"contracts/TieredProfitSplitter.sol\":346:365  employee_two = _two */\n  0x0100\n  exp\n  dup2\n  sload\n  dup2\n  0xffffffffffffffffffffffffffffffffffffffff\n  mul\n  not\n  and\n  swap1\n  dup4\n  0xffffffffffffffffffffffffffffffffffffffff\n  and\n  mul\n  or\n  swap1\n  sstore\n  pop\n    /* \"contracts/TieredProfitSplitter.sol\":393:399  _three */\n  dup1\n    /* \"contracts/TieredProfitSplitter.sol\":376:390  employee_three */\n  0x02\n  0x00\n    /* \"contracts/TieredProfitSplitter.sol\":376:399  employee_three = _three */\n  0x0100\n  exp\n  dup2\n  sload\n  dup2\n  0xffffffffffffffffffffffffffffffffffffffff\n  mul\n  not\n  and\n  swap1\n  dup4\n  0xffffffffffffffffffffffffffffffffffffffff\n  and\n  mul\n  or\n  swap1\n  sstore\n  pop\n    /* \"contracts/TieredProfitSplitter.sol\":218:407  constructor(address payable _one, address payable _two, address payable _three) public {\r... */\n  pop\n  pop\n  pop\n    /* \"contracts/TieredProfitSplitter.sol\":51:1635  contract TieredProfitSplitter {\r... */\n  dataSize(sub_0)\n  dup1\n  dataOffset(sub_0)\n  0x00\n  codecopy\n  0x00\n  return\nstop\n\nsub_0: assembly {\n        /* \"contracts/TieredProfitSplitter.sol\":51:1635  contract TieredProfitSplitter {\r... */\n      mstore(0x40, 0x80)\n      jumpi(tag_1, lt(calldatasize, 0x04))\n      shr(0xe0, calldataload(0x00))\n      dup1\n      0xb69ef8a8\n      eq\n      tag_2\n      jumpi\n      dup1\n      0xd0e30db0\n      eq\n      tag_3\n      jumpi\n    tag_1:\n        /* \"contracts/TieredProfitSplitter.sol\":1615:1624  deposit() */\n      tag_6\n        /* \"contracts/TieredProfitSplitter.sol\":1615:1622  deposit */\n      tag_7\n        /* \"contracts/TieredProfitSplitter.sol\":1615:1624  deposit() */\n      jump\t// in\n    tag_6:\n        /* \"contracts/TieredProfitSplitter.sol\":51:1635  contract TieredProfitSplitter {\r... */\n      stop\n        /* \"contracts/TieredProfitSplitter.sol\":496:588  function balance() public view returns(uint) {\r... */\n    tag_2:\n      callvalue\n        /* \"--CODEGEN--\":8:17   */\n      dup1\n        /* \"--CODEGEN--\":5:7   */\n      iszero\n      tag_8\n      jumpi\n        /* \"--CODEGEN--\":30:31   */\n      0x00\n        /* \"--CODEGEN--\":27:28   */\n      dup1\n        /* \"--CODEGEN--\":20:32   */\n      revert\n        /* \"--CODEGEN--\":5:7   */\n    tag_8:\n        /* \"contracts/TieredProfitSplitter.sol\":496:588  function balance() public view returns(uint) {\r... */\n      pop\n      tag_9\n      tag_10\n      jump\t// in\n    tag_9:\n      mload(0x40)\n      dup1\n      dup3\n      dup2\n      mstore\n      0x20\n      add\n      swap2\n      pop\n      pop\n      mload(0x40)\n      dup1\n      swap2\n      sub\n      swap1\n      return\n        /* \"contracts/TieredProfitSplitter.sol\":596:1568  function deposit() public payable {\r... */\n    tag_3:\n      tag_11\n      tag_7\n      jump\t// in\n    tag_11:\n      stop\n    tag_7:\n        /* \"contracts/TieredProfitSplitter.sol\":641:652  uint points */\n      0x00\n        /* \"contracts/TieredProfitSplitter.sol\":667:670  100 */\n      0x64\n        /* \"contracts/TieredProfitSplitter.sol\":655:664  msg.value */\n      callvalue\n        /* \"contracts/TieredProfitSplitter.sol\":655:670  msg.value / 100 */\n      dup2\n      tag_13\n      jumpi\n      invalid\n    tag_13:\n      div\n        /* \"contracts/TieredProfitSplitter.sol\":641:670  uint points = msg.value / 100 */\n      swap1\n      pop\n        /* \"contracts/TieredProfitSplitter.sol\":755:765  uint total */\n      0x00\n        /* \"contracts/TieredProfitSplitter.sol\":776:787  uint amount */\n      dup1\n        /* \"contracts/TieredProfitSplitter.sol\":1118:1120  60 */\n      0x3c\n        /* \"contracts/TieredProfitSplitter.sol\":1109:1115  points */\n      dup4\n        /* \"contracts/TieredProfitSplitter.sol\":1109:1120  points * 60 */\n      mul\n        /* \"contracts/TieredProfitSplitter.sol\":1100:1120  amount = points * 60 */\n      swap1\n      pop\n        /* \"contracts/TieredProfitSplitter.sol\":1139:1145  amount */\n      dup1\n        /* \"contracts/TieredProfitSplitter.sol\":1130:1145  total += amount */\n      dup3\n      add\n      swap2\n      pop\n        /* \"contracts/TieredProfitSplitter.sol\":1155:1167  employee_one */\n      0x00\n      dup1\n      swap1\n      sload\n      swap1\n      0x0100\n      exp\n      swap1\n      div\n      0xffffffffffffffffffffffffffffffffffffffff\n      and\n        /* \"contracts/TieredProfitSplitter.sol\":1155:1176  employee_one.transfer */\n      0xffffffffffffffffffffffffffffffffffffffff\n      and\n        /* \"contracts/TieredProfitSplitter.sol\":1155:1184  employee_one.transfer(amount) */\n      0x08fc\n        /* \"contracts/TieredProfitSplitter.sol\":1177:1183  amount */\n      dup3\n        /* \"contracts/TieredProfitSplitter.sol\":1155:1184  employee_one.transfer(amount) */\n      swap1\n      dup2\n      iszero\n      mul\n      swap1\n      mload(0x40)\n      0x00\n      mload(0x40)\n      dup1\n      dup4\n      sub\n      dup2\n      dup6\n      dup9\n      dup9\n      call\n      swap4\n      pop\n      pop\n      pop\n      pop\n      iszero\n        /* \"--CODEGEN--\":8:17   */\n      dup1\n        /* \"--CODEGEN--\":5:7   */\n      iszero\n      tag_14\n      jumpi\n        /* \"--CODEGEN--\":45:61   */\n      returndatasize\n        /* \"--CODEGEN--\":42:43   */\n      0x00\n        /* \"--CODEGEN--\":39:40   */\n      dup1\n        /* \"--CODEGEN--\":24:62   */\n      returndatacopy\n        /* \"--CODEGEN--\":77:93   */\n      returndatasize\n        /* \"--CODEGEN--\":74:75   */\n      0x00\n        /* \"--CODEGEN--\":67:94   */\n      revert\n        /* \"--CODEGEN--\":5:7   */\n    tag_14:\n        /* \"contracts/TieredProfitSplitter.sol\":1155:1184  employee_one.transfer(amount) */\n      pop\n        /* \"contracts/TieredProfitSplitter.sol\":1305:1307  25 */\n      0x19\n        /* \"contracts/TieredProfitSplitter.sol\":1296:1302  points */\n      dup4\n        /* \"contracts/TieredProfitSplitter.sol\":1296:1307  points * 25 */\n      mul\n        /* \"contracts/TieredProfitSplitter.sol\":1287:1307  amount = points * 25 */\n      swap1\n      pop\n        /* \"contracts/TieredProfitSplitter.sol\":1326:1332  amount */\n      dup1\n        /* \"contracts/TieredProfitSplitter.sol\":1317:1332  total += amount */\n      dup3\n      add\n      swap2\n      pop\n        /* \"contracts/TieredProfitSplitter.sol\":1342:1354  employee_two */\n      0x01\n      0x00\n      swap1\n      sload\n      swap1\n      0x0100\n      exp\n      swap1\n      div\n      0xffffffffffffffffffffffffffffffffffffffff\n      and\n        /* \"contracts/TieredProfitSplitter.sol\":1342:1363  employee_two.transfer */\n      0xffffffffffffffffffffffffffffffffffffffff\n      and\n        /* \"contracts/TieredProfitSplitter.sol\":1342:1371  employee_two.transfer(amount) */\n      0x08fc\n        /* \"contracts/TieredProfitSplitter.sol\":1364:1370  amount */\n      dup3\n        /* \"contracts/TieredProfitSplitter.sol\":1342:1371  employee_two.transfer(amount) */\n      swap1\n      dup2\n      iszero\n      mul\n      swap1\n      mload(0x40)\n      0x00\n      mload(0x40)\n      dup1\n      dup4\n      sub\n      dup2\n      dup6\n      dup9\n      dup9\n      call\n      swap4\n      pop\n      pop\n      pop\n      pop\n      iszero\n        /* \"--CODEGEN--\":8:17   */\n      dup1\n        /* \"--CODEGEN--\":5:7   */\n      iszero\n      tag_15\n      jumpi\n        /* \"--CODEGEN--\":45:61   */\n      returndatasize\n        /* \"--CODEGEN--\":42:43   */\n      0x00\n        /* \"--CODEGEN--\":39:40   */\n      dup1\n        /* \"--CODEGEN--\":24:62   */\n      returndatacopy\n        /* \"--CODEGEN--\":77:93   */\n      returndatasize\n        /* \"--CODEGEN--\":74:75   */\n      0x00\n        /* \"--CODEGEN--\":67:94   */\n      revert\n        /* \"--CODEGEN--\":5:7   */\n    tag_15:\n        /* \"contracts/TieredProfitSplitter.sol\":1342:1371  employee_two.transfer(amount) */\n      pop\n        /* \"contracts/TieredProfitSplitter.sol\":1403:1405  15 */\n      0x0f\n        /* \"contracts/TieredProfitSplitter.sol\":1394:1400  points */\n      dup4\n        /* \"contracts/TieredProfitSplitter.sol\":1394:1405  points * 15 */\n      mul\n        /* \"contracts/TieredProfitSplitter.sol\":1385:1405  amount = points * 15 */\n      swap1\n      pop\n        /* \"contracts/TieredProfitSplitter.sol\":1424:1430  amount */\n      dup1\n        /* \"contracts/TieredProfitSplitter.sol\":1415:1430  total += amount */\n      dup3\n      add\n      swap2\n      pop\n        /* \"contracts/TieredProfitSplitter.sol\":1440:1454  employee_three */\n      0x02\n      0x00\n      swap1\n      sload\n      swap1\n      0x0100\n      exp\n      swap1\n      div\n      0xffffffffffffffffffffffffffffffffffffffff\n      and\n        /* \"contracts/TieredProfitSplitter.sol\":1440:1463  employee_three.transfer */\n      0xffffffffffffffffffffffffffffffffffffffff\n      and\n        /* \"contracts/TieredProfitSplitter.sol\":1440:1471  employee_three.transfer(amount) */\n      0x08fc\n        /* \"contracts/TieredProfitSplitter.sol\":1464:1470  amount */\n      dup3\n        /* \"contracts/TieredProfitSplitter.sol\":1440:1471  employee_three.transfer(amount) */\n      swap1\n      dup2\n      iszero\n      mul\n      swap1\n      mload(0x40)\n      0x00\n      mload(0x40)\n      dup1\n      dup4\n      sub\n      dup2\n      dup6\n      dup9\n      dup9\n      call\n      swap4\n      pop\n      pop\n      pop\n      pop\n      iszero\n        /* \"--CODEGEN--\":8:17   */\n      dup1\n        /* \"--CODEGEN--\":5:7   */\n      iszero\n      tag_16\n      jumpi\n        /* \"--CODEGEN--\":45:61   */\n      returndatasize\n        /* \"--CODEGEN--\":42:43   */\n      0x00\n        /* \"--CODEGEN--\":39:40   */\n      dup1\n        /* \"--CODEGEN--\":24:62   */\n      returndatacopy\n        /* \"--CODEGEN--\":77:93   */\n      returndatasize\n        /* \"--CODEGEN--\":74:75   */\n      0x00\n        /* \"--CODEGEN--\":67:94   */\n      revert\n        /* \"--CODEGEN--\":5:7   */\n    tag_16:\n        /* \"contracts/TieredProfitSplitter.sol\":1440:1471  employee_three.transfer(amount) */\n      pop\n        /* \"contracts/TieredProfitSplitter.sol\":1490:1502  employee_one */\n      0x00\n      dup1\n      swap1\n      sload\n      swap1\n      0x0100\n      exp\n      swap1\n      div\n      0xffffffffffffffffffffffffffffffffffffffff\n      and\n        /* \"contracts/TieredProfitSplitter.sol\":1490:1511  employee_one.transfer */\n      0xffffffffffffffffffffffffffffffffffffffff\n      and\n        /* \"contracts/TieredProfitSplitter.sol\":1490:1530  employee_one.transfer(msg.value - total) */\n      0x08fc\n        /* \"contracts/TieredProfitSplitter.sol\":1524:1529  total */\n      dup4\n        /* \"contracts/TieredProfitSplitter.sol\":1512:1521  msg.value */\n      callvalue\n        /* \"contracts/TieredProfitSplitter.sol\":1512:1529  msg.value - total */\n      sub\n        /* \"contracts/TieredProfitSplitter.sol\":1490:1530  employee_one.transfer(msg.value - total) */\n      swap1\n      dup2\n      iszero\n      mul\n      swap1\n      mload(0x40)\n      0x00\n      mload(0x40)\n      dup1\n      dup4\n      sub\n      dup2\n      dup6\n      dup9\n      dup9\n      call\n      swap4\n      pop\n      pop\n      pop\n      pop\n      iszero\n        /* \"--CODEGEN--\":8:17   */\n      dup1\n        /* \"--CODEGEN--\":5:7   */\n      iszero\n      tag_17\n      jumpi\n        /* \"--CODEGEN--\":45:61   */\n      returndatasize\n        /* \"--CODEGEN--\":42:43   */\n      0x00\n        /* \"--CODEGEN--\":39:40   */\n      dup1\n        /* \"--CODEGEN--\":24:62   */\n      returndatacopy\n        /* \"--CODEGEN--\":77:93   */\n      returndatasize\n        /* \"--CODEGEN--\":74:75   */\n      0x00\n        /* \"--CODEGEN--\":67:94   */\n      revert\n        /* \"--CODEGEN--\":5:7   */\n    tag_17:\n        /* \"contracts/TieredProfitSplitter.sol\":1490:1530  employee_one.transfer(msg.value - total) */\n      pop\n        /* \"contracts/TieredProfitSplitter.sol\":596:1568  function deposit() public payable {\r... */\n      pop\n      pop\n      pop\n      jump\t// out\n        /* \"contracts/TieredProfitSplitter.sol\":496:588  function balance() public view returns(uint) {\r... */\n    tag_10:\n        /* \"contracts/TieredProfitSplitter.sol\":535:539  uint */\n      0x00\n        /* \"contracts/TieredProfitSplitter.sol\":559:580  address(this).balance */\n      selfbalance\n        /* \"contracts/TieredProfitSplitter.sol\":552:580  return address(this).balance */\n      swap1\n      pop\n        /* \"contracts/TieredProfitSplitter.sol\":496:588  function balance() public view returns(uint) {\r... */\n      swap1\n      jump\t// out\n\n    auxdata: 0xa265627a7a72315820d275d93396a04c0922a955c8489538d08111769bb4808af89dbfa56acdb6d70d64736f6c63430005110032\n}\n",
				"bytecode": {
					"linkReferences": {},
					"object": "608060405234801561001057600080fd5b506040516103ad3803806103ad8339818101604052606081101561003357600080fd5b81019080805190602001909291908051906020019092919080519060200190929190505050826000806101000a81548173ffffffffffffffffffffffffffffffffffffffff021916908373ffffffffffffffffffffffffffffffffffffffff16021790555081600160006101000a81548173ffffffffffffffffffffffffffffffffffffffff021916908373ffffffffffffffffffffffffffffffffffffffff16021790555080600260006101000a81548173ffffffffffffffffffffffffffffffffffffffff021916908373ffffffffffffffffffffffffffffffffffffffff1602179055505050506102818061012c6000396000f3fe6080604052600436106100295760003560e01c8063b69ef8a814610033578063d0e30db01461005e575b610031610068565b005b34801561003f57600080fd5b50610048610244565b6040518082815260200191505060405180910390f35b610066610068565b005b60006064348161007457fe5b049050600080603c8302905080820191506000809054906101000a900473ffffffffffffffffffffffffffffffffffffffff1673ffffffffffffffffffffffffffffffffffffffff166108fc829081150290604051600060405180830381858888f193505050501580156100ec573d6000803e3d6000fd5b506019830290508082019150600160009054906101000a900473ffffffffffffffffffffffffffffffffffffffff1673ffffffffffffffffffffffffffffffffffffffff166108fc829081150290604051600060405180830381858888f19350505050158015610160573d6000803e3d6000fd5b50600f830290508082019150600260009054906101000a900473ffffffffffffffffffffffffffffffffffffffff1673ffffffffffffffffffffffffffffffffffffffff166108fc829081150290604051600060405180830381858888f193505050501580156101d4573d6000803e3d6000fd5b506000809054906101000a900473ffffffffffffffffffffffffffffffffffffffff1673ffffffffffffffffffffffffffffffffffffffff166108fc8334039081150290604051600060405180830381858888f1935050505015801561023e573d6000803e3d6000fd5b50505050565b60004790509056fea265627a7a72315820d275d93396a04c0922a955c8489538d08111769bb4808af89dbfa56acdb6d70d64736f6c63430005110032",
					"opcodes": "PUSH1 0x80 PUSH1 0x40 MSTORE CALLVALUE DUP1 ISZERO PUSH2 0x10 JUMPI PUSH1 0x0 DUP1 REVERT JUMPDEST POP PUSH1 0x40 MLOAD PUSH2 0x3AD CODESIZE SUB DUP1 PUSH2 0x3AD DUP4 CODECOPY DUP2 DUP2 ADD PUSH1 0x40 MSTORE PUSH1 0x60 DUP2 LT ISZERO PUSH2 0x33 JUMPI PUSH1 0x0 DUP1 REVERT JUMPDEST DUP2 ADD SWAP1 DUP1 DUP1 MLOAD SWAP1 PUSH1 0x20 ADD SWAP1 SWAP3 SWAP2 SWAP1 DUP1 MLOAD SWAP1 PUSH1 0x20 ADD SWAP1 SWAP3 SWAP2 SWAP1 DUP1 MLOAD SWAP1 PUSH1 0x20 ADD SWAP1 SWAP3 SWAP2 SWAP1 POP POP POP DUP3 PUSH1 0x0 DUP1 PUSH2 0x100 EXP DUP2 SLOAD DUP2 PUSH20 0xFFFFFFFFFFFFFFFFFFFFFFFFFFFFFFFFFFFFFFFF MUL NOT AND SWAP1 DUP4 PUSH20 0xFFFFFFFFFFFFFFFFFFFFFFFFFFFFFFFFFFFFFFFF AND MUL OR SWAP1 SSTORE POP DUP2 PUSH1 0x1 PUSH1 0x0 PUSH2 0x100 EXP DUP2 SLOAD DUP2 PUSH20 0xFFFFFFFFFFFFFFFFFFFFFFFFFFFFFFFFFFFFFFFF MUL NOT AND SWAP1 DUP4 PUSH20 0xFFFFFFFFFFFFFFFFFFFFFFFFFFFFFFFFFFFFFFFF AND MUL OR SWAP1 SSTORE POP DUP1 PUSH1 0x2 PUSH1 0x0 PUSH2 0x100 EXP DUP2 SLOAD DUP2 PUSH20 0xFFFFFFFFFFFFFFFFFFFFFFFFFFFFFFFFFFFFFFFF MUL NOT AND SWAP1 DUP4 PUSH20 0xFFFFFFFFFFFFFFFFFFFFFFFFFFFFFFFFFFFFFFFF AND MUL OR SWAP1 SSTORE POP POP POP POP PUSH2 0x281 DUP1 PUSH2 0x12C PUSH1 0x0 CODECOPY PUSH1 0x0 RETURN INVALID PUSH1 0x80 PUSH1 0x40 MSTORE PUSH1 0x4 CALLDATASIZE LT PUSH2 0x29 JUMPI PUSH1 0x0 CALLDATALOAD PUSH1 0xE0 SHR DUP1 PUSH4 0xB69EF8A8 EQ PUSH2 0x33 JUMPI DUP1 PUSH4 0xD0E30DB0 EQ PUSH2 0x5E JUMPI JUMPDEST PUSH2 0x31 PUSH2 0x68 JUMP JUMPDEST STOP JUMPDEST CALLVALUE DUP1 ISZERO PUSH2 0x3F JUMPI PUSH1 0x0 DUP1 REVERT JUMPDEST POP PUSH2 0x48 PUSH2 0x244 JUMP JUMPDEST PUSH1 0x40 MLOAD DUP1 DUP3 DUP2 MSTORE PUSH1 0x20 ADD SWAP2 POP POP PUSH1 0x40 MLOAD DUP1 SWAP2 SUB SWAP1 RETURN JUMPDEST PUSH2 0x66 PUSH2 0x68 JUMP JUMPDEST STOP JUMPDEST PUSH1 0x0 PUSH1 0x64 CALLVALUE DUP2 PUSH2 0x74 JUMPI INVALID JUMPDEST DIV SWAP1 POP PUSH1 0x0 DUP1 PUSH1 0x3C DUP4 MUL SWAP1 POP DUP1 DUP3 ADD SWAP2 POP PUSH1 0x0 DUP1 SWAP1 SLOAD SWAP1 PUSH2 0x100 EXP SWAP1 DIV PUSH20 0xFFFFFFFFFFFFFFFFFFFFFFFFFFFFFFFFFFFFFFFF AND PUSH20 0xFFFFFFFFFFFFFFFFFFFFFFFFFFFFFFFFFFFFFFFF AND PUSH2 0x8FC DUP3 SWAP1 DUP2 ISZERO MUL SWAP1 PUSH1 0x40 MLOAD PUSH1 0x0 PUSH1 0x40 MLOAD DUP1 DUP4 SUB DUP2 DUP6 DUP9 DUP9 CALL SWAP4 POP POP POP POP ISZERO DUP1 ISZERO PUSH2 0xEC JUMPI RETURNDATASIZE PUSH1 0x0 DUP1 RETURNDATACOPY RETURNDATASIZE PUSH1 0x0 REVERT JUMPDEST POP PUSH1 0x19 DUP4 MUL SWAP1 POP DUP1 DUP3 ADD SWAP2 POP PUSH1 0x1 PUSH1 0x0 SWAP1 SLOAD SWAP1 PUSH2 0x100 EXP SWAP1 DIV PUSH20 0xFFFFFFFFFFFFFFFFFFFFFFFFFFFFFFFFFFFFFFFF AND PUSH20 0xFFFFFFFFFFFFFFFFFFFFFFFFFFFFFFFFFFFFFFFF AND PUSH2 0x8FC DUP3 SWAP1 DUP2 ISZERO MUL SWAP1 PUSH1 0x40 MLOAD PUSH1 0x0 PUSH1 0x40 MLOAD DUP1 DUP4 SUB DUP2 DUP6 DUP9 DUP9 CALL SWAP4 POP POP POP POP ISZERO DUP1 ISZERO PUSH2 0x160 JUMPI RETURNDATASIZE PUSH1 0x0 DUP1 RETURNDATACOPY RETURNDATASIZE PUSH1 0x0 REVERT JUMPDEST POP PUSH1 0xF DUP4 MUL SWAP1 POP DUP1 DUP3 ADD SWAP2 POP PUSH1 0x2 PUSH1 0x0 SWAP1 SLOAD SWAP1 PUSH2 0x100 EXP SWAP1 DIV PUSH20 0xFFFFFFFFFFFFFFFFFFFFFFFFFFFFFFFFFFFFFFFF AND PUSH20 0xFFFFFFFFFFFFFFFFFFFFFFFFFFFFFFFFFFFFFFFF AND PUSH2 0x8FC DUP3 SWAP1 DUP2 ISZERO MUL SWAP1 PUSH1 0x40 MLOAD PUSH1 0x0 PUSH1 0x40 MLOAD DUP1 DUP4 SUB DUP2 DUP6 DUP9 DUP9 CALL SWAP4 POP POP POP POP ISZERO DUP1 ISZERO PUSH2 0x1D4 JUMPI RETURNDATASIZE PUSH1 0x0 DUP1 RETURNDATACOPY RETURNDATASIZE PUSH1 0x0 REVERT JUMPDEST POP PUSH1 0x0 DUP1 SWAP1 SLOAD SWAP1 PUSH2 0x100 EXP SWAP1 DIV PUSH20 0xFFFFFFFFFFFFFFFFFFFFFFFFFFFFFFFFFFFFFFFF AND PUSH20 0xFFFFFFFFFFFFFFFFFFFFFFFFFFFFFFFFFFFFFFFF AND PUSH2 0x8FC DUP4 CALLVALUE SUB SWAP1 DUP2 ISZERO MUL SWAP1 PUSH1 0x40 MLOAD PUSH1 0x0 PUSH1 0x40 MLOAD DUP1 DUP4 SUB DUP2 DUP6 DUP9 DUP9 CALL SWAP4 POP POP POP POP ISZERO DUP1 ISZERO PUSH2 0x23E JUMPI RETURNDATASIZE PUSH1 0x0 DUP1 RETURNDATACOPY RETURNDATASIZE PUSH1 0x0 REVERT JUMPDEST POP POP POP POP JUMP JUMPDEST PUSH1 0x0 SELFBALANCE SWAP1 POP SWAP1 JUMP INVALID LOG2 PUSH6 0x627A7A723158 KECCAK256 0xD2 PUSH22 0xD93396A04C0922A955C8489538D08111769BB4808AF8 SWAP14 0xBF 0xA5 PUSH11 0xCDB6D70D64736F6C634300 SDIV GT STOP ORIGIN "
				},
				"gasEstimates": {
					"creation": {
						"codeDepositCost": "128200",
						"executionCost": "infinite",
						"totalCost": "infinite"
					},
					"external": {
						"": "infinite",
						"balance()": "193",
						"deposit()": "infinite"
					}
				},
				"methodIdentifiers": {
					"balance()": "b69ef8a8",
					"deposit()": "d0e30db0"
				}
			},
			"storageLayout": {
				"storage": [
					{
						"astId": 3,
						"contract": "contracts/TieredProfitSplitter.sol:TieredProfitSplitter",
						"label": "employee_one",
						"offset": 0,
						"slot": "0",
						"type": "t_address_payable"
					},
					{
						"astId": 5,
						"contract": "contracts/TieredProfitSplitter.sol:TieredProfitSplitter",
						"label": "employee_two",
						"offset": 0,
						"slot": "1",
						"type": "t_address_payable"
					},
					{
						"astId": 7,
						"contract": "contracts/TieredProfitSplitter.sol:TieredProfitSplitter",
						"label": "employee_three",
						"offset": 0,
						"slot": "2",
						"type": "t_address_payable"
					}
				],
				"types": {
					"t_address_payable": {
						"encoding": "inplace",
						"label": "address payable",
						"numberOfBytes": "20"
					}
				}
			},
			"userdoc": {
				"methods": {}
			}
		}
	}
}