{
	"contracts/DeferredEquityPlan.sol": {
		"DeferredEquityPlan": {
			"abi": [
				{
					"inputs": [
						{
							"internalType": "address payable",
							"name": "_employee",
							"type": "address"
						}
					],
					"payable": false,
					"stateMutability": "nonpayable",
					"type": "constructor"
				},
				{
					"payable": true,
					"stateMutability": "payable",
					"type": "fallback"
				},
				{
					"constant": false,
					"inputs": [],
					"name": "deactivate",
					"outputs": [],
					"payable": false,
					"stateMutability": "nonpayable",
					"type": "function"
				},
				{
					"constant": false,
					"inputs": [],
					"name": "distribute",
					"outputs": [],
					"payable": false,
					"stateMutability": "nonpayable",
					"type": "function"
				},
				{
					"constant": true,
					"inputs": [],
					"name": "distributed_shares",
					"outputs": [
						{
							"internalType": "uint256",
							"name": "",
							"type": "uint256"
						}
					],
					"payable": false,
					"stateMutability": "view",
					"type": "function"
				}
			],
			"devdoc": {
				"methods": {}
			},
			"evm": {
				"assembly": "    /* \"contracts/DeferredEquityPlan.sol\":50:2384  contract DeferredEquityPlan {\r... */\n  mstore(0x40, 0x80)\n    /* \"contracts/DeferredEquityPlan.sol\":169:173  true */\n  0x01\n    /* \"contracts/DeferredEquityPlan.sol\":155:173  bool active = true */\n  dup1\n  exp(0x0100, 0x14)\n  dup2\n  sload\n  dup2\n  0xff\n  mul\n  not\n  and\n  swap1\n  dup4\n  iszero\n  iszero\n  mul\n  or\n  swap1\n  sstore\n  pop\n    /* \"contracts/DeferredEquityPlan.sol\":342:346  1000 */\n  0x03e8\n    /* \"contracts/DeferredEquityPlan.sol\":322:346  uint total_shares = 1000 */\n  0x02\n  sstore\n    /* \"contracts/DeferredEquityPlan.sol\":380:383  250 */\n  0xfa\n    /* \"contracts/DeferredEquityPlan.sol\":353:383  uint annual_distribution = 250 */\n  0x03\n  sstore\n    /* \"contracts/DeferredEquityPlan.sol\":408:411  now */\n  timestamp\n    /* \"contracts/DeferredEquityPlan.sol\":390:411  uint start_time = now */\n  0x04\n  sstore\n    /* \"contracts/DeferredEquityPlan.sol\":584:587  now */\n  timestamp\n    /* \"contracts/DeferredEquityPlan.sol\":565:587  uint unlock_time = now */\n  0x05\n  sstore\n    /* \"contracts/DeferredEquityPlan.sol\":627:628  0 */\n  0x00\n    /* \"contracts/DeferredEquityPlan.sol\":594:628  uint public distributed_shares = 0 */\n  0x06\n  sstore\n    /* \"contracts/DeferredEquityPlan.sol\":652:776  constructor(address payable _employee) public {\r... */\n  callvalue\n    /* \"--CODEGEN--\":8:17   */\n  dup1\n    /* \"--CODEGEN--\":5:7   */\n  iszero\n  tag_1\n  jumpi\n    /* \"--CODEGEN--\":30:31   */\n  0x00\n    /* \"--CODEGEN--\":27:28   */\n  dup1\n    /* \"--CODEGEN--\":20:32   */\n  revert\n    /* \"--CODEGEN--\":5:7   */\ntag_1:\n    /* \"contracts/DeferredEquityPlan.sol\":652:776  constructor(address payable _employee) public {\r... */\n  pop\n  mload(0x40)\n  sub(codesize, bytecodeSize)\n  dup1\n  bytecodeSize\n  dup4\n  codecopy\n  dup2\n  dup2\n  add\n  0x40\n  mstore\n    /* \"--CODEGEN--\":13:15   */\n  0x20\n    /* \"--CODEGEN--\":8:11   */\n  dup2\n    /* \"--CODEGEN--\":5:16   */\n  lt\n    /* \"--CODEGEN--\":2:4   */\n  iszero\n  tag_2\n  jumpi\n    /* \"--CODEGEN--\":29:30   */\n  0x00\n    /* \"--CODEGEN--\":26:27   */\n  dup1\n    /* \"--CODEGEN--\":19:31   */\n  revert\n    /* \"--CODEGEN--\":2:4   */\ntag_2:\n    /* \"contracts/DeferredEquityPlan.sol\":652:776  constructor(address payable _employee) public {\r... */\n  dup2\n  add\n  swap1\n  dup1\n  dup1\n  mload\n  swap1\n  0x20\n  add\n  swap1\n  swap3\n  swap2\n  swap1\n  pop\n  pop\n  pop\n    /* \"contracts/DeferredEquityPlan.sol\":727:737  msg.sender */\n  caller\n    /* \"contracts/DeferredEquityPlan.sol\":709:724  human_resources */\n  0x00\n  dup1\n    /* \"contracts/DeferredEquityPlan.sol\":709:737  human_resources = msg.sender */\n  0x0100\n  exp\n  dup2\n  sload\n  dup2\n  0xffffffffffffffffffffffffffffffffffffffff\n  mul\n  not\n  and\n  swap1\n  dup4\n  0xffffffffffffffffffffffffffffffffffffffff\n  and\n  mul\n  or\n  swap1\n  sstore\n  pop\n    /* \"contracts/DeferredEquityPlan.sol\":759:768  _employee */\n  dup1\n    /* \"contracts/DeferredEquityPlan.sol\":748:756  employee */\n  0x01\n  0x00\n    /* \"contracts/DeferredEquityPlan.sol\":748:768  employee = _employee */\n  0x0100\n  exp\n  dup2\n  sload\n  dup2\n  0xffffffffffffffffffffffffffffffffffffffff\n  mul\n  not\n  and\n  swap1\n  dup4\n  0xffffffffffffffffffffffffffffffffffffffff\n  and\n  mul\n  or\n  swap1\n  sstore\n  pop\n    /* \"contracts/DeferredEquityPlan.sol\":652:776  constructor(address payable _employee) public {\r... */\n  pop\n    /* \"contracts/DeferredEquityPlan.sol\":50:2384  contract DeferredEquityPlan {\r... */\n  dataSize(sub_0)\n  dup1\n  dataOffset(sub_0)\n  0x00\n  codecopy\n  0x00\n  return\nstop\n\nsub_0: assembly {\n        /* \"contracts/DeferredEquityPlan.sol\":50:2384  contract DeferredEquityPlan {\r... */\n      mstore(0x40, 0x80)\n      jumpi(tag_1, lt(calldatasize, 0x04))\n      shr(0xe0, calldataload(0x00))\n      dup1\n      0x51b42b00\n      eq\n      tag_2\n      jumpi\n      dup1\n      0x9bc717f1\n      eq\n      tag_3\n      jumpi\n      dup1\n      0xe4fc6b6d\n      eq\n      tag_4\n      jumpi\n    tag_1:\n        /* \"contracts/DeferredEquityPlan.sol\":2328:2373  revert(\"Do not send Ether to this contract!\") */\n      mload(0x40)\n      0x08c379a000000000000000000000000000000000000000000000000000000000\n      dup2\n      mstore\n      0x04\n      add\n      dup1\n      dup1\n      0x20\n      add\n      dup3\n      dup2\n      sub\n      dup3\n      mstore\n      0x23\n      dup2\n      mstore\n      0x20\n      add\n      dup1\n      data_68f702e6388d2518088e18365eaa062fd5393371528035cdd118dd91cf2fd66b\n      0x23\n      swap2\n      codecopy\n      0x40\n      add\n      swap2\n      pop\n      pop\n      mload(0x40)\n      dup1\n      swap2\n      sub\n      swap1\n      revert\n        /* \"contracts/DeferredEquityPlan.sol\":1979:2171  function deactivate() public {\r... */\n    tag_2:\n      callvalue\n        /* \"--CODEGEN--\":8:17   */\n      dup1\n        /* \"--CODEGEN--\":5:7   */\n      iszero\n      tag_7\n      jumpi\n        /* \"--CODEGEN--\":30:31   */\n      0x00\n        /* \"--CODEGEN--\":27:28   */\n      dup1\n        /* \"--CODEGEN--\":20:32   */\n      revert\n        /* \"--CODEGEN--\":5:7   */\n    tag_7:\n        /* \"contracts/DeferredEquityPlan.sol\":1979:2171  function deactivate() public {\r... */\n      pop\n      tag_8\n      tag_9\n      jump\t// in\n    tag_8:\n      stop\n        /* \"contracts/DeferredEquityPlan.sol\":594:628  uint public distributed_shares = 0 */\n    tag_3:\n      callvalue\n        /* \"--CODEGEN--\":8:17   */\n      dup1\n        /* \"--CODEGEN--\":5:7   */\n      iszero\n      tag_10\n      jumpi\n        /* \"--CODEGEN--\":30:31   */\n      0x00\n        /* \"--CODEGEN--\":27:28   */\n      dup1\n        /* \"--CODEGEN--\":20:32   */\n      revert\n        /* \"--CODEGEN--\":5:7   */\n    tag_10:\n        /* \"contracts/DeferredEquityPlan.sol\":594:628  uint public distributed_shares = 0 */\n      pop\n      tag_11\n      tag_12\n      jump\t// in\n    tag_11:\n      mload(0x40)\n      dup1\n      dup3\n      dup2\n      mstore\n      0x20\n      add\n      swap2\n      pop\n      pop\n      mload(0x40)\n      dup1\n      swap2\n      sub\n      swap1\n      return\n        /* \"contracts/DeferredEquityPlan.sol\":784:1893  function distribute() public {\r... */\n    tag_4:\n      callvalue\n        /* \"--CODEGEN--\":8:17   */\n      dup1\n        /* \"--CODEGEN--\":5:7   */\n      iszero\n      tag_13\n      jumpi\n        /* \"--CODEGEN--\":30:31   */\n      0x00\n        /* \"--CODEGEN--\":27:28   */\n      dup1\n        /* \"--CODEGEN--\":20:32   */\n      revert\n        /* \"--CODEGEN--\":5:7   */\n    tag_13:\n        /* \"contracts/DeferredEquityPlan.sol\":784:1893  function distribute() public {\r... */\n      pop\n      tag_14\n      tag_15\n      jump\t// in\n    tag_14:\n      stop\n        /* \"contracts/DeferredEquityPlan.sol\":1979:2171  function deactivate() public {\r... */\n    tag_9:\n        /* \"contracts/DeferredEquityPlan.sol\":2041:2056  human_resources */\n      0x00\n      dup1\n      swap1\n      sload\n      swap1\n      0x0100\n      exp\n      swap1\n      div\n      0xffffffffffffffffffffffffffffffffffffffff\n      and\n        /* \"contracts/DeferredEquityPlan.sol\":2027:2056  msg.sender == human_resources */\n      0xffffffffffffffffffffffffffffffffffffffff\n      and\n        /* \"contracts/DeferredEquityPlan.sol\":2027:2037  msg.sender */\n      caller\n        /* \"contracts/DeferredEquityPlan.sol\":2027:2056  msg.sender == human_resources */\n      0xffffffffffffffffffffffffffffffffffffffff\n      and\n      eq\n        /* \"contracts/DeferredEquityPlan.sol\":2027:2082  msg.sender == human_resources || msg.sender == employee */\n      dup1\n      tag_17\n      jumpi\n      pop\n        /* \"contracts/DeferredEquityPlan.sol\":2074:2082  employee */\n      0x01\n      0x00\n      swap1\n      sload\n      swap1\n      0x0100\n      exp\n      swap1\n      div\n      0xffffffffffffffffffffffffffffffffffffffff\n      and\n        /* \"contracts/DeferredEquityPlan.sol\":2060:2082  msg.sender == employee */\n      0xffffffffffffffffffffffffffffffffffffffff\n      and\n        /* \"contracts/DeferredEquityPlan.sol\":2060:2070  msg.sender */\n      caller\n        /* \"contracts/DeferredEquityPlan.sol\":2060:2082  msg.sender == employee */\n      0xffffffffffffffffffffffffffffffffffffffff\n      and\n      eq\n        /* \"contracts/DeferredEquityPlan.sol\":2027:2082  msg.sender == human_resources || msg.sender == employee */\n    tag_17:\n        /* \"contracts/DeferredEquityPlan.sol\":2019:2138  require(msg.sender == human_resources || msg.sender == employee, \"You are not authorized to deactivate this contract.\") */\n      tag_18\n      jumpi\n      mload(0x40)\n      0x08c379a000000000000000000000000000000000000000000000000000000000\n      dup2\n      mstore\n      0x04\n      add\n      dup1\n      dup1\n      0x20\n      add\n      dup3\n      dup2\n      sub\n      dup3\n      mstore\n      0x33\n      dup2\n      mstore\n      0x20\n      add\n      dup1\n      data_44fe763b3ac121d9373b3116501483b74bc02ac33c1be16c96619643c2e17c04\n      0x33\n      swap2\n      codecopy\n      0x40\n      add\n      swap2\n      pop\n      pop\n      mload(0x40)\n      dup1\n      swap2\n      sub\n      swap1\n      revert\n    tag_18:\n        /* \"contracts/DeferredEquityPlan.sol\":2158:2163  false */\n      0x00\n        /* \"contracts/DeferredEquityPlan.sol\":2149:2155  active */\n      0x01\n      0x14\n        /* \"contracts/DeferredEquityPlan.sol\":2149:2163  active = false */\n      0x0100\n      exp\n      dup2\n      sload\n      dup2\n      0xff\n      mul\n      not\n      and\n      swap1\n      dup4\n      iszero\n      iszero\n      mul\n      or\n      swap1\n      sstore\n      pop\n        /* \"contracts/DeferredEquityPlan.sol\":1979:2171  function deactivate() public {\r... */\n      jump\t// out\n        /* \"contracts/DeferredEquityPlan.sol\":594:628  uint public distributed_shares = 0 */\n    tag_12:\n      sload(0x06)\n      dup2\n      jump\t// out\n        /* \"contracts/DeferredEquityPlan.sol\":784:1893  function distribute() public {\r... */\n    tag_15:\n        /* \"contracts/DeferredEquityPlan.sol\":846:861  human_resources */\n      0x00\n      dup1\n      swap1\n      sload\n      swap1\n      0x0100\n      exp\n      swap1\n      div\n      0xffffffffffffffffffffffffffffffffffffffff\n      and\n        /* \"contracts/DeferredEquityPlan.sol\":832:861  msg.sender == human_resources */\n      0xffffffffffffffffffffffffffffffffffffffff\n      and\n        /* \"contracts/DeferredEquityPlan.sol\":832:842  msg.sender */\n      caller\n        /* \"contracts/DeferredEquityPlan.sol\":832:861  msg.sender == human_resources */\n      0xffffffffffffffffffffffffffffffffffffffff\n      and\n      eq\n        /* \"contracts/DeferredEquityPlan.sol\":832:887  msg.sender == human_resources || msg.sender == employee */\n      dup1\n      tag_20\n      jumpi\n      pop\n        /* \"contracts/DeferredEquityPlan.sol\":879:887  employee */\n      0x01\n      0x00\n      swap1\n      sload\n      swap1\n      0x0100\n      exp\n      swap1\n      div\n      0xffffffffffffffffffffffffffffffffffffffff\n      and\n        /* \"contracts/DeferredEquityPlan.sol\":865:887  msg.sender == employee */\n      0xffffffffffffffffffffffffffffffffffffffff\n      and\n        /* \"contracts/DeferredEquityPlan.sol\":865:875  msg.sender */\n      caller\n        /* \"contracts/DeferredEquityPlan.sol\":865:887  msg.sender == employee */\n      0xffffffffffffffffffffffffffffffffffffffff\n      and\n      eq\n        /* \"contracts/DeferredEquityPlan.sol\":832:887  msg.sender == human_resources || msg.sender == employee */\n    tag_20:\n        /* \"contracts/DeferredEquityPlan.sol\":824:940  require(msg.sender == human_resources || msg.sender == employee, \"You are not authorized to execute this contract.\") */\n      tag_21\n      jumpi\n      mload(0x40)\n      0x08c379a000000000000000000000000000000000000000000000000000000000\n      dup2\n      mstore\n      0x04\n      add\n      dup1\n      dup1\n      0x20\n      add\n      dup3\n      dup2\n      sub\n      dup3\n      mstore\n      0x30\n      dup2\n      mstore\n      0x20\n      add\n      dup1\n      data_ba2ee6ca50d86582f4490a3252728de9a213982133b99a8712775a266ab39acb\n      0x30\n      swap2\n      codecopy\n      0x40\n      add\n      swap2\n      pop\n      pop\n      mload(0x40)\n      dup1\n      swap2\n      sub\n      swap1\n      revert\n    tag_21:\n        /* \"contracts/DeferredEquityPlan.sol\":969:973  true */\n      0x01\n        /* \"contracts/DeferredEquityPlan.sol\":959:973  active == true */\n      iszero\n      iszero\n        /* \"contracts/DeferredEquityPlan.sol\":959:965  active */\n      0x01\n      0x14\n      swap1\n      sload\n      swap1\n      0x0100\n      exp\n      swap1\n      div\n      0xff\n      and\n        /* \"contracts/DeferredEquityPlan.sol\":959:973  active == true */\n      iszero\n      iszero\n      eq\n        /* \"contracts/DeferredEquityPlan.sol\":951:998  require(active == true, \"Contract not active.\") */\n      tag_22\n      jumpi\n      mload(0x40)\n      0x08c379a000000000000000000000000000000000000000000000000000000000\n      dup2\n      mstore\n      0x04\n      add\n      dup1\n      dup1\n      0x20\n      add\n      dup3\n      dup2\n      sub\n      dup3\n      mstore\n      0x14\n      dup2\n      mstore\n      0x20\n      add\n      dup1\n      0x436f6e7472616374206e6f74206163746976652e000000000000000000000000\n      dup2\n      mstore\n      pop\n      0x20\n      add\n      swap2\n      pop\n      pop\n      mload(0x40)\n      dup1\n      swap2\n      sub\n      swap1\n      revert\n    tag_22:\n        /* \"contracts/DeferredEquityPlan.sol\":1252:1255  now */\n      timestamp\n        /* \"contracts/DeferredEquityPlan.sol\":1237:1248  unlock_time */\n      sload(0x05)\n        /* \"contracts/DeferredEquityPlan.sol\":1237:1255  unlock_time <= now */\n      gt\n      iszero\n        /* \"contracts/DeferredEquityPlan.sol\":1228:1267  require (unlock_time <= now ,\"ne ula\" ) */\n      tag_23\n      jumpi\n      mload(0x40)\n      0x08c379a000000000000000000000000000000000000000000000000000000000\n      dup2\n      mstore\n      0x04\n      add\n      dup1\n      dup1\n      0x20\n      add\n      dup3\n      dup2\n      sub\n      dup3\n      mstore\n      0x06\n      dup2\n      mstore\n      0x20\n      add\n      dup1\n      0x6e6520756c610000000000000000000000000000000000000000000000000000\n      dup2\n      mstore\n      pop\n      0x20\n      add\n      swap2\n      pop\n      pop\n      mload(0x40)\n      dup1\n      swap2\n      sub\n      swap1\n      revert\n    tag_23:\n        /* \"contracts/DeferredEquityPlan.sol\":1309:1321  total_shares */\n      sload(0x02)\n        /* \"contracts/DeferredEquityPlan.sol\":1287:1305  distributed_shares */\n      sload(0x06)\n        /* \"contracts/DeferredEquityPlan.sol\":1287:1321  distributed_shares <= total_shares */\n      gt\n      iszero\n        /* \"contracts/DeferredEquityPlan.sol\":1278:1337  require (distributed_shares <= total_shares, \"bu nedir lo\") */\n      tag_24\n      jumpi\n      mload(0x40)\n      0x08c379a000000000000000000000000000000000000000000000000000000000\n      dup2\n      mstore\n      0x04\n      add\n      dup1\n      dup1\n      0x20\n      add\n      dup3\n      dup2\n      sub\n      dup3\n      mstore\n      0x0b\n      dup2\n      mstore\n      0x20\n      add\n      dup1\n      0x6275206e65646972206c6f000000000000000000000000000000000000000000\n      dup2\n      mstore\n      pop\n      0x20\n      add\n      swap2\n      pop\n      pop\n      mload(0x40)\n      dup1\n      swap2\n      sub\n      swap1\n      revert\n    tag_24:\n        /* \"contracts/DeferredEquityPlan.sol\":1444:1447  365 */\n      0x016d\n        /* \"contracts/DeferredEquityPlan.sol\":1429:1440  unlock_time */\n      0x05\n      0x00\n        /* \"contracts/DeferredEquityPlan.sol\":1429:1447  unlock_time += 365 */\n      dup3\n      dup3\n      sload\n      add\n      swap3\n      pop\n      pop\n      dup2\n      swap1\n      sstore\n      pop\n        /* \"contracts/DeferredEquityPlan.sol\":1828:1832  1000 */\n      0x03e8\n        /* \"contracts/DeferredEquityPlan.sol\":1807:1825  distributed_shares */\n      sload(0x06)\n        /* \"contracts/DeferredEquityPlan.sol\":1807:1832  distributed_shares > 1000 */\n      gt\n        /* \"contracts/DeferredEquityPlan.sol\":1803:1886  if (distributed_shares > 1000) {\r... */\n      iszero\n      tag_25\n      jumpi\n        /* \"contracts/DeferredEquityPlan.sol\":1870:1874  1000 */\n      0x03e8\n        /* \"contracts/DeferredEquityPlan.sol\":1849:1867  distributed_shares */\n      0x06\n        /* \"contracts/DeferredEquityPlan.sol\":1849:1874  distributed_shares = 1000 */\n      dup2\n      swap1\n      sstore\n      pop\n        /* \"contracts/DeferredEquityPlan.sol\":1803:1886  if (distributed_shares > 1000) {\r... */\n    tag_25:\n        /* \"contracts/DeferredEquityPlan.sol\":784:1893  function distribute() public {\r... */\n      jump\t// out\n    stop\n    data_44fe763b3ac121d9373b3116501483b74bc02ac33c1be16c96619643c2e17c04 596f7520617265206e6f7420617574686f72697a656420746f2064656163746976617465207468697320636f6e74726163742e\n    data_68f702e6388d2518088e18365eaa062fd5393371528035cdd118dd91cf2fd66b 446f206e6f742073656e6420457468657220746f207468697320636f6e747261637421\n    data_ba2ee6ca50d86582f4490a3252728de9a213982133b99a8712775a266ab39acb 596f7520617265206e6f7420617574686f72697a656420746f2065786563757465207468697320636f6e74726163742e\n\n    auxdata: 0xa265627a7a723158203241894aea96c15ab2002bc9e2ef61c9667836a5c8b205e282da7ea26b82b11164736f6c63430005110032\n}\n",
				"bytecode": {
					"linkReferences": {},
					"object": "608060405260018060146101000a81548160ff0219169083151502179055506103e860025560fa6003554260045542600555600060065534801561004257600080fd5b506040516106623803806106628339818101604052602081101561006557600080fd5b8101908080519060200190929190505050336000806101000a81548173ffffffffffffffffffffffffffffffffffffffff021916908373ffffffffffffffffffffffffffffffffffffffff16021790555080600160006101000a81548173ffffffffffffffffffffffffffffffffffffffff021916908373ffffffffffffffffffffffffffffffffffffffff1602179055505061055b806101076000396000f3fe6080604052600436106100345760003560e01c806351b42b00146100855780639bc717f11461009c578063e4fc6b6d146100c7575b6040517f08c379a00000000000000000000000000000000000000000000000000000000081526004018080602001828103825260238152602001806104d46023913960400191505060405180910390fd5b34801561009157600080fd5b5061009a6100de565b005b3480156100a857600080fd5b506100b16101f8565b6040518082815260200191505060405180910390f35b3480156100d357600080fd5b506100dc6101fe565b005b6000809054906101000a900473ffffffffffffffffffffffffffffffffffffffff1673ffffffffffffffffffffffffffffffffffffffff163373ffffffffffffffffffffffffffffffffffffffff1614806101865750600160009054906101000a900473ffffffffffffffffffffffffffffffffffffffff1673ffffffffffffffffffffffffffffffffffffffff163373ffffffffffffffffffffffffffffffffffffffff16145b6101db576040517f08c379a00000000000000000000000000000000000000000000000000000000081526004018080602001828103825260338152602001806104a16033913960400191505060405180910390fd5b6000600160146101000a81548160ff021916908315150217905550565b60065481565b6000809054906101000a900473ffffffffffffffffffffffffffffffffffffffff1673ffffffffffffffffffffffffffffffffffffffff163373ffffffffffffffffffffffffffffffffffffffff1614806102a65750600160009054906101000a900473ffffffffffffffffffffffffffffffffffffffff1673ffffffffffffffffffffffffffffffffffffffff163373ffffffffffffffffffffffffffffffffffffffff16145b6102fb576040517f08c379a00000000000000000000000000000000000000000000000000000000081526004018080602001828103825260308152602001806104f76030913960400191505060405180910390fd5b60011515600160149054906101000a900460ff16151514610384576040517f08c379a00000000000000000000000000000000000000000000000000000000081526004018080602001828103825260148152602001807f436f6e7472616374206e6f74206163746976652e00000000000000000000000081525060200191505060405180910390fd5b4260055411156103fc576040517f08c379a00000000000000000000000000000000000000000000000000000000081526004018080602001828103825260068152602001807f6e6520756c61000000000000000000000000000000000000000000000000000081525060200191505060405180910390fd5b6002546006541115610476576040517f08c379a000000000000000000000000000000000000000000000000000000000815260040180806020018281038252600b8152602001807f6275206e65646972206c6f00000000000000000000000000000000000000000081525060200191505060405180910390fd5b61016d6005600082825401925050819055506103e8600654111561049e576103e86006819055505b56fe596f7520617265206e6f7420617574686f72697a656420746f2064656163746976617465207468697320636f6e74726163742e446f206e6f742073656e6420457468657220746f207468697320636f6e747261637421596f7520617265206e6f7420617574686f72697a656420746f2065786563757465207468697320636f6e74726163742ea265627a7a723158203241894aea96c15ab2002bc9e2ef61c9667836a5c8b205e282da7ea26b82b11164736f6c63430005110032",
					"opcodes": "PUSH1 0x80 PUSH1 0x40 MSTORE PUSH1 0x1 DUP1 PUSH1 0x14 PUSH2 0x100 EXP DUP2 SLOAD DUP2 PUSH1 0xFF MUL NOT AND SWAP1 DUP4 ISZERO ISZERO MUL OR SWAP1 SSTORE POP PUSH2 0x3E8 PUSH1 0x2 SSTORE PUSH1 0xFA PUSH1 0x3 SSTORE TIMESTAMP PUSH1 0x4 SSTORE TIMESTAMP PUSH1 0x5 SSTORE PUSH1 0x0 PUSH1 0x6 SSTORE CALLVALUE DUP1 ISZERO PUSH2 0x42 JUMPI PUSH1 0x0 DUP1 REVERT JUMPDEST POP PUSH1 0x40 MLOAD PUSH2 0x662 CODESIZE SUB DUP1 PUSH2 0x662 DUP4 CODECOPY DUP2 DUP2 ADD PUSH1 0x40 MSTORE PUSH1 0x20 DUP2 LT ISZERO PUSH2 0x65 JUMPI PUSH1 0x0 DUP1 REVERT JUMPDEST DUP2 ADD SWAP1 DUP1 DUP1 MLOAD SWAP1 PUSH1 0x20 ADD SWAP1 SWAP3 SWAP2 SWAP1 POP POP POP CALLER PUSH1 0x0 DUP1 PUSH2 0x100 EXP DUP2 SLOAD DUP2 PUSH20 0xFFFFFFFFFFFFFFFFFFFFFFFFFFFFFFFFFFFFFFFF MUL NOT AND SWAP1 DUP4 PUSH20 0xFFFFFFFFFFFFFFFFFFFFFFFFFFFFFFFFFFFFFFFF AND MUL OR SWAP1 SSTORE POP DUP1 PUSH1 0x1 PUSH1 0x0 PUSH2 0x100 EXP DUP2 SLOAD DUP2 PUSH20 0xFFFFFFFFFFFFFFFFFFFFFFFFFFFFFFFFFFFFFFFF MUL NOT AND SWAP1 DUP4 PUSH20 0xFFFFFFFFFFFFFFFFFFFFFFFFFFFFFFFFFFFFFFFF AND MUL OR SWAP1 SSTORE POP POP PUSH2 0x55B DUP1 PUSH2 0x107 PUSH1 0x0 CODECOPY PUSH1 0x0 RETURN INVALID PUSH1 0x80 PUSH1 0x40 MSTORE PUSH1 0x4 CALLDATASIZE LT PUSH2 0x34 JUMPI PUSH1 0x0 CALLDATALOAD PUSH1 0xE0 SHR DUP1 PUSH4 0x51B42B00 EQ PUSH2 0x85 JUMPI DUP1 PUSH4 0x9BC717F1 EQ PUSH2 0x9C JUMPI DUP1 PUSH4 0xE4FC6B6D EQ PUSH2 0xC7 JUMPI JUMPDEST PUSH1 0x40 MLOAD PUSH32 0x8C379A000000000000000000000000000000000000000000000000000000000 DUP2 MSTORE PUSH1 0x4 ADD DUP1 DUP1 PUSH1 0x20 ADD DUP3 DUP2 SUB DUP3 MSTORE PUSH1 0x23 DUP2 MSTORE PUSH1 0x20 ADD DUP1 PUSH2 0x4D4 PUSH1 0x23 SWAP2 CODECOPY PUSH1 0x40 ADD SWAP2 POP POP PUSH1 0x40 MLOAD DUP1 SWAP2 SUB SWAP1 REVERT JUMPDEST CALLVALUE DUP1 ISZERO PUSH2 0x91 JUMPI PUSH1 0x0 DUP1 REVERT JUMPDEST POP PUSH2 0x9A PUSH2 0xDE JUMP JUMPDEST STOP JUMPDEST CALLVALUE DUP1 ISZERO PUSH2 0xA8 JUMPI PUSH1 0x0 DUP1 REVERT JUMPDEST POP PUSH2 0xB1 PUSH2 0x1F8 JUMP JUMPDEST PUSH1 0x40 MLOAD DUP1 DUP3 DUP2 MSTORE PUSH1 0x20 ADD SWAP2 POP POP PUSH1 0x40 MLOAD DUP1 SWAP2 SUB SWAP1 RETURN JUMPDEST CALLVALUE DUP1 ISZERO PUSH2 0xD3 JUMPI PUSH1 0x0 DUP1 REVERT JUMPDEST POP PUSH2 0xDC PUSH2 0x1FE JUMP JUMPDEST STOP JUMPDEST PUSH1 0x0 DUP1 SWAP1 SLOAD SWAP1 PUSH2 0x100 EXP SWAP1 DIV PUSH20 0xFFFFFFFFFFFFFFFFFFFFFFFFFFFFFFFFFFFFFFFF AND PUSH20 0xFFFFFFFFFFFFFFFFFFFFFFFFFFFFFFFFFFFFFFFF AND CALLER PUSH20 0xFFFFFFFFFFFFFFFFFFFFFFFFFFFFFFFFFFFFFFFF AND EQ DUP1 PUSH2 0x186 JUMPI POP PUSH1 0x1 PUSH1 0x0 SWAP1 SLOAD SWAP1 PUSH2 0x100 EXP SWAP1 DIV PUSH20 0xFFFFFFFFFFFFFFFFFFFFFFFFFFFFFFFFFFFFFFFF AND PUSH20 0xFFFFFFFFFFFFFFFFFFFFFFFFFFFFFFFFFFFFFFFF AND CALLER PUSH20 0xFFFFFFFFFFFFFFFFFFFFFFFFFFFFFFFFFFFFFFFF AND EQ JUMPDEST PUSH2 0x1DB JUMPI PUSH1 0x40 MLOAD PUSH32 0x8C379A000000000000000000000000000000000000000000000000000000000 DUP2 MSTORE PUSH1 0x4 ADD DUP1 DUP1 PUSH1 0x20 ADD DUP3 DUP2 SUB DUP3 MSTORE PUSH1 0x33 DUP2 MSTORE PUSH1 0x20 ADD DUP1 PUSH2 0x4A1 PUSH1 0x33 SWAP2 CODECOPY PUSH1 0x40 ADD SWAP2 POP POP PUSH1 0x40 MLOAD DUP1 SWAP2 SUB SWAP1 REVERT JUMPDEST PUSH1 0x0 PUSH1 0x1 PUSH1 0x14 PUSH2 0x100 EXP DUP2 SLOAD DUP2 PUSH1 0xFF MUL NOT AND SWAP1 DUP4 ISZERO ISZERO MUL OR SWAP1 SSTORE POP JUMP JUMPDEST PUSH1 0x6 SLOAD DUP2 JUMP JUMPDEST PUSH1 0x0 DUP1 SWAP1 SLOAD SWAP1 PUSH2 0x100 EXP SWAP1 DIV PUSH20 0xFFFFFFFFFFFFFFFFFFFFFFFFFFFFFFFFFFFFFFFF AND PUSH20 0xFFFFFFFFFFFFFFFFFFFFFFFFFFFFFFFFFFFFFFFF AND CALLER PUSH20 0xFFFFFFFFFFFFFFFFFFFFFFFFFFFFFFFFFFFFFFFF AND EQ DUP1 PUSH2 0x2A6 JUMPI POP PUSH1 0x1 PUSH1 0x0 SWAP1 SLOAD SWAP1 PUSH2 0x100 EXP SWAP1 DIV PUSH20 0xFFFFFFFFFFFFFFFFFFFFFFFFFFFFFFFFFFFFFFFF AND PUSH20 0xFFFFFFFFFFFFFFFFFFFFFFFFFFFFFFFFFFFFFFFF AND CALLER PUSH20 0xFFFFFFFFFFFFFFFFFFFFFFFFFFFFFFFFFFFFFFFF AND EQ JUMPDEST PUSH2 0x2FB JUMPI PUSH1 0x40 MLOAD PUSH32 0x8C379A000000000000000000000000000000000000000000000000000000000 DUP2 MSTORE PUSH1 0x4 ADD DUP1 DUP1 PUSH1 0x20 ADD DUP3 DUP2 SUB DUP3 MSTORE PUSH1 0x30 DUP2 MSTORE PUSH1 0x20 ADD DUP1 PUSH2 0x4F7 PUSH1 0x30 SWAP2 CODECOPY PUSH1 0x40 ADD SWAP2 POP POP PUSH1 0x40 MLOAD DUP1 SWAP2 SUB SWAP1 REVERT JUMPDEST PUSH1 0x1 ISZERO ISZERO PUSH1 0x1 PUSH1 0x14 SWAP1 SLOAD SWAP1 PUSH2 0x100 EXP SWAP1 DIV PUSH1 0xFF AND ISZERO ISZERO EQ PUSH2 0x384 JUMPI PUSH1 0x40 MLOAD PUSH32 0x8C379A000000000000000000000000000000000000000000000000000000000 DUP2 MSTORE PUSH1 0x4 ADD DUP1 DUP1 PUSH1 0x20 ADD DUP3 DUP2 SUB DUP3 MSTORE PUSH1 0x14 DUP2 MSTORE PUSH1 0x20 ADD DUP1 PUSH32 0x436F6E7472616374206E6F74206163746976652E000000000000000000000000 DUP2 MSTORE POP PUSH1 0x20 ADD SWAP2 POP POP PUSH1 0x40 MLOAD DUP1 SWAP2 SUB SWAP1 REVERT JUMPDEST TIMESTAMP PUSH1 0x5 SLOAD GT ISZERO PUSH2 0x3FC JUMPI PUSH1 0x40 MLOAD PUSH32 0x8C379A000000000000000000000000000000000000000000000000000000000 DUP2 MSTORE PUSH1 0x4 ADD DUP1 DUP1 PUSH1 0x20 ADD DUP3 DUP2 SUB DUP3 MSTORE PUSH1 0x6 DUP2 MSTORE PUSH1 0x20 ADD DUP1 PUSH32 0x6E6520756C610000000000000000000000000000000000000000000000000000 DUP2 MSTORE POP PUSH1 0x20 ADD SWAP2 POP POP PUSH1 0x40 MLOAD DUP1 SWAP2 SUB SWAP1 REVERT JUMPDEST PUSH1 0x2 SLOAD PUSH1 0x6 SLOAD GT ISZERO PUSH2 0x476 JUMPI PUSH1 0x40 MLOAD PUSH32 0x8C379A000000000000000000000000000000000000000000000000000000000 DUP2 MSTORE PUSH1 0x4 ADD DUP1 DUP1 PUSH1 0x20 ADD DUP3 DUP2 SUB DUP3 MSTORE PUSH1 0xB DUP2 MSTORE PUSH1 0x20 ADD DUP1 PUSH32 0x6275206E65646972206C6F000000000000000000000000000000000000000000 DUP2 MSTORE POP PUSH1 0x20 ADD SWAP2 POP POP PUSH1 0x40 MLOAD DUP1 SWAP2 SUB SWAP1 REVERT JUMPDEST PUSH2 0x16D PUSH1 0x5 PUSH1 0x0 DUP3 DUP3 SLOAD ADD SWAP3 POP POP DUP2 SWAP1 SSTORE POP PUSH2 0x3E8 PUSH1 0x6 SLOAD GT ISZERO PUSH2 0x49E JUMPI PUSH2 0x3E8 PUSH1 0x6 DUP2 SWAP1 SSTORE POP JUMPDEST JUMP INVALID MSIZE PUSH16 0x7520617265206E6F7420617574686F72 PUSH10 0x7A656420746F20646561 PUSH4 0x74697661 PUSH21 0x65207468697320636F6E74726163742E446F206E6F PUSH21 0x2073656E6420457468657220746F20746869732063 PUSH16 0x6E747261637421596F7520617265206E PUSH16 0x7420617574686F72697A656420746F20 PUSH6 0x786563757465 KECCAK256 PUSH21 0x68697320636F6E74726163742EA265627A7A723158 KECCAK256 ORIGIN COINBASE DUP10 0x4A 0xEA SWAP7 0xC1 GAS 0xB2 STOP 0x2B 0xC9 0xE2 0xEF PUSH2 0xC966 PUSH25 0x36A5C8B205E282DA7EA26B82B11164736F6C63430005110032 "
				},
				"gasEstimates": {
					"creation": {
						"codeDepositCost": "274200",
						"executionCost": "infinite",
						"totalCost": "infinite"
					},
					"external": {
						"": "infinite",
						"deactivate()": "infinite",
						"distribute()": "infinite",
						"distributed_shares()": "1005"
					}
				},
				"methodIdentifiers": {
					"deactivate()": "51b42b00",
					"distribute()": "e4fc6b6d",
					"distributed_shares()": "9bc717f1"
				}
			},
			"storageLayout": {
				"storage": [
					{
						"astId": 3,
						"contract": "contracts/DeferredEquityPlan.sol:DeferredEquityPlan",
						"label": "human_resources",
						"offset": 0,
						"slot": "0",
						"type": "t_address"
					},
					{
						"astId": 5,
						"contract": "contracts/DeferredEquityPlan.sol:DeferredEquityPlan",
						"label": "employee",
						"offset": 0,
						"slot": "1",
						"type": "t_address_payable"
					},
					{
						"astId": 8,
						"contract": "contracts/DeferredEquityPlan.sol:DeferredEquityPlan",
						"label": "active",
						"offset": 20,
						"slot": "1",
						"type": "t_bool"
					},
					{
						"astId": 11,
						"contract": "contracts/DeferredEquityPlan.sol:DeferredEquityPlan",
						"label": "total_shares",
						"offset": 0,
						"slot": "2",
						"type": "t_uint256"
					},
					{
						"astId": 14,
						"contract": "contracts/DeferredEquityPlan.sol:DeferredEquityPlan",
						"label": "annual_distribution",
						"offset": 0,
						"slot": "3",
						"type": "t_uint256"
					},
					{
						"astId": 17,
						"contract": "contracts/DeferredEquityPlan.sol:DeferredEquityPlan",
						"label": "start_time",
						"offset": 0,
						"slot": "4",
						"type": "t_uint256"
					},
					{
						"astId": 20,
						"contract": "contracts/DeferredEquityPlan.sol:DeferredEquityPlan",
						"label": "unlock_time",
						"offset": 0,
						"slot": "5",
						"type": "t_uint256"
					},
					{
						"astId": 23,
						"contract": "contracts/DeferredEquityPlan.sol:DeferredEquityPlan",
						"label": "distributed_shares",
						"offset": 0,
						"slot": "6",
						"type": "t_uint256"
					}
				],
				"types": {
					"t_address": {
						"encoding": "inplace",
						"label": "address",
						"numberOfBytes": "20"
					},
					"t_address_payable": {
						"encoding": "inplace",
						"label": "address payable",
						"numberOfBytes": "20"
					},
					"t_bool": {
						"encoding": "inplace",
						"label": "bool",
						"numberOfBytes": "1"
					},
					"t_uint256": {
						"encoding": "inplace",
						"label": "uint256",
						"numberOfBytes": "32"
					}
				}
			},
			"userdoc": {
				"methods": {}
			}
		}
	}
}