{
	"contracts/DeferredEquityPlan.sol": {
		"DeferredEquityPlan": {
			"abi": [
				{
					"inputs": [
						{
							"internalType": "address payable",
							"name": "_employee",
							"type": "address"
						}
					],
					"payable": false,
					"stateMutability": "nonpayable",
					"type": "constructor"
				},
				{
					"payable": true,
					"stateMutability": "payable",
					"type": "fallback"
				},
				{
					"constant": false,
					"inputs": [],
					"name": "deactivate",
					"outputs": [],
					"payable": false,
					"stateMutability": "nonpayable",
					"type": "function"
				},
				{
					"constant": false,
					"inputs": [],
					"name": "distribute",
					"outputs": [],
					"payable": false,
					"stateMutability": "nonpayable",
					"type": "function"
				},
				{
					"constant": true,
					"inputs": [],
					"name": "distributed_shares",
					"outputs": [
						{
							"internalType": "uint256",
							"name": "",
							"type": "uint256"
						}
					],
					"payable": false,
					"stateMutability": "view",
					"type": "function"
				}
			],
			"devdoc": {
				"methods": {}
			},
			"evm": {
				"assembly": "    /* \"contracts/DeferredEquityPlan.sol\":50:2142  contract DeferredEquityPlan {\r... */\n  mstore(0x40, 0x80)\n    /* \"contracts/DeferredEquityPlan.sol\":169:173  true */\n  0x01\n    /* \"contracts/DeferredEquityPlan.sol\":155:173  bool active = true */\n  dup1\n  exp(0x0100, 0x14)\n  dup2\n  sload\n  dup2\n  0xff\n  mul\n  not\n  and\n  swap1\n  dup4\n  iszero\n  iszero\n  mul\n  or\n  swap1\n  sstore\n  pop\n    /* \"contracts/DeferredEquityPlan.sol\":342:345  now */\n  timestamp\n    /* \"contracts/DeferredEquityPlan.sol\":324:345  uint start_time = now */\n  0x02\n  sstore\n    /* \"contracts/DeferredEquityPlan.sol\":555:679  constructor(address payable _employee) public {\r... */\n  callvalue\n    /* \"--CODEGEN--\":8:17   */\n  dup1\n    /* \"--CODEGEN--\":5:7   */\n  iszero\n  tag_1\n  jumpi\n    /* \"--CODEGEN--\":30:31   */\n  0x00\n    /* \"--CODEGEN--\":27:28   */\n  dup1\n    /* \"--CODEGEN--\":20:32   */\n  revert\n    /* \"--CODEGEN--\":5:7   */\ntag_1:\n    /* \"contracts/DeferredEquityPlan.sol\":555:679  constructor(address payable _employee) public {\r... */\n  pop\n  mload(0x40)\n  sub(codesize, bytecodeSize)\n  dup1\n  bytecodeSize\n  dup4\n  codecopy\n  dup2\n  dup2\n  add\n  0x40\n  mstore\n    /* \"--CODEGEN--\":13:15   */\n  0x20\n    /* \"--CODEGEN--\":8:11   */\n  dup2\n    /* \"--CODEGEN--\":5:16   */\n  lt\n    /* \"--CODEGEN--\":2:4   */\n  iszero\n  tag_2\n  jumpi\n    /* \"--CODEGEN--\":29:30   */\n  0x00\n    /* \"--CODEGEN--\":26:27   */\n  dup1\n    /* \"--CODEGEN--\":19:31   */\n  revert\n    /* \"--CODEGEN--\":2:4   */\ntag_2:\n    /* \"contracts/DeferredEquityPlan.sol\":555:679  constructor(address payable _employee) public {\r... */\n  dup2\n  add\n  swap1\n  dup1\n  dup1\n  mload\n  swap1\n  0x20\n  add\n  swap1\n  swap3\n  swap2\n  swap1\n  pop\n  pop\n  pop\n    /* \"contracts/DeferredEquityPlan.sol\":630:640  msg.sender */\n  caller\n    /* \"contracts/DeferredEquityPlan.sol\":612:627  human_resources */\n  0x00\n  dup1\n    /* \"contracts/DeferredEquityPlan.sol\":612:640  human_resources = msg.sender */\n  0x0100\n  exp\n  dup2\n  sload\n  dup2\n  0xffffffffffffffffffffffffffffffffffffffff\n  mul\n  not\n  and\n  swap1\n  dup4\n  0xffffffffffffffffffffffffffffffffffffffff\n  and\n  mul\n  or\n  swap1\n  sstore\n  pop\n    /* \"contracts/DeferredEquityPlan.sol\":662:671  _employee */\n  dup1\n    /* \"contracts/DeferredEquityPlan.sol\":651:659  employee */\n  0x01\n  0x00\n    /* \"contracts/DeferredEquityPlan.sol\":651:671  employee = _employee */\n  0x0100\n  exp\n  dup2\n  sload\n  dup2\n  0xffffffffffffffffffffffffffffffffffffffff\n  mul\n  not\n  and\n  swap1\n  dup4\n  0xffffffffffffffffffffffffffffffffffffffff\n  and\n  mul\n  or\n  swap1\n  sstore\n  pop\n    /* \"contracts/DeferredEquityPlan.sol\":555:679  constructor(address payable _employee) public {\r... */\n  pop\n    /* \"contracts/DeferredEquityPlan.sol\":50:2142  contract DeferredEquityPlan {\r... */\n  dataSize(sub_0)\n  dup1\n  dataOffset(sub_0)\n  0x00\n  codecopy\n  0x00\n  return\nstop\n\nsub_0: assembly {\n        /* \"contracts/DeferredEquityPlan.sol\":50:2142  contract DeferredEquityPlan {\r... */\n      mstore(0x40, 0x80)\n      jumpi(tag_1, lt(calldatasize, 0x04))\n      shr(0xe0, calldataload(0x00))\n      dup1\n      0x51b42b00\n      eq\n      tag_2\n      jumpi\n      dup1\n      0x9bc717f1\n      eq\n      tag_3\n      jumpi\n      dup1\n      0xe4fc6b6d\n      eq\n      tag_4\n      jumpi\n    tag_1:\n        /* \"contracts/DeferredEquityPlan.sol\":2086:2131  revert(\"Do not send Ether to this contract!\") */\n      mload(0x40)\n      0x08c379a000000000000000000000000000000000000000000000000000000000\n      dup2\n      mstore\n      0x04\n      add\n      dup1\n      dup1\n      0x20\n      add\n      dup3\n      dup2\n      sub\n      dup3\n      mstore\n      0x23\n      dup2\n      mstore\n      0x20\n      add\n      dup1\n      data_68f702e6388d2518088e18365eaa062fd5393371528035cdd118dd91cf2fd66b\n      0x23\n      swap2\n      codecopy\n      0x40\n      add\n      swap2\n      pop\n      pop\n      mload(0x40)\n      dup1\n      swap2\n      sub\n      swap1\n      revert\n        /* \"contracts/DeferredEquityPlan.sol\":1737:1929  function deactivate() public {\r... */\n    tag_2:\n      callvalue\n        /* \"--CODEGEN--\":8:17   */\n      dup1\n        /* \"--CODEGEN--\":5:7   */\n      iszero\n      tag_7\n      jumpi\n        /* \"--CODEGEN--\":30:31   */\n      0x00\n        /* \"--CODEGEN--\":27:28   */\n      dup1\n        /* \"--CODEGEN--\":20:32   */\n      revert\n        /* \"--CODEGEN--\":5:7   */\n    tag_7:\n        /* \"contracts/DeferredEquityPlan.sol\":1737:1929  function deactivate() public {\r... */\n      pop\n      tag_8\n      tag_9\n      jump\t// in\n    tag_8:\n      stop\n        /* \"contracts/DeferredEquityPlan.sol\":501:531  uint public distributed_shares */\n    tag_3:\n      callvalue\n        /* \"--CODEGEN--\":8:17   */\n      dup1\n        /* \"--CODEGEN--\":5:7   */\n      iszero\n      tag_10\n      jumpi\n        /* \"--CODEGEN--\":30:31   */\n      0x00\n        /* \"--CODEGEN--\":27:28   */\n      dup1\n        /* \"--CODEGEN--\":20:32   */\n      revert\n        /* \"--CODEGEN--\":5:7   */\n    tag_10:\n        /* \"contracts/DeferredEquityPlan.sol\":501:531  uint public distributed_shares */\n      pop\n      tag_11\n      tag_12\n      jump\t// in\n    tag_11:\n      mload(0x40)\n      dup1\n      dup3\n      dup2\n      mstore\n      0x20\n      add\n      swap2\n      pop\n      pop\n      mload(0x40)\n      dup1\n      swap2\n      sub\n      swap1\n      return\n        /* \"contracts/DeferredEquityPlan.sol\":687:1651  function distribute() public {\r... */\n    tag_4:\n      callvalue\n        /* \"--CODEGEN--\":8:17   */\n      dup1\n        /* \"--CODEGEN--\":5:7   */\n      iszero\n      tag_13\n      jumpi\n        /* \"--CODEGEN--\":30:31   */\n      0x00\n        /* \"--CODEGEN--\":27:28   */\n      dup1\n        /* \"--CODEGEN--\":20:32   */\n      revert\n        /* \"--CODEGEN--\":5:7   */\n    tag_13:\n        /* \"contracts/DeferredEquityPlan.sol\":687:1651  function distribute() public {\r... */\n      pop\n      tag_14\n      tag_15\n      jump\t// in\n    tag_14:\n      stop\n        /* \"contracts/DeferredEquityPlan.sol\":1737:1929  function deactivate() public {\r... */\n    tag_9:\n        /* \"contracts/DeferredEquityPlan.sol\":1799:1814  human_resources */\n      0x00\n      dup1\n      swap1\n      sload\n      swap1\n      0x0100\n      exp\n      swap1\n      div\n      0xffffffffffffffffffffffffffffffffffffffff\n      and\n        /* \"contracts/DeferredEquityPlan.sol\":1785:1814  msg.sender == human_resources */\n      0xffffffffffffffffffffffffffffffffffffffff\n      and\n        /* \"contracts/DeferredEquityPlan.sol\":1785:1795  msg.sender */\n      caller\n        /* \"contracts/DeferredEquityPlan.sol\":1785:1814  msg.sender == human_resources */\n      0xffffffffffffffffffffffffffffffffffffffff\n      and\n      eq\n        /* \"contracts/DeferredEquityPlan.sol\":1785:1840  msg.sender == human_resources || msg.sender == employee */\n      dup1\n      tag_17\n      jumpi\n      pop\n        /* \"contracts/DeferredEquityPlan.sol\":1832:1840  employee */\n      0x01\n      0x00\n      swap1\n      sload\n      swap1\n      0x0100\n      exp\n      swap1\n      div\n      0xffffffffffffffffffffffffffffffffffffffff\n      and\n        /* \"contracts/DeferredEquityPlan.sol\":1818:1840  msg.sender == employee */\n      0xffffffffffffffffffffffffffffffffffffffff\n      and\n        /* \"contracts/DeferredEquityPlan.sol\":1818:1828  msg.sender */\n      caller\n        /* \"contracts/DeferredEquityPlan.sol\":1818:1840  msg.sender == employee */\n      0xffffffffffffffffffffffffffffffffffffffff\n      and\n      eq\n        /* \"contracts/DeferredEquityPlan.sol\":1785:1840  msg.sender == human_resources || msg.sender == employee */\n    tag_17:\n        /* \"contracts/DeferredEquityPlan.sol\":1777:1896  require(msg.sender == human_resources || msg.sender == employee, \"You are not authorized to deactivate this contract.\") */\n      tag_18\n      jumpi\n      mload(0x40)\n      0x08c379a000000000000000000000000000000000000000000000000000000000\n      dup2\n      mstore\n      0x04\n      add\n      dup1\n      dup1\n      0x20\n      add\n      dup3\n      dup2\n      sub\n      dup3\n      mstore\n      0x33\n      dup2\n      mstore\n      0x20\n      add\n      dup1\n      data_44fe763b3ac121d9373b3116501483b74bc02ac33c1be16c96619643c2e17c04\n      0x33\n      swap2\n      codecopy\n      0x40\n      add\n      swap2\n      pop\n      pop\n      mload(0x40)\n      dup1\n      swap2\n      sub\n      swap1\n      revert\n    tag_18:\n        /* \"contracts/DeferredEquityPlan.sol\":1916:1921  false */\n      0x00\n        /* \"contracts/DeferredEquityPlan.sol\":1907:1913  active */\n      0x01\n      0x14\n        /* \"contracts/DeferredEquityPlan.sol\":1907:1921  active = false */\n      0x0100\n      exp\n      dup2\n      sload\n      dup2\n      0xff\n      mul\n      not\n      and\n      swap1\n      dup4\n      iszero\n      iszero\n      mul\n      or\n      swap1\n      sstore\n      pop\n        /* \"contracts/DeferredEquityPlan.sol\":1737:1929  function deactivate() public {\r... */\n      jump\t// out\n        /* \"contracts/DeferredEquityPlan.sol\":501:531  uint public distributed_shares */\n    tag_12:\n      sload(0x03)\n      dup2\n      jump\t// out\n        /* \"contracts/DeferredEquityPlan.sol\":687:1651  function distribute() public {\r... */\n    tag_15:\n        /* \"contracts/DeferredEquityPlan.sol\":749:764  human_resources */\n      0x00\n      dup1\n      swap1\n      sload\n      swap1\n      0x0100\n      exp\n      swap1\n      div\n      0xffffffffffffffffffffffffffffffffffffffff\n      and\n        /* \"contracts/DeferredEquityPlan.sol\":735:764  msg.sender == human_resources */\n      0xffffffffffffffffffffffffffffffffffffffff\n      and\n        /* \"contracts/DeferredEquityPlan.sol\":735:745  msg.sender */\n      caller\n        /* \"contracts/DeferredEquityPlan.sol\":735:764  msg.sender == human_resources */\n      0xffffffffffffffffffffffffffffffffffffffff\n      and\n      eq\n        /* \"contracts/DeferredEquityPlan.sol\":735:790  msg.sender == human_resources || msg.sender == employee */\n      dup1\n      tag_20\n      jumpi\n      pop\n        /* \"contracts/DeferredEquityPlan.sol\":782:790  employee */\n      0x01\n      0x00\n      swap1\n      sload\n      swap1\n      0x0100\n      exp\n      swap1\n      div\n      0xffffffffffffffffffffffffffffffffffffffff\n      and\n        /* \"contracts/DeferredEquityPlan.sol\":768:790  msg.sender == employee */\n      0xffffffffffffffffffffffffffffffffffffffff\n      and\n        /* \"contracts/DeferredEquityPlan.sol\":768:778  msg.sender */\n      caller\n        /* \"contracts/DeferredEquityPlan.sol\":768:790  msg.sender == employee */\n      0xffffffffffffffffffffffffffffffffffffffff\n      and\n      eq\n        /* \"contracts/DeferredEquityPlan.sol\":735:790  msg.sender == human_resources || msg.sender == employee */\n    tag_20:\n        /* \"contracts/DeferredEquityPlan.sol\":727:843  require(msg.sender == human_resources || msg.sender == employee, \"You are not authorized to execute this contract.\") */\n      tag_21\n      jumpi\n      mload(0x40)\n      0x08c379a000000000000000000000000000000000000000000000000000000000\n      dup2\n      mstore\n      0x04\n      add\n      dup1\n      dup1\n      0x20\n      add\n      dup3\n      dup2\n      sub\n      dup3\n      mstore\n      0x30\n      dup2\n      mstore\n      0x20\n      add\n      dup1\n      data_ba2ee6ca50d86582f4490a3252728de9a213982133b99a8712775a266ab39acb\n      0x30\n      swap2\n      codecopy\n      0x40\n      add\n      swap2\n      pop\n      pop\n      mload(0x40)\n      dup1\n      swap2\n      sub\n      swap1\n      revert\n    tag_21:\n        /* \"contracts/DeferredEquityPlan.sol\":872:876  true */\n      0x01\n        /* \"contracts/DeferredEquityPlan.sol\":862:876  active == true */\n      iszero\n      iszero\n        /* \"contracts/DeferredEquityPlan.sol\":862:868  active */\n      0x01\n      0x14\n      swap1\n      sload\n      swap1\n      0x0100\n      exp\n      swap1\n      div\n      0xff\n      and\n        /* \"contracts/DeferredEquityPlan.sol\":862:876  active == true */\n      iszero\n      iszero\n      eq\n        /* \"contracts/DeferredEquityPlan.sol\":854:901  require(active == true, \"Contract not active.\") */\n      tag_22\n      jumpi\n      mload(0x40)\n      0x08c379a000000000000000000000000000000000000000000000000000000000\n      dup2\n      mstore\n      0x04\n      add\n      dup1\n      dup1\n      0x20\n      add\n      dup3\n      dup2\n      sub\n      dup3\n      mstore\n      0x14\n      dup2\n      mstore\n      0x20\n      add\n      dup1\n      0x436f6e7472616374206e6f74206163746976652e000000000000000000000000\n      dup2\n      mstore\n      pop\n      0x20\n      add\n      swap2\n      pop\n      pop\n      mload(0x40)\n      dup1\n      swap2\n      sub\n      swap1\n      revert\n    tag_22:\n        /* \"contracts/DeferredEquityPlan.sol\":1586:1590  1000 */\n      0x03e8\n        /* \"contracts/DeferredEquityPlan.sol\":1565:1583  distributed_shares */\n      sload(0x03)\n        /* \"contracts/DeferredEquityPlan.sol\":1565:1590  distributed_shares > 1000 */\n      gt\n        /* \"contracts/DeferredEquityPlan.sol\":1561:1644  if (distributed_shares > 1000) {\r... */\n      iszero\n      tag_23\n      jumpi\n        /* \"contracts/DeferredEquityPlan.sol\":1628:1632  1000 */\n      0x03e8\n        /* \"contracts/DeferredEquityPlan.sol\":1607:1625  distributed_shares */\n      0x03\n        /* \"contracts/DeferredEquityPlan.sol\":1607:1632  distributed_shares = 1000 */\n      dup2\n      swap1\n      sstore\n      pop\n        /* \"contracts/DeferredEquityPlan.sol\":1561:1644  if (distributed_shares > 1000) {\r... */\n    tag_23:\n        /* \"contracts/DeferredEquityPlan.sol\":687:1651  function distribute() public {\r... */\n      jump\t// out\n    stop\n    data_44fe763b3ac121d9373b3116501483b74bc02ac33c1be16c96619643c2e17c04 596f7520617265206e6f7420617574686f72697a656420746f2064656163746976617465207468697320636f6e74726163742e\n    data_68f702e6388d2518088e18365eaa062fd5393371528035cdd118dd91cf2fd66b 446f206e6f742073656e6420457468657220746f207468697320636f6e747261637421\n    data_ba2ee6ca50d86582f4490a3252728de9a213982133b99a8712775a266ab39acb 596f7520617265206e6f7420617574686f72697a656420746f2065786563757465207468697320636f6e74726163742e\n\n    auxdata: 0xa265627a7a72315820de9cfe37656345dbe70cc9b6d3a365a8ede524b0a57bd5ca67ec3ceb2389db3364736f6c63430005110032\n}\n",
				"bytecode": {
					"linkReferences": {},
					"object": "608060405260018060146101000a81548160ff0219169083151502179055504260025534801561002e57600080fd5b5060405161054a38038061054a8339818101604052602081101561005157600080fd5b8101908080519060200190929190505050336000806101000a81548173ffffffffffffffffffffffffffffffffffffffff021916908373ffffffffffffffffffffffffffffffffffffffff16021790555080600160006101000a81548173ffffffffffffffffffffffffffffffffffffffff021916908373ffffffffffffffffffffffffffffffffffffffff16021790555050610457806100f36000396000f3fe6080604052600436106100345760003560e01c806351b42b00146100855780639bc717f11461009c578063e4fc6b6d146100c7575b6040517f08c379a00000000000000000000000000000000000000000000000000000000081526004018080602001828103825260238152602001806103d06023913960400191505060405180910390fd5b34801561009157600080fd5b5061009a6100de565b005b3480156100a857600080fd5b506100b16101f8565b6040518082815260200191505060405180910390f35b3480156100d357600080fd5b506100dc6101fe565b005b6000809054906101000a900473ffffffffffffffffffffffffffffffffffffffff1673ffffffffffffffffffffffffffffffffffffffff163373ffffffffffffffffffffffffffffffffffffffff1614806101865750600160009054906101000a900473ffffffffffffffffffffffffffffffffffffffff1673ffffffffffffffffffffffffffffffffffffffff163373ffffffffffffffffffffffffffffffffffffffff16145b6101db576040517f08c379a000000000000000000000000000000000000000000000000000000000815260040180806020018281038252603381526020018061039d6033913960400191505060405180910390fd5b6000600160146101000a81548160ff021916908315150217905550565b60035481565b6000809054906101000a900473ffffffffffffffffffffffffffffffffffffffff1673ffffffffffffffffffffffffffffffffffffffff163373ffffffffffffffffffffffffffffffffffffffff1614806102a65750600160009054906101000a900473ffffffffffffffffffffffffffffffffffffffff1673ffffffffffffffffffffffffffffffffffffffff163373ffffffffffffffffffffffffffffffffffffffff16145b6102fb576040517f08c379a00000000000000000000000000000000000000000000000000000000081526004018080602001828103825260308152602001806103f36030913960400191505060405180910390fd5b60011515600160149054906101000a900460ff16151514610384576040517f08c379a00000000000000000000000000000000000000000000000000000000081526004018080602001828103825260148152602001807f436f6e7472616374206e6f74206163746976652e00000000000000000000000081525060200191505060405180910390fd5b6103e8600354111561039a576103e86003819055505b56fe596f7520617265206e6f7420617574686f72697a656420746f2064656163746976617465207468697320636f6e74726163742e446f206e6f742073656e6420457468657220746f207468697320636f6e747261637421596f7520617265206e6f7420617574686f72697a656420746f2065786563757465207468697320636f6e74726163742ea265627a7a72315820de9cfe37656345dbe70cc9b6d3a365a8ede524b0a57bd5ca67ec3ceb2389db3364736f6c63430005110032",
					"opcodes": "PUSH1 0x80 PUSH1 0x40 MSTORE PUSH1 0x1 DUP1 PUSH1 0x14 PUSH2 0x100 EXP DUP2 SLOAD DUP2 PUSH1 0xFF MUL NOT AND SWAP1 DUP4 ISZERO ISZERO MUL OR SWAP1 SSTORE POP TIMESTAMP PUSH1 0x2 SSTORE CALLVALUE DUP1 ISZERO PUSH2 0x2E JUMPI PUSH1 0x0 DUP1 REVERT JUMPDEST POP PUSH1 0x40 MLOAD PUSH2 0x54A CODESIZE SUB DUP1 PUSH2 0x54A DUP4 CODECOPY DUP2 DUP2 ADD PUSH1 0x40 MSTORE PUSH1 0x20 DUP2 LT ISZERO PUSH2 0x51 JUMPI PUSH1 0x0 DUP1 REVERT JUMPDEST DUP2 ADD SWAP1 DUP1 DUP1 MLOAD SWAP1 PUSH1 0x20 ADD SWAP1 SWAP3 SWAP2 SWAP1 POP POP POP CALLER PUSH1 0x0 DUP1 PUSH2 0x100 EXP DUP2 SLOAD DUP2 PUSH20 0xFFFFFFFFFFFFFFFFFFFFFFFFFFFFFFFFFFFFFFFF MUL NOT AND SWAP1 DUP4 PUSH20 0xFFFFFFFFFFFFFFFFFFFFFFFFFFFFFFFFFFFFFFFF AND MUL OR SWAP1 SSTORE POP DUP1 PUSH1 0x1 PUSH1 0x0 PUSH2 0x100 EXP DUP2 SLOAD DUP2 PUSH20 0xFFFFFFFFFFFFFFFFFFFFFFFFFFFFFFFFFFFFFFFF MUL NOT AND SWAP1 DUP4 PUSH20 0xFFFFFFFFFFFFFFFFFFFFFFFFFFFFFFFFFFFFFFFF AND MUL OR SWAP1 SSTORE POP POP PUSH2 0x457 DUP1 PUSH2 0xF3 PUSH1 0x0 CODECOPY PUSH1 0x0 RETURN INVALID PUSH1 0x80 PUSH1 0x40 MSTORE PUSH1 0x4 CALLDATASIZE LT PUSH2 0x34 JUMPI PUSH1 0x0 CALLDATALOAD PUSH1 0xE0 SHR DUP1 PUSH4 0x51B42B00 EQ PUSH2 0x85 JUMPI DUP1 PUSH4 0x9BC717F1 EQ PUSH2 0x9C JUMPI DUP1 PUSH4 0xE4FC6B6D EQ PUSH2 0xC7 JUMPI JUMPDEST PUSH1 0x40 MLOAD PUSH32 0x8C379A000000000000000000000000000000000000000000000000000000000 DUP2 MSTORE PUSH1 0x4 ADD DUP1 DUP1 PUSH1 0x20 ADD DUP3 DUP2 SUB DUP3 MSTORE PUSH1 0x23 DUP2 MSTORE PUSH1 0x20 ADD DUP1 PUSH2 0x3D0 PUSH1 0x23 SWAP2 CODECOPY PUSH1 0x40 ADD SWAP2 POP POP PUSH1 0x40 MLOAD DUP1 SWAP2 SUB SWAP1 REVERT JUMPDEST CALLVALUE DUP1 ISZERO PUSH2 0x91 JUMPI PUSH1 0x0 DUP1 REVERT JUMPDEST POP PUSH2 0x9A PUSH2 0xDE JUMP JUMPDEST STOP JUMPDEST CALLVALUE DUP1 ISZERO PUSH2 0xA8 JUMPI PUSH1 0x0 DUP1 REVERT JUMPDEST POP PUSH2 0xB1 PUSH2 0x1F8 JUMP JUMPDEST PUSH1 0x40 MLOAD DUP1 DUP3 DUP2 MSTORE PUSH1 0x20 ADD SWAP2 POP POP PUSH1 0x40 MLOAD DUP1 SWAP2 SUB SWAP1 RETURN JUMPDEST CALLVALUE DUP1 ISZERO PUSH2 0xD3 JUMPI PUSH1 0x0 DUP1 REVERT JUMPDEST POP PUSH2 0xDC PUSH2 0x1FE JUMP JUMPDEST STOP JUMPDEST PUSH1 0x0 DUP1 SWAP1 SLOAD SWAP1 PUSH2 0x100 EXP SWAP1 DIV PUSH20 0xFFFFFFFFFFFFFFFFFFFFFFFFFFFFFFFFFFFFFFFF AND PUSH20 0xFFFFFFFFFFFFFFFFFFFFFFFFFFFFFFFFFFFFFFFF AND CALLER PUSH20 0xFFFFFFFFFFFFFFFFFFFFFFFFFFFFFFFFFFFFFFFF AND EQ DUP1 PUSH2 0x186 JUMPI POP PUSH1 0x1 PUSH1 0x0 SWAP1 SLOAD SWAP1 PUSH2 0x100 EXP SWAP1 DIV PUSH20 0xFFFFFFFFFFFFFFFFFFFFFFFFFFFFFFFFFFFFFFFF AND PUSH20 0xFFFFFFFFFFFFFFFFFFFFFFFFFFFFFFFFFFFFFFFF AND CALLER PUSH20 0xFFFFFFFFFFFFFFFFFFFFFFFFFFFFFFFFFFFFFFFF AND EQ JUMPDEST PUSH2 0x1DB JUMPI PUSH1 0x40 MLOAD PUSH32 0x8C379A000000000000000000000000000000000000000000000000000000000 DUP2 MSTORE PUSH1 0x4 ADD DUP1 DUP1 PUSH1 0x20 ADD DUP3 DUP2 SUB DUP3 MSTORE PUSH1 0x33 DUP2 MSTORE PUSH1 0x20 ADD DUP1 PUSH2 0x39D PUSH1 0x33 SWAP2 CODECOPY PUSH1 0x40 ADD SWAP2 POP POP PUSH1 0x40 MLOAD DUP1 SWAP2 SUB SWAP1 REVERT JUMPDEST PUSH1 0x0 PUSH1 0x1 PUSH1 0x14 PUSH2 0x100 EXP DUP2 SLOAD DUP2 PUSH1 0xFF MUL NOT AND SWAP1 DUP4 ISZERO ISZERO MUL OR SWAP1 SSTORE POP JUMP JUMPDEST PUSH1 0x3 SLOAD DUP2 JUMP JUMPDEST PUSH1 0x0 DUP1 SWAP1 SLOAD SWAP1 PUSH2 0x100 EXP SWAP1 DIV PUSH20 0xFFFFFFFFFFFFFFFFFFFFFFFFFFFFFFFFFFFFFFFF AND PUSH20 0xFFFFFFFFFFFFFFFFFFFFFFFFFFFFFFFFFFFFFFFF AND CALLER PUSH20 0xFFFFFFFFFFFFFFFFFFFFFFFFFFFFFFFFFFFFFFFF AND EQ DUP1 PUSH2 0x2A6 JUMPI POP PUSH1 0x1 PUSH1 0x0 SWAP1 SLOAD SWAP1 PUSH2 0x100 EXP SWAP1 DIV PUSH20 0xFFFFFFFFFFFFFFFFFFFFFFFFFFFFFFFFFFFFFFFF AND PUSH20 0xFFFFFFFFFFFFFFFFFFFFFFFFFFFFFFFFFFFFFFFF AND CALLER PUSH20 0xFFFFFFFFFFFFFFFFFFFFFFFFFFFFFFFFFFFFFFFF AND EQ JUMPDEST PUSH2 0x2FB JUMPI PUSH1 0x40 MLOAD PUSH32 0x8C379A000000000000000000000000000000000000000000000000000000000 DUP2 MSTORE PUSH1 0x4 ADD DUP1 DUP1 PUSH1 0x20 ADD DUP3 DUP2 SUB DUP3 MSTORE PUSH1 0x30 DUP2 MSTORE PUSH1 0x20 ADD DUP1 PUSH2 0x3F3 PUSH1 0x30 SWAP2 CODECOPY PUSH1 0x40 ADD SWAP2 POP POP PUSH1 0x40 MLOAD DUP1 SWAP2 SUB SWAP1 REVERT JUMPDEST PUSH1 0x1 ISZERO ISZERO PUSH1 0x1 PUSH1 0x14 SWAP1 SLOAD SWAP1 PUSH2 0x100 EXP SWAP1 DIV PUSH1 0xFF AND ISZERO ISZERO EQ PUSH2 0x384 JUMPI PUSH1 0x40 MLOAD PUSH32 0x8C379A000000000000000000000000000000000000000000000000000000000 DUP2 MSTORE PUSH1 0x4 ADD DUP1 DUP1 PUSH1 0x20 ADD DUP3 DUP2 SUB DUP3 MSTORE PUSH1 0x14 DUP2 MSTORE PUSH1 0x20 ADD DUP1 PUSH32 0x436F6E7472616374206E6F74206163746976652E000000000000000000000000 DUP2 MSTORE POP PUSH1 0x20 ADD SWAP2 POP POP PUSH1 0x40 MLOAD DUP1 SWAP2 SUB SWAP1 REVERT JUMPDEST PUSH2 0x3E8 PUSH1 0x3 SLOAD GT ISZERO PUSH2 0x39A JUMPI PUSH2 0x3E8 PUSH1 0x3 DUP2 SWAP1 SSTORE POP JUMPDEST JUMP INVALID MSIZE PUSH16 0x7520617265206E6F7420617574686F72 PUSH10 0x7A656420746F20646561 PUSH4 0x74697661 PUSH21 0x65207468697320636F6E74726163742E446F206E6F PUSH21 0x2073656E6420457468657220746F20746869732063 PUSH16 0x6E747261637421596F7520617265206E PUSH16 0x7420617574686F72697A656420746F20 PUSH6 0x786563757465 KECCAK256 PUSH21 0x68697320636F6E74726163742EA265627A7A723158 KECCAK256 0xDE SWAP13 INVALID CALLDATACOPY PUSH6 0x6345DBE70CC9 0xB6 0xD3 LOG3 PUSH6 0xA8EDE524B0A5 PUSH28 0xD5CA67EC3CEB2389DB3364736F6C6343000511003200000000000000 "
				},
				"gasEstimates": {
					"creation": {
						"codeDepositCost": "222200",
						"executionCost": "infinite",
						"totalCost": "infinite"
					},
					"external": {
						"": "infinite",
						"deactivate()": "infinite",
						"distribute()": "infinite",
						"distributed_shares()": "1005"
					}
				},
				"methodIdentifiers": {
					"deactivate()": "51b42b00",
					"distribute()": "e4fc6b6d",
					"distributed_shares()": "9bc717f1"
				}
			},
			"storageLayout": {
				"storage": [
					{
						"astId": 3,
						"contract": "contracts/DeferredEquityPlan.sol:DeferredEquityPlan",
						"label": "human_resources",
						"offset": 0,
						"slot": "0",
						"type": "t_address"
					},
					{
						"astId": 5,
						"contract": "contracts/DeferredEquityPlan.sol:DeferredEquityPlan",
						"label": "employee",
						"offset": 0,
						"slot": "1",
						"type": "t_address_payable"
					},
					{
						"astId": 8,
						"contract": "contracts/DeferredEquityPlan.sol:DeferredEquityPlan",
						"label": "active",
						"offset": 20,
						"slot": "1",
						"type": "t_bool"
					},
					{
						"astId": 11,
						"contract": "contracts/DeferredEquityPlan.sol:DeferredEquityPlan",
						"label": "start_time",
						"offset": 0,
						"slot": "2",
						"type": "t_uint256"
					},
					{
						"astId": 13,
						"contract": "contracts/DeferredEquityPlan.sol:DeferredEquityPlan",
						"label": "distributed_shares",
						"offset": 0,
						"slot": "3",
						"type": "t_uint256"
					}
				],
				"types": {
					"t_address": {
						"encoding": "inplace",
						"label": "address",
						"numberOfBytes": "20"
					},
					"t_address_payable": {
						"encoding": "inplace",
						"label": "address payable",
						"numberOfBytes": "20"
					},
					"t_bool": {
						"encoding": "inplace",
						"label": "bool",
						"numberOfBytes": "1"
					},
					"t_uint256": {
						"encoding": "inplace",
						"label": "uint256",
						"numberOfBytes": "32"
					}
				}
			},
			"userdoc": {
				"methods": {}
			}
		}
	}
}