{
	"contracts/DeferredEquityPlan.sol": {
		"DeferredEquityPlan": {
			"abi": [
				{
					"inputs": [
						{
							"internalType": "address payable",
							"name": "_employee",
							"type": "address"
						}
					],
					"payable": false,
					"stateMutability": "nonpayable",
					"type": "constructor"
				},
				{
					"payable": true,
					"stateMutability": "payable",
					"type": "fallback"
				},
				{
					"constant": false,
					"inputs": [],
					"name": "deactivate",
					"outputs": [],
					"payable": false,
					"stateMutability": "nonpayable",
					"type": "function"
				},
				{
					"constant": false,
					"inputs": [],
					"name": "distribute",
					"outputs": [],
					"payable": false,
					"stateMutability": "nonpayable",
					"type": "function"
				},
				{
					"constant": true,
					"inputs": [],
					"name": "distributed_shares",
					"outputs": [
						{
							"internalType": "uint256",
							"name": "",
							"type": "uint256"
						}
					],
					"payable": false,
					"stateMutability": "view",
					"type": "function"
				},
				{
					"constant": false,
					"inputs": [],
					"name": "fastforward",
					"outputs": [],
					"payable": false,
					"stateMutability": "nonpayable",
					"type": "function"
				},
				{
					"constant": true,
					"inputs": [],
					"name": "unlock_time",
					"outputs": [
						{
							"internalType": "uint256",
							"name": "",
							"type": "uint256"
						}
					],
					"payable": false,
					"stateMutability": "view",
					"type": "function"
				}
			],
			"devdoc": {
				"methods": {}
			},
			"evm": {
				"assembly": "    /* \"contracts/DeferredEquityPlan.sol\":50:2509  contract DeferredEquityPlan {\r... */\n  mstore(0x40, 0x80)\n    /* \"contracts/DeferredEquityPlan.sol\":169:173  true */\n  0x01\n    /* \"contracts/DeferredEquityPlan.sol\":155:173  bool active = true */\n  dup1\n  exp(0x0100, 0x14)\n  dup2\n  sload\n  dup2\n  0xff\n  mul\n  not\n  and\n  swap1\n  dup4\n  iszero\n  iszero\n  mul\n  or\n  swap1\n  sstore\n  pop\n    /* \"contracts/DeferredEquityPlan.sol\":318:322  1000 */\n  0x03e8\n    /* \"contracts/DeferredEquityPlan.sol\":298:322  uint total_shares = 1000 */\n  0x02\n  sstore\n    /* \"contracts/DeferredEquityPlan.sol\":356:359  250 */\n  0xfa\n    /* \"contracts/DeferredEquityPlan.sol\":329:359  uint annual_distribution = 250 */\n  0x03\n  sstore\n    /* \"contracts/DeferredEquityPlan.sol\":410:413  now */\n  timestamp\n    /* \"contracts/DeferredEquityPlan.sol\":395:413  uint fakenow = now */\n  0x04\n  sstore\n    /* \"contracts/DeferredEquityPlan.sol\":438:441  now */\n  timestamp\n    /* \"contracts/DeferredEquityPlan.sol\":420:441  uint start_time = now */\n  0x05\n  sstore\n    /* \"contracts/DeferredEquityPlan.sol\":610:613  365 */\n  0x016d\n    /* \"contracts/DeferredEquityPlan.sol\":597:607  start_time */\n  sload(0x05)\n    /* \"contracts/DeferredEquityPlan.sol\":597:613  start_time + 365 */\n  add\n    /* \"contracts/DeferredEquityPlan.sol\":571:613  uint public unlock_time = start_time + 365 */\n  0x06\n  sstore\n    /* \"contracts/DeferredEquityPlan.sol\":676:800  constructor(address payable _employee) public {\r... */\n  callvalue\n    /* \"--CODEGEN--\":8:17   */\n  dup1\n    /* \"--CODEGEN--\":5:7   */\n  iszero\n  tag_1\n  jumpi\n    /* \"--CODEGEN--\":30:31   */\n  0x00\n    /* \"--CODEGEN--\":27:28   */\n  dup1\n    /* \"--CODEGEN--\":20:32   */\n  revert\n    /* \"--CODEGEN--\":5:7   */\ntag_1:\n    /* \"contracts/DeferredEquityPlan.sol\":676:800  constructor(address payable _employee) public {\r... */\n  pop\n  mload(0x40)\n  sub(codesize, bytecodeSize)\n  dup1\n  bytecodeSize\n  dup4\n  codecopy\n  dup2\n  dup2\n  add\n  0x40\n  mstore\n    /* \"--CODEGEN--\":13:15   */\n  0x20\n    /* \"--CODEGEN--\":8:11   */\n  dup2\n    /* \"--CODEGEN--\":5:16   */\n  lt\n    /* \"--CODEGEN--\":2:4   */\n  iszero\n  tag_2\n  jumpi\n    /* \"--CODEGEN--\":29:30   */\n  0x00\n    /* \"--CODEGEN--\":26:27   */\n  dup1\n    /* \"--CODEGEN--\":19:31   */\n  revert\n    /* \"--CODEGEN--\":2:4   */\ntag_2:\n    /* \"contracts/DeferredEquityPlan.sol\":676:800  constructor(address payable _employee) public {\r... */\n  dup2\n  add\n  swap1\n  dup1\n  dup1\n  mload\n  swap1\n  0x20\n  add\n  swap1\n  swap3\n  swap2\n  swap1\n  pop\n  pop\n  pop\n    /* \"contracts/DeferredEquityPlan.sol\":751:761  msg.sender */\n  caller\n    /* \"contracts/DeferredEquityPlan.sol\":733:748  human_resources */\n  0x00\n  dup1\n    /* \"contracts/DeferredEquityPlan.sol\":733:761  human_resources = msg.sender */\n  0x0100\n  exp\n  dup2\n  sload\n  dup2\n  0xffffffffffffffffffffffffffffffffffffffff\n  mul\n  not\n  and\n  swap1\n  dup4\n  0xffffffffffffffffffffffffffffffffffffffff\n  and\n  mul\n  or\n  swap1\n  sstore\n  pop\n    /* \"contracts/DeferredEquityPlan.sol\":783:792  _employee */\n  dup1\n    /* \"contracts/DeferredEquityPlan.sol\":772:780  employee */\n  0x01\n  0x00\n    /* \"contracts/DeferredEquityPlan.sol\":772:792  employee = _employee */\n  0x0100\n  exp\n  dup2\n  sload\n  dup2\n  0xffffffffffffffffffffffffffffffffffffffff\n  mul\n  not\n  and\n  swap1\n  dup4\n  0xffffffffffffffffffffffffffffffffffffffff\n  and\n  mul\n  or\n  swap1\n  sstore\n  pop\n    /* \"contracts/DeferredEquityPlan.sol\":676:800  constructor(address payable _employee) public {\r... */\n  pop\n    /* \"contracts/DeferredEquityPlan.sol\":50:2509  contract DeferredEquityPlan {\r... */\n  dataSize(sub_0)\n  dup1\n  dataOffset(sub_0)\n  0x00\n  codecopy\n  0x00\n  return\nstop\n\nsub_0: assembly {\n        /* \"contracts/DeferredEquityPlan.sol\":50:2509  contract DeferredEquityPlan {\r... */\n      mstore(0x40, 0x80)\n      jumpi(tag_1, lt(calldatasize, 0x04))\n      shr(0xe0, calldataload(0x00))\n      dup1\n      0x0f388b4f\n      eq\n      tag_2\n      jumpi\n      dup1\n      0x51b42b00\n      eq\n      tag_3\n      jumpi\n      dup1\n      0x62cb5951\n      eq\n      tag_4\n      jumpi\n      dup1\n      0x9bc717f1\n      eq\n      tag_5\n      jumpi\n      dup1\n      0xe4fc6b6d\n      eq\n      tag_6\n      jumpi\n    tag_1:\n        /* \"contracts/DeferredEquityPlan.sol\":2392:2437  revert(\"Do not send Ether to this contract!\") */\n      mload(0x40)\n      0x08c379a000000000000000000000000000000000000000000000000000000000\n      dup2\n      mstore\n      0x04\n      add\n      dup1\n      dup1\n      0x20\n      add\n      dup3\n      dup2\n      sub\n      dup3\n      mstore\n      0x23\n      dup2\n      mstore\n      0x20\n      add\n      dup1\n      data_68f702e6388d2518088e18365eaa062fd5393371528035cdd118dd91cf2fd66b\n      0x23\n      swap2\n      codecopy\n      0x40\n      add\n      swap2\n      pop\n      pop\n      mload(0x40)\n      dup1\n      swap2\n      sub\n      swap1\n      revert\n        /* \"contracts/DeferredEquityPlan.sol\":571:613  uint public unlock_time = start_time + 365 */\n    tag_2:\n      callvalue\n        /* \"--CODEGEN--\":8:17   */\n      dup1\n        /* \"--CODEGEN--\":5:7   */\n      iszero\n      tag_9\n      jumpi\n        /* \"--CODEGEN--\":30:31   */\n      0x00\n        /* \"--CODEGEN--\":27:28   */\n      dup1\n        /* \"--CODEGEN--\":20:32   */\n      revert\n        /* \"--CODEGEN--\":5:7   */\n    tag_9:\n        /* \"contracts/DeferredEquityPlan.sol\":571:613  uint public unlock_time = start_time + 365 */\n      pop\n      tag_10\n      tag_11\n      jump\t// in\n    tag_10:\n      mload(0x40)\n      dup1\n      dup3\n      dup2\n      mstore\n      0x20\n      add\n      swap2\n      pop\n      pop\n      mload(0x40)\n      dup1\n      swap2\n      sub\n      swap1\n      return\n        /* \"contracts/DeferredEquityPlan.sol\":2043:2235  function deactivate() public {\r... */\n    tag_3:\n      callvalue\n        /* \"--CODEGEN--\":8:17   */\n      dup1\n        /* \"--CODEGEN--\":5:7   */\n      iszero\n      tag_12\n      jumpi\n        /* \"--CODEGEN--\":30:31   */\n      0x00\n        /* \"--CODEGEN--\":27:28   */\n      dup1\n        /* \"--CODEGEN--\":20:32   */\n      revert\n        /* \"--CODEGEN--\":5:7   */\n    tag_12:\n        /* \"contracts/DeferredEquityPlan.sol\":2043:2235  function deactivate() public {\r... */\n      pop\n      tag_13\n      tag_14\n      jump\t// in\n    tag_13:\n      stop\n        /* \"contracts/DeferredEquityPlan.sol\":2451:2506  function fastforward() public {\r... */\n    tag_4:\n      callvalue\n        /* \"--CODEGEN--\":8:17   */\n      dup1\n        /* \"--CODEGEN--\":5:7   */\n      iszero\n      tag_15\n      jumpi\n        /* \"--CODEGEN--\":30:31   */\n      0x00\n        /* \"--CODEGEN--\":27:28   */\n      dup1\n        /* \"--CODEGEN--\":20:32   */\n      revert\n        /* \"--CODEGEN--\":5:7   */\n    tag_15:\n        /* \"contracts/DeferredEquityPlan.sol\":2451:2506  function fastforward() public {\r... */\n      pop\n      tag_16\n      tag_17\n      jump\t// in\n    tag_16:\n      stop\n        /* \"contracts/DeferredEquityPlan.sol\":622:652  uint public distributed_shares */\n    tag_5:\n      callvalue\n        /* \"--CODEGEN--\":8:17   */\n      dup1\n        /* \"--CODEGEN--\":5:7   */\n      iszero\n      tag_18\n      jumpi\n        /* \"--CODEGEN--\":30:31   */\n      0x00\n        /* \"--CODEGEN--\":27:28   */\n      dup1\n        /* \"--CODEGEN--\":20:32   */\n      revert\n        /* \"--CODEGEN--\":5:7   */\n    tag_18:\n        /* \"contracts/DeferredEquityPlan.sol\":622:652  uint public distributed_shares */\n      pop\n      tag_19\n      tag_20\n      jump\t// in\n    tag_19:\n      mload(0x40)\n      dup1\n      dup3\n      dup2\n      mstore\n      0x20\n      add\n      swap2\n      pop\n      pop\n      mload(0x40)\n      dup1\n      swap2\n      sub\n      swap1\n      return\n        /* \"contracts/DeferredEquityPlan.sol\":808:1957  function distribute() public {\r... */\n    tag_6:\n      callvalue\n        /* \"--CODEGEN--\":8:17   */\n      dup1\n        /* \"--CODEGEN--\":5:7   */\n      iszero\n      tag_21\n      jumpi\n        /* \"--CODEGEN--\":30:31   */\n      0x00\n        /* \"--CODEGEN--\":27:28   */\n      dup1\n        /* \"--CODEGEN--\":20:32   */\n      revert\n        /* \"--CODEGEN--\":5:7   */\n    tag_21:\n        /* \"contracts/DeferredEquityPlan.sol\":808:1957  function distribute() public {\r... */\n      pop\n      tag_22\n      tag_23\n      jump\t// in\n    tag_22:\n      stop\n        /* \"contracts/DeferredEquityPlan.sol\":571:613  uint public unlock_time = start_time + 365 */\n    tag_11:\n      sload(0x06)\n      dup2\n      jump\t// out\n        /* \"contracts/DeferredEquityPlan.sol\":2043:2235  function deactivate() public {\r... */\n    tag_14:\n        /* \"contracts/DeferredEquityPlan.sol\":2105:2120  human_resources */\n      0x00\n      dup1\n      swap1\n      sload\n      swap1\n      0x0100\n      exp\n      swap1\n      div\n      0xffffffffffffffffffffffffffffffffffffffff\n      and\n        /* \"contracts/DeferredEquityPlan.sol\":2091:2120  msg.sender == human_resources */\n      0xffffffffffffffffffffffffffffffffffffffff\n      and\n        /* \"contracts/DeferredEquityPlan.sol\":2091:2101  msg.sender */\n      caller\n        /* \"contracts/DeferredEquityPlan.sol\":2091:2120  msg.sender == human_resources */\n      0xffffffffffffffffffffffffffffffffffffffff\n      and\n      eq\n        /* \"contracts/DeferredEquityPlan.sol\":2091:2146  msg.sender == human_resources || msg.sender == employee */\n      dup1\n      tag_25\n      jumpi\n      pop\n        /* \"contracts/DeferredEquityPlan.sol\":2138:2146  employee */\n      0x01\n      0x00\n      swap1\n      sload\n      swap1\n      0x0100\n      exp\n      swap1\n      div\n      0xffffffffffffffffffffffffffffffffffffffff\n      and\n        /* \"contracts/DeferredEquityPlan.sol\":2124:2146  msg.sender == employee */\n      0xffffffffffffffffffffffffffffffffffffffff\n      and\n        /* \"contracts/DeferredEquityPlan.sol\":2124:2134  msg.sender */\n      caller\n        /* \"contracts/DeferredEquityPlan.sol\":2124:2146  msg.sender == employee */\n      0xffffffffffffffffffffffffffffffffffffffff\n      and\n      eq\n        /* \"contracts/DeferredEquityPlan.sol\":2091:2146  msg.sender == human_resources || msg.sender == employee */\n    tag_25:\n        /* \"contracts/DeferredEquityPlan.sol\":2083:2202  require(msg.sender == human_resources || msg.sender == employee, \"You are not authorized to deactivate this contract.\") */\n      tag_26\n      jumpi\n      mload(0x40)\n      0x08c379a000000000000000000000000000000000000000000000000000000000\n      dup2\n      mstore\n      0x04\n      add\n      dup1\n      dup1\n      0x20\n      add\n      dup3\n      dup2\n      sub\n      dup3\n      mstore\n      0x33\n      dup2\n      mstore\n      0x20\n      add\n      dup1\n      data_44fe763b3ac121d9373b3116501483b74bc02ac33c1be16c96619643c2e17c04\n      0x33\n      swap2\n      codecopy\n      0x40\n      add\n      swap2\n      pop\n      pop\n      mload(0x40)\n      dup1\n      swap2\n      sub\n      swap1\n      revert\n    tag_26:\n        /* \"contracts/DeferredEquityPlan.sol\":2222:2227  false */\n      0x00\n        /* \"contracts/DeferredEquityPlan.sol\":2213:2219  active */\n      0x01\n      0x14\n        /* \"contracts/DeferredEquityPlan.sol\":2213:2227  active = false */\n      0x0100\n      exp\n      dup2\n      sload\n      dup2\n      0xff\n      mul\n      not\n      and\n      swap1\n      dup4\n      iszero\n      iszero\n      mul\n      or\n      swap1\n      sstore\n      pop\n        /* \"contracts/DeferredEquityPlan.sol\":2043:2235  function deactivate() public {\r... */\n      jump\t// out\n        /* \"contracts/DeferredEquityPlan.sol\":2451:2506  function fastforward() public {\r... */\n    tag_17:\n        /* \"contracts/DeferredEquityPlan.sol\":2499:2502  100 */\n      0x64\n        /* \"contracts/DeferredEquityPlan.sol\":2488:2495  fakenow */\n      0x04\n      0x00\n        /* \"contracts/DeferredEquityPlan.sol\":2488:2502  fakenow += 100 */\n      dup3\n      dup3\n      sload\n      add\n      swap3\n      pop\n      pop\n      dup2\n      swap1\n      sstore\n      pop\n        /* \"contracts/DeferredEquityPlan.sol\":2451:2506  function fastforward() public {\r... */\n      jump\t// out\n        /* \"contracts/DeferredEquityPlan.sol\":622:652  uint public distributed_shares */\n    tag_20:\n      sload(0x07)\n      dup2\n      jump\t// out\n        /* \"contracts/DeferredEquityPlan.sol\":808:1957  function distribute() public {\r... */\n    tag_23:\n        /* \"contracts/DeferredEquityPlan.sol\":870:885  human_resources */\n      0x00\n      dup1\n      swap1\n      sload\n      swap1\n      0x0100\n      exp\n      swap1\n      div\n      0xffffffffffffffffffffffffffffffffffffffff\n      and\n        /* \"contracts/DeferredEquityPlan.sol\":856:885  msg.sender == human_resources */\n      0xffffffffffffffffffffffffffffffffffffffff\n      and\n        /* \"contracts/DeferredEquityPlan.sol\":856:866  msg.sender */\n      caller\n        /* \"contracts/DeferredEquityPlan.sol\":856:885  msg.sender == human_resources */\n      0xffffffffffffffffffffffffffffffffffffffff\n      and\n      eq\n        /* \"contracts/DeferredEquityPlan.sol\":856:911  msg.sender == human_resources || msg.sender == employee */\n      dup1\n      tag_29\n      jumpi\n      pop\n        /* \"contracts/DeferredEquityPlan.sol\":903:911  employee */\n      0x01\n      0x00\n      swap1\n      sload\n      swap1\n      0x0100\n      exp\n      swap1\n      div\n      0xffffffffffffffffffffffffffffffffffffffff\n      and\n        /* \"contracts/DeferredEquityPlan.sol\":889:911  msg.sender == employee */\n      0xffffffffffffffffffffffffffffffffffffffff\n      and\n        /* \"contracts/DeferredEquityPlan.sol\":889:899  msg.sender */\n      caller\n        /* \"contracts/DeferredEquityPlan.sol\":889:911  msg.sender == employee */\n      0xffffffffffffffffffffffffffffffffffffffff\n      and\n      eq\n        /* \"contracts/DeferredEquityPlan.sol\":856:911  msg.sender == human_resources || msg.sender == employee */\n    tag_29:\n        /* \"contracts/DeferredEquityPlan.sol\":848:964  require(msg.sender == human_resources || msg.sender == employee, \"You are not authorized to execute this contract.\") */\n      tag_30\n      jumpi\n      mload(0x40)\n      0x08c379a000000000000000000000000000000000000000000000000000000000\n      dup2\n      mstore\n      0x04\n      add\n      dup1\n      dup1\n      0x20\n      add\n      dup3\n      dup2\n      sub\n      dup3\n      mstore\n      0x30\n      dup2\n      mstore\n      0x20\n      add\n      dup1\n      data_ba2ee6ca50d86582f4490a3252728de9a213982133b99a8712775a266ab39acb\n      0x30\n      swap2\n      codecopy\n      0x40\n      add\n      swap2\n      pop\n      pop\n      mload(0x40)\n      dup1\n      swap2\n      sub\n      swap1\n      revert\n    tag_30:\n        /* \"contracts/DeferredEquityPlan.sol\":993:997  true */\n      0x01\n        /* \"contracts/DeferredEquityPlan.sol\":983:997  active == true */\n      iszero\n      iszero\n        /* \"contracts/DeferredEquityPlan.sol\":983:989  active */\n      0x01\n      0x14\n      swap1\n      sload\n      swap1\n      0x0100\n      exp\n      swap1\n      div\n      0xff\n      and\n        /* \"contracts/DeferredEquityPlan.sol\":983:997  active == true */\n      iszero\n      iszero\n      eq\n        /* \"contracts/DeferredEquityPlan.sol\":975:1022  require(active == true, \"Contract not active.\") */\n      tag_31\n      jumpi\n      mload(0x40)\n      0x08c379a000000000000000000000000000000000000000000000000000000000\n      dup2\n      mstore\n      0x04\n      add\n      dup1\n      dup1\n      0x20\n      add\n      dup3\n      dup2\n      sub\n      dup3\n      mstore\n      0x14\n      dup2\n      mstore\n      0x20\n      add\n      dup1\n      0x436f6e7472616374206e6f74206163746976652e000000000000000000000000\n      dup2\n      mstore\n      pop\n      0x20\n      add\n      swap2\n      pop\n      pop\n      mload(0x40)\n      dup1\n      swap2\n      sub\n      swap1\n      revert\n    tag_31:\n        /* \"contracts/DeferredEquityPlan.sol\":1178:1181  now */\n      timestamp\n        /* \"contracts/DeferredEquityPlan.sol\":1164:1175  unlock_time */\n      sload(0x06)\n        /* \"contracts/DeferredEquityPlan.sol\":1164:1181  unlock_time <=now */\n      gt\n      iszero\n        /* \"contracts/DeferredEquityPlan.sol\":1156:1211  require(unlock_time <=now, \"Shares are not yet vested\") */\n      tag_32\n      jumpi\n      mload(0x40)\n      0x08c379a000000000000000000000000000000000000000000000000000000000\n      dup2\n      mstore\n      0x04\n      add\n      dup1\n      dup1\n      0x20\n      add\n      dup3\n      dup2\n      sub\n      dup3\n      mstore\n      0x19\n      dup2\n      mstore\n      0x20\n      add\n      dup1\n      0x53686172657320617265206e6f74207965742076657374656400000000000000\n      dup2\n      mstore\n      pop\n      0x20\n      add\n      swap2\n      pop\n      pop\n      mload(0x40)\n      dup1\n      swap2\n      sub\n      swap1\n      revert\n    tag_32:\n        /* \"contracts/DeferredEquityPlan.sol\":1320:1332  total_shares */\n      sload(0x02)\n        /* \"contracts/DeferredEquityPlan.sol\":1298:1316  distributed_shares */\n      sload(0x07)\n        /* \"contracts/DeferredEquityPlan.sol\":1298:1332  distributed_shares <= total_shares */\n      gt\n      iszero\n        /* \"contracts/DeferredEquityPlan.sol\":1290:1359  require(distributed_shares <= total_shares, \"All Shares distributed\") */\n      tag_33\n      jumpi\n      mload(0x40)\n      0x08c379a000000000000000000000000000000000000000000000000000000000\n      dup2\n      mstore\n      0x04\n      add\n      dup1\n      dup1\n      0x20\n      add\n      dup3\n      dup2\n      sub\n      dup3\n      mstore\n      0x16\n      dup2\n      mstore\n      0x20\n      add\n      dup1\n      0x416c6c2053686172657320646973747269627574656400000000000000000000\n      dup2\n      mstore\n      pop\n      0x20\n      add\n      swap2\n      pop\n      pop\n      mload(0x40)\n      dup1\n      swap2\n      sub\n      swap1\n      revert\n    tag_33:\n        /* \"contracts/DeferredEquityPlan.sol\":1449:1452  365 */\n      0x016d\n        /* \"contracts/DeferredEquityPlan.sol\":1435:1446  unlock_time */\n      0x06\n      0x00\n        /* \"contracts/DeferredEquityPlan.sol\":1435:1452  unlock_time +=365 */\n      dup3\n      dup3\n      sload\n      add\n      swap3\n      pop\n      pop\n      dup2\n      swap1\n      sstore\n      pop\n        /* \"contracts/DeferredEquityPlan.sol\":1749:1768  annual_distribution */\n      sload(0x03)\n        /* \"contracts/DeferredEquityPlan.sol\":1738:1746  365 days */\n      0x01e13380\n        /* \"contracts/DeferredEquityPlan.sol\":1724:1734  start_time */\n      sload(0x05)\n        /* \"contracts/DeferredEquityPlan.sol\":1718:1721  now */\n      timestamp\n        /* \"contracts/DeferredEquityPlan.sol\":1718:1734  now - start_time */\n      sub\n        /* \"contracts/DeferredEquityPlan.sol\":1717:1746  (now - start_time) / 365 days */\n      dup2\n      tag_34\n      jumpi\n      invalid\n    tag_34:\n      div\n        /* \"contracts/DeferredEquityPlan.sol\":1717:1768  (now - start_time) / 365 days * annual_distribution */\n      mul\n        /* \"contracts/DeferredEquityPlan.sol\":1695:1713  distributed_shares */\n      0x07\n        /* \"contracts/DeferredEquityPlan.sol\":1695:1769  distributed_shares = ((now - start_time) / 365 days * annual_distribution) */\n      dup2\n      swap1\n      sstore\n      pop\n        /* \"contracts/DeferredEquityPlan.sol\":1892:1896  1000 */\n      0x03e8\n        /* \"contracts/DeferredEquityPlan.sol\":1871:1889  distributed_shares */\n      sload(0x07)\n        /* \"contracts/DeferredEquityPlan.sol\":1871:1896  distributed_shares > 1000 */\n      gt\n        /* \"contracts/DeferredEquityPlan.sol\":1867:1950  if (distributed_shares > 1000) {\r... */\n      iszero\n      tag_35\n      jumpi\n        /* \"contracts/DeferredEquityPlan.sol\":1934:1938  1000 */\n      0x03e8\n        /* \"contracts/DeferredEquityPlan.sol\":1913:1931  distributed_shares */\n      0x07\n        /* \"contracts/DeferredEquityPlan.sol\":1913:1938  distributed_shares = 1000 */\n      dup2\n      swap1\n      sstore\n      pop\n        /* \"contracts/DeferredEquityPlan.sol\":1867:1950  if (distributed_shares > 1000) {\r... */\n    tag_35:\n        /* \"contracts/DeferredEquityPlan.sol\":808:1957  function distribute() public {\r... */\n      jump\t// out\n    stop\n    data_44fe763b3ac121d9373b3116501483b74bc02ac33c1be16c96619643c2e17c04 596f7520617265206e6f7420617574686f72697a656420746f2064656163746976617465207468697320636f6e74726163742e\n    data_68f702e6388d2518088e18365eaa062fd5393371528035cdd118dd91cf2fd66b 446f206e6f742073656e6420457468657220746f207468697320636f6e747261637421\n    data_ba2ee6ca50d86582f4490a3252728de9a213982133b99a8712775a266ab39acb 596f7520617265206e6f7420617574686f72697a656420746f2065786563757465207468697320636f6e74726163742e\n\n    auxdata: 0xa265627a7a72315820c3f2f94267dd7c853df8936a9f67fe8e3e9d1a05380f20d7439151eb489ff06264736f6c63430005110032\n}\n",
				"bytecode": {
					"linkReferences": {},
					"object": "608060405260018060146101000a81548160ff0219169083151502179055506103e860025560fa600355426004554260055561016d6005540160065534801561004757600080fd5b506040516106f43803806106f48339818101604052602081101561006a57600080fd5b8101908080519060200190929190505050336000806101000a81548173ffffffffffffffffffffffffffffffffffffffff021916908373ffffffffffffffffffffffffffffffffffffffff16021790555080600160006101000a81548173ffffffffffffffffffffffffffffffffffffffff021916908373ffffffffffffffffffffffffffffffffffffffff160217905550506105e88061010c6000396000f3fe60806040526004361061004a5760003560e01c80630f388b4f1461009b57806351b42b00146100c657806362cb5951146100dd5780639bc717f1146100f4578063e4fc6b6d1461011f575b6040517f08c379a00000000000000000000000000000000000000000000000000000000081526004018080602001828103825260238152602001806105616023913960400191505060405180910390fd5b3480156100a757600080fd5b506100b0610136565b6040518082815260200191505060405180910390f35b3480156100d257600080fd5b506100db61013c565b005b3480156100e957600080fd5b506100f2610256565b005b34801561010057600080fd5b50610109610269565b6040518082815260200191505060405180910390f35b34801561012b57600080fd5b5061013461026f565b005b60065481565b6000809054906101000a900473ffffffffffffffffffffffffffffffffffffffff1673ffffffffffffffffffffffffffffffffffffffff163373ffffffffffffffffffffffffffffffffffffffff1614806101e45750600160009054906101000a900473ffffffffffffffffffffffffffffffffffffffff1673ffffffffffffffffffffffffffffffffffffffff163373ffffffffffffffffffffffffffffffffffffffff16145b610239576040517f08c379a000000000000000000000000000000000000000000000000000000000815260040180806020018281038252603381526020018061052e6033913960400191505060405180910390fd5b6000600160146101000a81548160ff021916908315150217905550565b6064600460008282540192505081905550565b60075481565b6000809054906101000a900473ffffffffffffffffffffffffffffffffffffffff1673ffffffffffffffffffffffffffffffffffffffff163373ffffffffffffffffffffffffffffffffffffffff1614806103175750600160009054906101000a900473ffffffffffffffffffffffffffffffffffffffff1673ffffffffffffffffffffffffffffffffffffffff163373ffffffffffffffffffffffffffffffffffffffff16145b61036c576040517f08c379a00000000000000000000000000000000000000000000000000000000081526004018080602001828103825260308152602001806105846030913960400191505060405180910390fd5b60011515600160149054906101000a900460ff161515146103f5576040517f08c379a00000000000000000000000000000000000000000000000000000000081526004018080602001828103825260148152602001807f436f6e7472616374206e6f74206163746976652e00000000000000000000000081525060200191505060405180910390fd5b42600654111561046d576040517f08c379a00000000000000000000000000000000000000000000000000000000081526004018080602001828103825260198152602001807f53686172657320617265206e6f7420796574207665737465640000000000000081525060200191505060405180910390fd5b60025460075411156104e7576040517f08c379a00000000000000000000000000000000000000000000000000000000081526004018080602001828103825260168152602001807f416c6c205368617265732064697374726962757465640000000000000000000081525060200191505060405180910390fd5b61016d6006600082825401925050819055506003546301e1338060055442038161050d57fe5b04026007819055506103e8600754111561052b576103e86007819055505b56fe596f7520617265206e6f7420617574686f72697a656420746f2064656163746976617465207468697320636f6e74726163742e446f206e6f742073656e6420457468657220746f207468697320636f6e747261637421596f7520617265206e6f7420617574686f72697a656420746f2065786563757465207468697320636f6e74726163742ea265627a7a72315820c3f2f94267dd7c853df8936a9f67fe8e3e9d1a05380f20d7439151eb489ff06264736f6c63430005110032",
					"opcodes": "PUSH1 0x80 PUSH1 0x40 MSTORE PUSH1 0x1 DUP1 PUSH1 0x14 PUSH2 0x100 EXP DUP2 SLOAD DUP2 PUSH1 0xFF MUL NOT AND SWAP1 DUP4 ISZERO ISZERO MUL OR SWAP1 SSTORE POP PUSH2 0x3E8 PUSH1 0x2 SSTORE PUSH1 0xFA PUSH1 0x3 SSTORE TIMESTAMP PUSH1 0x4 SSTORE TIMESTAMP PUSH1 0x5 SSTORE PUSH2 0x16D PUSH1 0x5 SLOAD ADD PUSH1 0x6 SSTORE CALLVALUE DUP1 ISZERO PUSH2 0x47 JUMPI PUSH1 0x0 DUP1 REVERT JUMPDEST POP PUSH1 0x40 MLOAD PUSH2 0x6F4 CODESIZE SUB DUP1 PUSH2 0x6F4 DUP4 CODECOPY DUP2 DUP2 ADD PUSH1 0x40 MSTORE PUSH1 0x20 DUP2 LT ISZERO PUSH2 0x6A JUMPI PUSH1 0x0 DUP1 REVERT JUMPDEST DUP2 ADD SWAP1 DUP1 DUP1 MLOAD SWAP1 PUSH1 0x20 ADD SWAP1 SWAP3 SWAP2 SWAP1 POP POP POP CALLER PUSH1 0x0 DUP1 PUSH2 0x100 EXP DUP2 SLOAD DUP2 PUSH20 0xFFFFFFFFFFFFFFFFFFFFFFFFFFFFFFFFFFFFFFFF MUL NOT AND SWAP1 DUP4 PUSH20 0xFFFFFFFFFFFFFFFFFFFFFFFFFFFFFFFFFFFFFFFF AND MUL OR SWAP1 SSTORE POP DUP1 PUSH1 0x1 PUSH1 0x0 PUSH2 0x100 EXP DUP2 SLOAD DUP2 PUSH20 0xFFFFFFFFFFFFFFFFFFFFFFFFFFFFFFFFFFFFFFFF MUL NOT AND SWAP1 DUP4 PUSH20 0xFFFFFFFFFFFFFFFFFFFFFFFFFFFFFFFFFFFFFFFF AND MUL OR SWAP1 SSTORE POP POP PUSH2 0x5E8 DUP1 PUSH2 0x10C PUSH1 0x0 CODECOPY PUSH1 0x0 RETURN INVALID PUSH1 0x80 PUSH1 0x40 MSTORE PUSH1 0x4 CALLDATASIZE LT PUSH2 0x4A JUMPI PUSH1 0x0 CALLDATALOAD PUSH1 0xE0 SHR DUP1 PUSH4 0xF388B4F EQ PUSH2 0x9B JUMPI DUP1 PUSH4 0x51B42B00 EQ PUSH2 0xC6 JUMPI DUP1 PUSH4 0x62CB5951 EQ PUSH2 0xDD JUMPI DUP1 PUSH4 0x9BC717F1 EQ PUSH2 0xF4 JUMPI DUP1 PUSH4 0xE4FC6B6D EQ PUSH2 0x11F JUMPI JUMPDEST PUSH1 0x40 MLOAD PUSH32 0x8C379A000000000000000000000000000000000000000000000000000000000 DUP2 MSTORE PUSH1 0x4 ADD DUP1 DUP1 PUSH1 0x20 ADD DUP3 DUP2 SUB DUP3 MSTORE PUSH1 0x23 DUP2 MSTORE PUSH1 0x20 ADD DUP1 PUSH2 0x561 PUSH1 0x23 SWAP2 CODECOPY PUSH1 0x40 ADD SWAP2 POP POP PUSH1 0x40 MLOAD DUP1 SWAP2 SUB SWAP1 REVERT JUMPDEST CALLVALUE DUP1 ISZERO PUSH2 0xA7 JUMPI PUSH1 0x0 DUP1 REVERT JUMPDEST POP PUSH2 0xB0 PUSH2 0x136 JUMP JUMPDEST PUSH1 0x40 MLOAD DUP1 DUP3 DUP2 MSTORE PUSH1 0x20 ADD SWAP2 POP POP PUSH1 0x40 MLOAD DUP1 SWAP2 SUB SWAP1 RETURN JUMPDEST CALLVALUE DUP1 ISZERO PUSH2 0xD2 JUMPI PUSH1 0x0 DUP1 REVERT JUMPDEST POP PUSH2 0xDB PUSH2 0x13C JUMP JUMPDEST STOP JUMPDEST CALLVALUE DUP1 ISZERO PUSH2 0xE9 JUMPI PUSH1 0x0 DUP1 REVERT JUMPDEST POP PUSH2 0xF2 PUSH2 0x256 JUMP JUMPDEST STOP JUMPDEST CALLVALUE DUP1 ISZERO PUSH2 0x100 JUMPI PUSH1 0x0 DUP1 REVERT JUMPDEST POP PUSH2 0x109 PUSH2 0x269 JUMP JUMPDEST PUSH1 0x40 MLOAD DUP1 DUP3 DUP2 MSTORE PUSH1 0x20 ADD SWAP2 POP POP PUSH1 0x40 MLOAD DUP1 SWAP2 SUB SWAP1 RETURN JUMPDEST CALLVALUE DUP1 ISZERO PUSH2 0x12B JUMPI PUSH1 0x0 DUP1 REVERT JUMPDEST POP PUSH2 0x134 PUSH2 0x26F JUMP JUMPDEST STOP JUMPDEST PUSH1 0x6 SLOAD DUP2 JUMP JUMPDEST PUSH1 0x0 DUP1 SWAP1 SLOAD SWAP1 PUSH2 0x100 EXP SWAP1 DIV PUSH20 0xFFFFFFFFFFFFFFFFFFFFFFFFFFFFFFFFFFFFFFFF AND PUSH20 0xFFFFFFFFFFFFFFFFFFFFFFFFFFFFFFFFFFFFFFFF AND CALLER PUSH20 0xFFFFFFFFFFFFFFFFFFFFFFFFFFFFFFFFFFFFFFFF AND EQ DUP1 PUSH2 0x1E4 JUMPI POP PUSH1 0x1 PUSH1 0x0 SWAP1 SLOAD SWAP1 PUSH2 0x100 EXP SWAP1 DIV PUSH20 0xFFFFFFFFFFFFFFFFFFFFFFFFFFFFFFFFFFFFFFFF AND PUSH20 0xFFFFFFFFFFFFFFFFFFFFFFFFFFFFFFFFFFFFFFFF AND CALLER PUSH20 0xFFFFFFFFFFFFFFFFFFFFFFFFFFFFFFFFFFFFFFFF AND EQ JUMPDEST PUSH2 0x239 JUMPI PUSH1 0x40 MLOAD PUSH32 0x8C379A000000000000000000000000000000000000000000000000000000000 DUP2 MSTORE PUSH1 0x4 ADD DUP1 DUP1 PUSH1 0x20 ADD DUP3 DUP2 SUB DUP3 MSTORE PUSH1 0x33 DUP2 MSTORE PUSH1 0x20 ADD DUP1 PUSH2 0x52E PUSH1 0x33 SWAP2 CODECOPY PUSH1 0x40 ADD SWAP2 POP POP PUSH1 0x40 MLOAD DUP1 SWAP2 SUB SWAP1 REVERT JUMPDEST PUSH1 0x0 PUSH1 0x1 PUSH1 0x14 PUSH2 0x100 EXP DUP2 SLOAD DUP2 PUSH1 0xFF MUL NOT AND SWAP1 DUP4 ISZERO ISZERO MUL OR SWAP1 SSTORE POP JUMP JUMPDEST PUSH1 0x64 PUSH1 0x4 PUSH1 0x0 DUP3 DUP3 SLOAD ADD SWAP3 POP POP DUP2 SWAP1 SSTORE POP JUMP JUMPDEST PUSH1 0x7 SLOAD DUP2 JUMP JUMPDEST PUSH1 0x0 DUP1 SWAP1 SLOAD SWAP1 PUSH2 0x100 EXP SWAP1 DIV PUSH20 0xFFFFFFFFFFFFFFFFFFFFFFFFFFFFFFFFFFFFFFFF AND PUSH20 0xFFFFFFFFFFFFFFFFFFFFFFFFFFFFFFFFFFFFFFFF AND CALLER PUSH20 0xFFFFFFFFFFFFFFFFFFFFFFFFFFFFFFFFFFFFFFFF AND EQ DUP1 PUSH2 0x317 JUMPI POP PUSH1 0x1 PUSH1 0x0 SWAP1 SLOAD SWAP1 PUSH2 0x100 EXP SWAP1 DIV PUSH20 0xFFFFFFFFFFFFFFFFFFFFFFFFFFFFFFFFFFFFFFFF AND PUSH20 0xFFFFFFFFFFFFFFFFFFFFFFFFFFFFFFFFFFFFFFFF AND CALLER PUSH20 0xFFFFFFFFFFFFFFFFFFFFFFFFFFFFFFFFFFFFFFFF AND EQ JUMPDEST PUSH2 0x36C JUMPI PUSH1 0x40 MLOAD PUSH32 0x8C379A000000000000000000000000000000000000000000000000000000000 DUP2 MSTORE PUSH1 0x4 ADD DUP1 DUP1 PUSH1 0x20 ADD DUP3 DUP2 SUB DUP3 MSTORE PUSH1 0x30 DUP2 MSTORE PUSH1 0x20 ADD DUP1 PUSH2 0x584 PUSH1 0x30 SWAP2 CODECOPY PUSH1 0x40 ADD SWAP2 POP POP PUSH1 0x40 MLOAD DUP1 SWAP2 SUB SWAP1 REVERT JUMPDEST PUSH1 0x1 ISZERO ISZERO PUSH1 0x1 PUSH1 0x14 SWAP1 SLOAD SWAP1 PUSH2 0x100 EXP SWAP1 DIV PUSH1 0xFF AND ISZERO ISZERO EQ PUSH2 0x3F5 JUMPI PUSH1 0x40 MLOAD PUSH32 0x8C379A000000000000000000000000000000000000000000000000000000000 DUP2 MSTORE PUSH1 0x4 ADD DUP1 DUP1 PUSH1 0x20 ADD DUP3 DUP2 SUB DUP3 MSTORE PUSH1 0x14 DUP2 MSTORE PUSH1 0x20 ADD DUP1 PUSH32 0x436F6E7472616374206E6F74206163746976652E000000000000000000000000 DUP2 MSTORE POP PUSH1 0x20 ADD SWAP2 POP POP PUSH1 0x40 MLOAD DUP1 SWAP2 SUB SWAP1 REVERT JUMPDEST TIMESTAMP PUSH1 0x6 SLOAD GT ISZERO PUSH2 0x46D JUMPI PUSH1 0x40 MLOAD PUSH32 0x8C379A000000000000000000000000000000000000000000000000000000000 DUP2 MSTORE PUSH1 0x4 ADD DUP1 DUP1 PUSH1 0x20 ADD DUP3 DUP2 SUB DUP3 MSTORE PUSH1 0x19 DUP2 MSTORE PUSH1 0x20 ADD DUP1 PUSH32 0x53686172657320617265206E6F74207965742076657374656400000000000000 DUP2 MSTORE POP PUSH1 0x20 ADD SWAP2 POP POP PUSH1 0x40 MLOAD DUP1 SWAP2 SUB SWAP1 REVERT JUMPDEST PUSH1 0x2 SLOAD PUSH1 0x7 SLOAD GT ISZERO PUSH2 0x4E7 JUMPI PUSH1 0x40 MLOAD PUSH32 0x8C379A000000000000000000000000000000000000000000000000000000000 DUP2 MSTORE PUSH1 0x4 ADD DUP1 DUP1 PUSH1 0x20 ADD DUP3 DUP2 SUB DUP3 MSTORE PUSH1 0x16 DUP2 MSTORE PUSH1 0x20 ADD DUP1 PUSH32 0x416C6C2053686172657320646973747269627574656400000000000000000000 DUP2 MSTORE POP PUSH1 0x20 ADD SWAP2 POP POP PUSH1 0x40 MLOAD DUP1 SWAP2 SUB SWAP1 REVERT JUMPDEST PUSH2 0x16D PUSH1 0x6 PUSH1 0x0 DUP3 DUP3 SLOAD ADD SWAP3 POP POP DUP2 SWAP1 SSTORE POP PUSH1 0x3 SLOAD PUSH4 0x1E13380 PUSH1 0x5 SLOAD TIMESTAMP SUB DUP2 PUSH2 0x50D JUMPI INVALID JUMPDEST DIV MUL PUSH1 0x7 DUP2 SWAP1 SSTORE POP PUSH2 0x3E8 PUSH1 0x7 SLOAD GT ISZERO PUSH2 0x52B JUMPI PUSH2 0x3E8 PUSH1 0x7 DUP2 SWAP1 SSTORE POP JUMPDEST JUMP INVALID MSIZE PUSH16 0x7520617265206E6F7420617574686F72 PUSH10 0x7A656420746F20646561 PUSH4 0x74697661 PUSH21 0x65207468697320636F6E74726163742E446F206E6F PUSH21 0x2073656E6420457468657220746F20746869732063 PUSH16 0x6E747261637421596F7520617265206E PUSH16 0x7420617574686F72697A656420746F20 PUSH6 0x786563757465 KECCAK256 PUSH21 0x68697320636F6E74726163742EA265627A7A723158 KECCAK256 0xC3 CALLCODE 0xF9 TIMESTAMP PUSH8 0xDD7C853DF8936A9F PUSH8 0xFE8E3E9D1A05380F KECCAK256 0xD7 NUMBER SWAP2 MLOAD 0xEB 0x48 SWAP16 CREATE PUSH3 0x64736F PUSH13 0x63430005110032000000000000 "
				},
				"gasEstimates": {
					"creation": {
						"codeDepositCost": "302400",
						"executionCost": "infinite",
						"totalCost": "infinite"
					},
					"external": {
						"": "infinite",
						"deactivate()": "infinite",
						"distribute()": "infinite",
						"distributed_shares()": "1049",
						"fastforward()": "20999",
						"unlock_time()": "983"
					}
				},
				"methodIdentifiers": {
					"deactivate()": "51b42b00",
					"distribute()": "e4fc6b6d",
					"distributed_shares()": "9bc717f1",
					"fastforward()": "62cb5951",
					"unlock_time()": "0f388b4f"
				}
			},
			"storageLayout": {
				"storage": [
					{
						"astId": 3,
						"contract": "contracts/DeferredEquityPlan.sol:DeferredEquityPlan",
						"label": "human_resources",
						"offset": 0,
						"slot": "0",
						"type": "t_address"
					},
					{
						"astId": 5,
						"contract": "contracts/DeferredEquityPlan.sol:DeferredEquityPlan",
						"label": "employee",
						"offset": 0,
						"slot": "1",
						"type": "t_address_payable"
					},
					{
						"astId": 8,
						"contract": "contracts/DeferredEquityPlan.sol:DeferredEquityPlan",
						"label": "active",
						"offset": 20,
						"slot": "1",
						"type": "t_bool"
					},
					{
						"astId": 11,
						"contract": "contracts/DeferredEquityPlan.sol:DeferredEquityPlan",
						"label": "total_shares",
						"offset": 0,
						"slot": "2",
						"type": "t_uint256"
					},
					{
						"astId": 14,
						"contract": "contracts/DeferredEquityPlan.sol:DeferredEquityPlan",
						"label": "annual_distribution",
						"offset": 0,
						"slot": "3",
						"type": "t_uint256"
					},
					{
						"astId": 17,
						"contract": "contracts/DeferredEquityPlan.sol:DeferredEquityPlan",
						"label": "fakenow",
						"offset": 0,
						"slot": "4",
						"type": "t_uint256"
					},
					{
						"astId": 20,
						"contract": "contracts/DeferredEquityPlan.sol:DeferredEquityPlan",
						"label": "start_time",
						"offset": 0,
						"slot": "5",
						"type": "t_uint256"
					},
					{
						"astId": 25,
						"contract": "contracts/DeferredEquityPlan.sol:DeferredEquityPlan",
						"label": "unlock_time",
						"offset": 0,
						"slot": "6",
						"type": "t_uint256"
					},
					{
						"astId": 27,
						"contract": "contracts/DeferredEquityPlan.sol:DeferredEquityPlan",
						"label": "distributed_shares",
						"offset": 0,
						"slot": "7",
						"type": "t_uint256"
					}
				],
				"types": {
					"t_address": {
						"encoding": "inplace",
						"label": "address",
						"numberOfBytes": "20"
					},
					"t_address_payable": {
						"encoding": "inplace",
						"label": "address payable",
						"numberOfBytes": "20"
					},
					"t_bool": {
						"encoding": "inplace",
						"label": "bool",
						"numberOfBytes": "1"
					},
					"t_uint256": {
						"encoding": "inplace",
						"label": "uint256",
						"numberOfBytes": "32"
					}
				}
			},
			"userdoc": {
				"methods": {}
			}
		}
	}
}