{
	"contracts/DeferredEquityPlan.sol": {
		"DeferredEquityPlan": {
			"abi": [
				{
					"inputs": [
						{
							"internalType": "address payable",
							"name": "_employee",
							"type": "address"
						}
					],
					"payable": false,
					"stateMutability": "nonpayable",
					"type": "constructor"
				},
				{
					"payable": true,
					"stateMutability": "payable",
					"type": "fallback"
				},
				{
					"constant": false,
					"inputs": [],
					"name": "deactivate",
					"outputs": [],
					"payable": false,
					"stateMutability": "nonpayable",
					"type": "function"
				},
				{
					"constant": false,
					"inputs": [],
					"name": "distribute",
					"outputs": [],
					"payable": false,
					"stateMutability": "nonpayable",
					"type": "function"
				},
				{
					"constant": true,
					"inputs": [],
					"name": "distributed_shares",
					"outputs": [
						{
							"internalType": "uint256",
							"name": "",
							"type": "uint256"
						}
					],
					"payable": false,
					"stateMutability": "view",
					"type": "function"
				},
				{
					"constant": true,
					"inputs": [],
					"name": "unlock_time",
					"outputs": [
						{
							"internalType": "uint256",
							"name": "",
							"type": "uint256"
						}
					],
					"payable": false,
					"stateMutability": "view",
					"type": "function"
				}
			],
			"devdoc": {
				"methods": {}
			},
			"evm": {
				"assembly": "    /* \"contracts/DeferredEquityPlan.sol\":50:2423  contract DeferredEquityPlan {\r... */\n  mstore(0x40, 0x80)\n    /* \"contracts/DeferredEquityPlan.sol\":169:173  true */\n  0x01\n    /* \"contracts/DeferredEquityPlan.sol\":155:173  bool active = true */\n  dup1\n  exp(0x0100, 0x14)\n  dup2\n  sload\n  dup2\n  0xff\n  mul\n  not\n  and\n  swap1\n  dup4\n  iszero\n  iszero\n  mul\n  or\n  swap1\n  sstore\n  pop\n    /* \"contracts/DeferredEquityPlan.sol\":318:322  1000 */\n  0x03e8\n    /* \"contracts/DeferredEquityPlan.sol\":298:322  uint total_shares = 1000 */\n  0x02\n  sstore\n    /* \"contracts/DeferredEquityPlan.sol\":356:359  250 */\n  0xfa\n    /* \"contracts/DeferredEquityPlan.sol\":329:359  uint annual_distribution = 250 */\n  0x03\n  sstore\n    /* \"contracts/DeferredEquityPlan.sol\":413:416  now */\n  timestamp\n    /* \"contracts/DeferredEquityPlan.sol\":395:416  uint start_time = now */\n  0x04\n  sstore\n    /* \"contracts/DeferredEquityPlan.sol\":585:588  365 */\n  0x016d\n    /* \"contracts/DeferredEquityPlan.sol\":572:582  start_time */\n  sload(0x04)\n    /* \"contracts/DeferredEquityPlan.sol\":572:588  start_time + 365 */\n  add\n    /* \"contracts/DeferredEquityPlan.sol\":546:588  uint public unlock_time = start_time + 365 */\n  0x05\n  sstore\n    /* \"contracts/DeferredEquityPlan.sol\":651:775  constructor(address payable _employee) public {\r... */\n  callvalue\n    /* \"--CODEGEN--\":8:17   */\n  dup1\n    /* \"--CODEGEN--\":5:7   */\n  iszero\n  tag_1\n  jumpi\n    /* \"--CODEGEN--\":30:31   */\n  0x00\n    /* \"--CODEGEN--\":27:28   */\n  dup1\n    /* \"--CODEGEN--\":20:32   */\n  revert\n    /* \"--CODEGEN--\":5:7   */\ntag_1:\n    /* \"contracts/DeferredEquityPlan.sol\":651:775  constructor(address payable _employee) public {\r... */\n  pop\n  mload(0x40)\n  sub(codesize, bytecodeSize)\n  dup1\n  bytecodeSize\n  dup4\n  codecopy\n  dup2\n  dup2\n  add\n  0x40\n  mstore\n    /* \"--CODEGEN--\":13:15   */\n  0x20\n    /* \"--CODEGEN--\":8:11   */\n  dup2\n    /* \"--CODEGEN--\":5:16   */\n  lt\n    /* \"--CODEGEN--\":2:4   */\n  iszero\n  tag_2\n  jumpi\n    /* \"--CODEGEN--\":29:30   */\n  0x00\n    /* \"--CODEGEN--\":26:27   */\n  dup1\n    /* \"--CODEGEN--\":19:31   */\n  revert\n    /* \"--CODEGEN--\":2:4   */\ntag_2:\n    /* \"contracts/DeferredEquityPlan.sol\":651:775  constructor(address payable _employee) public {\r... */\n  dup2\n  add\n  swap1\n  dup1\n  dup1\n  mload\n  swap1\n  0x20\n  add\n  swap1\n  swap3\n  swap2\n  swap1\n  pop\n  pop\n  pop\n    /* \"contracts/DeferredEquityPlan.sol\":726:736  msg.sender */\n  caller\n    /* \"contracts/DeferredEquityPlan.sol\":708:723  human_resources */\n  0x00\n  dup1\n    /* \"contracts/DeferredEquityPlan.sol\":708:736  human_resources = msg.sender */\n  0x0100\n  exp\n  dup2\n  sload\n  dup2\n  0xffffffffffffffffffffffffffffffffffffffff\n  mul\n  not\n  and\n  swap1\n  dup4\n  0xffffffffffffffffffffffffffffffffffffffff\n  and\n  mul\n  or\n  swap1\n  sstore\n  pop\n    /* \"contracts/DeferredEquityPlan.sol\":758:767  _employee */\n  dup1\n    /* \"contracts/DeferredEquityPlan.sol\":747:755  employee */\n  0x01\n  0x00\n    /* \"contracts/DeferredEquityPlan.sol\":747:767  employee = _employee */\n  0x0100\n  exp\n  dup2\n  sload\n  dup2\n  0xffffffffffffffffffffffffffffffffffffffff\n  mul\n  not\n  and\n  swap1\n  dup4\n  0xffffffffffffffffffffffffffffffffffffffff\n  and\n  mul\n  or\n  swap1\n  sstore\n  pop\n    /* \"contracts/DeferredEquityPlan.sol\":651:775  constructor(address payable _employee) public {\r... */\n  pop\n    /* \"contracts/DeferredEquityPlan.sol\":50:2423  contract DeferredEquityPlan {\r... */\n  dataSize(sub_0)\n  dup1\n  dataOffset(sub_0)\n  0x00\n  codecopy\n  0x00\n  return\nstop\n\nsub_0: assembly {\n        /* \"contracts/DeferredEquityPlan.sol\":50:2423  contract DeferredEquityPlan {\r... */\n      mstore(0x40, 0x80)\n      jumpi(tag_1, lt(calldatasize, 0x04))\n      shr(0xe0, calldataload(0x00))\n      dup1\n      0x0f388b4f\n      eq\n      tag_2\n      jumpi\n      dup1\n      0x51b42b00\n      eq\n      tag_3\n      jumpi\n      dup1\n      0x9bc717f1\n      eq\n      tag_4\n      jumpi\n      dup1\n      0xe4fc6b6d\n      eq\n      tag_5\n      jumpi\n    tag_1:\n        /* \"contracts/DeferredEquityPlan.sol\":2367:2412  revert(\"Do not send Ether to this contract!\") */\n      mload(0x40)\n      0x08c379a000000000000000000000000000000000000000000000000000000000\n      dup2\n      mstore\n      0x04\n      add\n      dup1\n      dup1\n      0x20\n      add\n      dup3\n      dup2\n      sub\n      dup3\n      mstore\n      0x23\n      dup2\n      mstore\n      0x20\n      add\n      dup1\n      data_68f702e6388d2518088e18365eaa062fd5393371528035cdd118dd91cf2fd66b\n      0x23\n      swap2\n      codecopy\n      0x40\n      add\n      swap2\n      pop\n      pop\n      mload(0x40)\n      dup1\n      swap2\n      sub\n      swap1\n      revert\n        /* \"contracts/DeferredEquityPlan.sol\":546:588  uint public unlock_time = start_time + 365 */\n    tag_2:\n      callvalue\n        /* \"--CODEGEN--\":8:17   */\n      dup1\n        /* \"--CODEGEN--\":5:7   */\n      iszero\n      tag_8\n      jumpi\n        /* \"--CODEGEN--\":30:31   */\n      0x00\n        /* \"--CODEGEN--\":27:28   */\n      dup1\n        /* \"--CODEGEN--\":20:32   */\n      revert\n        /* \"--CODEGEN--\":5:7   */\n    tag_8:\n        /* \"contracts/DeferredEquityPlan.sol\":546:588  uint public unlock_time = start_time + 365 */\n      pop\n      tag_9\n      tag_10\n      jump\t// in\n    tag_9:\n      mload(0x40)\n      dup1\n      dup3\n      dup2\n      mstore\n      0x20\n      add\n      swap2\n      pop\n      pop\n      mload(0x40)\n      dup1\n      swap2\n      sub\n      swap1\n      return\n        /* \"contracts/DeferredEquityPlan.sol\":2018:2210  function deactivate() public {\r... */\n    tag_3:\n      callvalue\n        /* \"--CODEGEN--\":8:17   */\n      dup1\n        /* \"--CODEGEN--\":5:7   */\n      iszero\n      tag_11\n      jumpi\n        /* \"--CODEGEN--\":30:31   */\n      0x00\n        /* \"--CODEGEN--\":27:28   */\n      dup1\n        /* \"--CODEGEN--\":20:32   */\n      revert\n        /* \"--CODEGEN--\":5:7   */\n    tag_11:\n        /* \"contracts/DeferredEquityPlan.sol\":2018:2210  function deactivate() public {\r... */\n      pop\n      tag_12\n      tag_13\n      jump\t// in\n    tag_12:\n      stop\n        /* \"contracts/DeferredEquityPlan.sol\":597:627  uint public distributed_shares */\n    tag_4:\n      callvalue\n        /* \"--CODEGEN--\":8:17   */\n      dup1\n        /* \"--CODEGEN--\":5:7   */\n      iszero\n      tag_14\n      jumpi\n        /* \"--CODEGEN--\":30:31   */\n      0x00\n        /* \"--CODEGEN--\":27:28   */\n      dup1\n        /* \"--CODEGEN--\":20:32   */\n      revert\n        /* \"--CODEGEN--\":5:7   */\n    tag_14:\n        /* \"contracts/DeferredEquityPlan.sol\":597:627  uint public distributed_shares */\n      pop\n      tag_15\n      tag_16\n      jump\t// in\n    tag_15:\n      mload(0x40)\n      dup1\n      dup3\n      dup2\n      mstore\n      0x20\n      add\n      swap2\n      pop\n      pop\n      mload(0x40)\n      dup1\n      swap2\n      sub\n      swap1\n      return\n        /* \"contracts/DeferredEquityPlan.sol\":783:1932  function distribute() public {\r... */\n    tag_5:\n      callvalue\n        /* \"--CODEGEN--\":8:17   */\n      dup1\n        /* \"--CODEGEN--\":5:7   */\n      iszero\n      tag_17\n      jumpi\n        /* \"--CODEGEN--\":30:31   */\n      0x00\n        /* \"--CODEGEN--\":27:28   */\n      dup1\n        /* \"--CODEGEN--\":20:32   */\n      revert\n        /* \"--CODEGEN--\":5:7   */\n    tag_17:\n        /* \"contracts/DeferredEquityPlan.sol\":783:1932  function distribute() public {\r... */\n      pop\n      tag_18\n      tag_19\n      jump\t// in\n    tag_18:\n      stop\n        /* \"contracts/DeferredEquityPlan.sol\":546:588  uint public unlock_time = start_time + 365 */\n    tag_10:\n      sload(0x05)\n      dup2\n      jump\t// out\n        /* \"contracts/DeferredEquityPlan.sol\":2018:2210  function deactivate() public {\r... */\n    tag_13:\n        /* \"contracts/DeferredEquityPlan.sol\":2080:2095  human_resources */\n      0x00\n      dup1\n      swap1\n      sload\n      swap1\n      0x0100\n      exp\n      swap1\n      div\n      0xffffffffffffffffffffffffffffffffffffffff\n      and\n        /* \"contracts/DeferredEquityPlan.sol\":2066:2095  msg.sender == human_resources */\n      0xffffffffffffffffffffffffffffffffffffffff\n      and\n        /* \"contracts/DeferredEquityPlan.sol\":2066:2076  msg.sender */\n      caller\n        /* \"contracts/DeferredEquityPlan.sol\":2066:2095  msg.sender == human_resources */\n      0xffffffffffffffffffffffffffffffffffffffff\n      and\n      eq\n        /* \"contracts/DeferredEquityPlan.sol\":2066:2121  msg.sender == human_resources || msg.sender == employee */\n      dup1\n      tag_21\n      jumpi\n      pop\n        /* \"contracts/DeferredEquityPlan.sol\":2113:2121  employee */\n      0x01\n      0x00\n      swap1\n      sload\n      swap1\n      0x0100\n      exp\n      swap1\n      div\n      0xffffffffffffffffffffffffffffffffffffffff\n      and\n        /* \"contracts/DeferredEquityPlan.sol\":2099:2121  msg.sender == employee */\n      0xffffffffffffffffffffffffffffffffffffffff\n      and\n        /* \"contracts/DeferredEquityPlan.sol\":2099:2109  msg.sender */\n      caller\n        /* \"contracts/DeferredEquityPlan.sol\":2099:2121  msg.sender == employee */\n      0xffffffffffffffffffffffffffffffffffffffff\n      and\n      eq\n        /* \"contracts/DeferredEquityPlan.sol\":2066:2121  msg.sender == human_resources || msg.sender == employee */\n    tag_21:\n        /* \"contracts/DeferredEquityPlan.sol\":2058:2177  require(msg.sender == human_resources || msg.sender == employee, \"You are not authorized to deactivate this contract.\") */\n      tag_22\n      jumpi\n      mload(0x40)\n      0x08c379a000000000000000000000000000000000000000000000000000000000\n      dup2\n      mstore\n      0x04\n      add\n      dup1\n      dup1\n      0x20\n      add\n      dup3\n      dup2\n      sub\n      dup3\n      mstore\n      0x33\n      dup2\n      mstore\n      0x20\n      add\n      dup1\n      data_44fe763b3ac121d9373b3116501483b74bc02ac33c1be16c96619643c2e17c04\n      0x33\n      swap2\n      codecopy\n      0x40\n      add\n      swap2\n      pop\n      pop\n      mload(0x40)\n      dup1\n      swap2\n      sub\n      swap1\n      revert\n    tag_22:\n        /* \"contracts/DeferredEquityPlan.sol\":2197:2202  false */\n      0x00\n        /* \"contracts/DeferredEquityPlan.sol\":2188:2194  active */\n      0x01\n      0x14\n        /* \"contracts/DeferredEquityPlan.sol\":2188:2202  active = false */\n      0x0100\n      exp\n      dup2\n      sload\n      dup2\n      0xff\n      mul\n      not\n      and\n      swap1\n      dup4\n      iszero\n      iszero\n      mul\n      or\n      swap1\n      sstore\n      pop\n        /* \"contracts/DeferredEquityPlan.sol\":2018:2210  function deactivate() public {\r... */\n      jump\t// out\n        /* \"contracts/DeferredEquityPlan.sol\":597:627  uint public distributed_shares */\n    tag_16:\n      sload(0x06)\n      dup2\n      jump\t// out\n        /* \"contracts/DeferredEquityPlan.sol\":783:1932  function distribute() public {\r... */\n    tag_19:\n        /* \"contracts/DeferredEquityPlan.sol\":845:860  human_resources */\n      0x00\n      dup1\n      swap1\n      sload\n      swap1\n      0x0100\n      exp\n      swap1\n      div\n      0xffffffffffffffffffffffffffffffffffffffff\n      and\n        /* \"contracts/DeferredEquityPlan.sol\":831:860  msg.sender == human_resources */\n      0xffffffffffffffffffffffffffffffffffffffff\n      and\n        /* \"contracts/DeferredEquityPlan.sol\":831:841  msg.sender */\n      caller\n        /* \"contracts/DeferredEquityPlan.sol\":831:860  msg.sender == human_resources */\n      0xffffffffffffffffffffffffffffffffffffffff\n      and\n      eq\n        /* \"contracts/DeferredEquityPlan.sol\":831:886  msg.sender == human_resources || msg.sender == employee */\n      dup1\n      tag_24\n      jumpi\n      pop\n        /* \"contracts/DeferredEquityPlan.sol\":878:886  employee */\n      0x01\n      0x00\n      swap1\n      sload\n      swap1\n      0x0100\n      exp\n      swap1\n      div\n      0xffffffffffffffffffffffffffffffffffffffff\n      and\n        /* \"contracts/DeferredEquityPlan.sol\":864:886  msg.sender == employee */\n      0xffffffffffffffffffffffffffffffffffffffff\n      and\n        /* \"contracts/DeferredEquityPlan.sol\":864:874  msg.sender */\n      caller\n        /* \"contracts/DeferredEquityPlan.sol\":864:886  msg.sender == employee */\n      0xffffffffffffffffffffffffffffffffffffffff\n      and\n      eq\n        /* \"contracts/DeferredEquityPlan.sol\":831:886  msg.sender == human_resources || msg.sender == employee */\n    tag_24:\n        /* \"contracts/DeferredEquityPlan.sol\":823:939  require(msg.sender == human_resources || msg.sender == employee, \"You are not authorized to execute this contract.\") */\n      tag_25\n      jumpi\n      mload(0x40)\n      0x08c379a000000000000000000000000000000000000000000000000000000000\n      dup2\n      mstore\n      0x04\n      add\n      dup1\n      dup1\n      0x20\n      add\n      dup3\n      dup2\n      sub\n      dup3\n      mstore\n      0x30\n      dup2\n      mstore\n      0x20\n      add\n      dup1\n      data_ba2ee6ca50d86582f4490a3252728de9a213982133b99a8712775a266ab39acb\n      0x30\n      swap2\n      codecopy\n      0x40\n      add\n      swap2\n      pop\n      pop\n      mload(0x40)\n      dup1\n      swap2\n      sub\n      swap1\n      revert\n    tag_25:\n        /* \"contracts/DeferredEquityPlan.sol\":968:972  true */\n      0x01\n        /* \"contracts/DeferredEquityPlan.sol\":958:972  active == true */\n      iszero\n      iszero\n        /* \"contracts/DeferredEquityPlan.sol\":958:964  active */\n      0x01\n      0x14\n      swap1\n      sload\n      swap1\n      0x0100\n      exp\n      swap1\n      div\n      0xff\n      and\n        /* \"contracts/DeferredEquityPlan.sol\":958:972  active == true */\n      iszero\n      iszero\n      eq\n        /* \"contracts/DeferredEquityPlan.sol\":950:997  require(active == true, \"Contract not active.\") */\n      tag_26\n      jumpi\n      mload(0x40)\n      0x08c379a000000000000000000000000000000000000000000000000000000000\n      dup2\n      mstore\n      0x04\n      add\n      dup1\n      dup1\n      0x20\n      add\n      dup3\n      dup2\n      sub\n      dup3\n      mstore\n      0x14\n      dup2\n      mstore\n      0x20\n      add\n      dup1\n      0x436f6e7472616374206e6f74206163746976652e000000000000000000000000\n      dup2\n      mstore\n      pop\n      0x20\n      add\n      swap2\n      pop\n      pop\n      mload(0x40)\n      dup1\n      swap2\n      sub\n      swap1\n      revert\n    tag_26:\n        /* \"contracts/DeferredEquityPlan.sol\":1153:1156  now */\n      timestamp\n        /* \"contracts/DeferredEquityPlan.sol\":1139:1150  unlock_time */\n      sload(0x05)\n        /* \"contracts/DeferredEquityPlan.sol\":1139:1156  unlock_time <=now */\n      gt\n      iszero\n        /* \"contracts/DeferredEquityPlan.sol\":1131:1186  require(unlock_time <=now, \"Shares are not yet vested\") */\n      tag_27\n      jumpi\n      mload(0x40)\n      0x08c379a000000000000000000000000000000000000000000000000000000000\n      dup2\n      mstore\n      0x04\n      add\n      dup1\n      dup1\n      0x20\n      add\n      dup3\n      dup2\n      sub\n      dup3\n      mstore\n      0x19\n      dup2\n      mstore\n      0x20\n      add\n      dup1\n      0x53686172657320617265206e6f74207965742076657374656400000000000000\n      dup2\n      mstore\n      pop\n      0x20\n      add\n      swap2\n      pop\n      pop\n      mload(0x40)\n      dup1\n      swap2\n      sub\n      swap1\n      revert\n    tag_27:\n        /* \"contracts/DeferredEquityPlan.sol\":1295:1307  total_shares */\n      sload(0x02)\n        /* \"contracts/DeferredEquityPlan.sol\":1273:1291  distributed_shares */\n      sload(0x06)\n        /* \"contracts/DeferredEquityPlan.sol\":1273:1307  distributed_shares <= total_shares */\n      gt\n      iszero\n        /* \"contracts/DeferredEquityPlan.sol\":1265:1334  require(distributed_shares <= total_shares, \"All Shares distributed\") */\n      tag_28\n      jumpi\n      mload(0x40)\n      0x08c379a000000000000000000000000000000000000000000000000000000000\n      dup2\n      mstore\n      0x04\n      add\n      dup1\n      dup1\n      0x20\n      add\n      dup3\n      dup2\n      sub\n      dup3\n      mstore\n      0x16\n      dup2\n      mstore\n      0x20\n      add\n      dup1\n      0x416c6c2053686172657320646973747269627574656400000000000000000000\n      dup2\n      mstore\n      pop\n      0x20\n      add\n      swap2\n      pop\n      pop\n      mload(0x40)\n      dup1\n      swap2\n      sub\n      swap1\n      revert\n    tag_28:\n        /* \"contracts/DeferredEquityPlan.sol\":1424:1427  365 */\n      0x016d\n        /* \"contracts/DeferredEquityPlan.sol\":1410:1421  unlock_time */\n      0x05\n      0x00\n        /* \"contracts/DeferredEquityPlan.sol\":1410:1427  unlock_time +=365 */\n      dup3\n      dup3\n      sload\n      add\n      swap3\n      pop\n      pop\n      dup2\n      swap1\n      sstore\n      pop\n        /* \"contracts/DeferredEquityPlan.sol\":1724:1743  annual_distribution */\n      sload(0x03)\n        /* \"contracts/DeferredEquityPlan.sol\":1713:1721  365 days */\n      0x01e13380\n        /* \"contracts/DeferredEquityPlan.sol\":1699:1709  start_time */\n      sload(0x04)\n        /* \"contracts/DeferredEquityPlan.sol\":1693:1696  now */\n      timestamp\n        /* \"contracts/DeferredEquityPlan.sol\":1693:1709  now - start_time */\n      sub\n        /* \"contracts/DeferredEquityPlan.sol\":1692:1721  (now - start_time) / 365 days */\n      dup2\n      tag_29\n      jumpi\n      invalid\n    tag_29:\n      div\n        /* \"contracts/DeferredEquityPlan.sol\":1692:1743  (now - start_time) / 365 days * annual_distribution */\n      mul\n        /* \"contracts/DeferredEquityPlan.sol\":1670:1688  distributed_shares */\n      0x06\n        /* \"contracts/DeferredEquityPlan.sol\":1670:1744  distributed_shares = ((now - start_time) / 365 days * annual_distribution) */\n      dup2\n      swap1\n      sstore\n      pop\n        /* \"contracts/DeferredEquityPlan.sol\":1867:1871  1000 */\n      0x03e8\n        /* \"contracts/DeferredEquityPlan.sol\":1846:1864  distributed_shares */\n      sload(0x06)\n        /* \"contracts/DeferredEquityPlan.sol\":1846:1871  distributed_shares > 1000 */\n      gt\n        /* \"contracts/DeferredEquityPlan.sol\":1842:1925  if (distributed_shares > 1000) {\r... */\n      iszero\n      tag_30\n      jumpi\n        /* \"contracts/DeferredEquityPlan.sol\":1909:1913  1000 */\n      0x03e8\n        /* \"contracts/DeferredEquityPlan.sol\":1888:1906  distributed_shares */\n      0x06\n        /* \"contracts/DeferredEquityPlan.sol\":1888:1913  distributed_shares = 1000 */\n      dup2\n      swap1\n      sstore\n      pop\n        /* \"contracts/DeferredEquityPlan.sol\":1842:1925  if (distributed_shares > 1000) {\r... */\n    tag_30:\n        /* \"contracts/DeferredEquityPlan.sol\":783:1932  function distribute() public {\r... */\n      jump\t// out\n    stop\n    data_44fe763b3ac121d9373b3116501483b74bc02ac33c1be16c96619643c2e17c04 596f7520617265206e6f7420617574686f72697a656420746f2064656163746976617465207468697320636f6e74726163742e\n    data_68f702e6388d2518088e18365eaa062fd5393371528035cdd118dd91cf2fd66b 446f206e6f742073656e6420457468657220746f207468697320636f6e747261637421\n    data_ba2ee6ca50d86582f4490a3252728de9a213982133b99a8712775a266ab39acb 596f7520617265206e6f7420617574686f72697a656420746f2065786563757465207468697320636f6e74726163742e\n\n    auxdata: 0xa265627a7a72315820780fdf35f6132eae2b5730f2c73ff7eb19032c3ac24a21e2310fe1e5d6c49c1b64736f6c63430005110032\n}\n",
				"bytecode": {
					"linkReferences": {},
					"object": "608060405260018060146101000a81548160ff0219169083151502179055506103e860025560fa6003554260045561016d6004540160055534801561004357600080fd5b506040516106bb3803806106bb8339818101604052602081101561006657600080fd5b8101908080519060200190929190505050336000806101000a81548173ffffffffffffffffffffffffffffffffffffffff021916908373ffffffffffffffffffffffffffffffffffffffff16021790555080600160006101000a81548173ffffffffffffffffffffffffffffffffffffffff021916908373ffffffffffffffffffffffffffffffffffffffff160217905550506105b3806101086000396000f3fe60806040526004361061003f5760003560e01c80630f388b4f1461009057806351b42b00146100bb5780639bc717f1146100d2578063e4fc6b6d146100fd575b6040517f08c379a000000000000000000000000000000000000000000000000000000000815260040180806020018281038252602381526020018061052c6023913960400191505060405180910390fd5b34801561009c57600080fd5b506100a5610114565b6040518082815260200191505060405180910390f35b3480156100c757600080fd5b506100d061011a565b005b3480156100de57600080fd5b506100e7610234565b6040518082815260200191505060405180910390f35b34801561010957600080fd5b5061011261023a565b005b60055481565b6000809054906101000a900473ffffffffffffffffffffffffffffffffffffffff1673ffffffffffffffffffffffffffffffffffffffff163373ffffffffffffffffffffffffffffffffffffffff1614806101c25750600160009054906101000a900473ffffffffffffffffffffffffffffffffffffffff1673ffffffffffffffffffffffffffffffffffffffff163373ffffffffffffffffffffffffffffffffffffffff16145b610217576040517f08c379a00000000000000000000000000000000000000000000000000000000081526004018080602001828103825260338152602001806104f96033913960400191505060405180910390fd5b6000600160146101000a81548160ff021916908315150217905550565b60065481565b6000809054906101000a900473ffffffffffffffffffffffffffffffffffffffff1673ffffffffffffffffffffffffffffffffffffffff163373ffffffffffffffffffffffffffffffffffffffff1614806102e25750600160009054906101000a900473ffffffffffffffffffffffffffffffffffffffff1673ffffffffffffffffffffffffffffffffffffffff163373ffffffffffffffffffffffffffffffffffffffff16145b610337576040517f08c379a000000000000000000000000000000000000000000000000000000000815260040180806020018281038252603081526020018061054f6030913960400191505060405180910390fd5b60011515600160149054906101000a900460ff161515146103c0576040517f08c379a00000000000000000000000000000000000000000000000000000000081526004018080602001828103825260148152602001807f436f6e7472616374206e6f74206163746976652e00000000000000000000000081525060200191505060405180910390fd5b426005541115610438576040517f08c379a00000000000000000000000000000000000000000000000000000000081526004018080602001828103825260198152602001807f53686172657320617265206e6f7420796574207665737465640000000000000081525060200191505060405180910390fd5b60025460065411156104b2576040517f08c379a00000000000000000000000000000000000000000000000000000000081526004018080602001828103825260168152602001807f416c6c205368617265732064697374726962757465640000000000000000000081525060200191505060405180910390fd5b61016d6005600082825401925050819055506003546301e133806004544203816104d857fe5b04026006819055506103e860065411156104f6576103e86006819055505b56fe596f7520617265206e6f7420617574686f72697a656420746f2064656163746976617465207468697320636f6e74726163742e446f206e6f742073656e6420457468657220746f207468697320636f6e747261637421596f7520617265206e6f7420617574686f72697a656420746f2065786563757465207468697320636f6e74726163742ea265627a7a72315820780fdf35f6132eae2b5730f2c73ff7eb19032c3ac24a21e2310fe1e5d6c49c1b64736f6c63430005110032",
					"opcodes": "PUSH1 0x80 PUSH1 0x40 MSTORE PUSH1 0x1 DUP1 PUSH1 0x14 PUSH2 0x100 EXP DUP2 SLOAD DUP2 PUSH1 0xFF MUL NOT AND SWAP1 DUP4 ISZERO ISZERO MUL OR SWAP1 SSTORE POP PUSH2 0x3E8 PUSH1 0x2 SSTORE PUSH1 0xFA PUSH1 0x3 SSTORE TIMESTAMP PUSH1 0x4 SSTORE PUSH2 0x16D PUSH1 0x4 SLOAD ADD PUSH1 0x5 SSTORE CALLVALUE DUP1 ISZERO PUSH2 0x43 JUMPI PUSH1 0x0 DUP1 REVERT JUMPDEST POP PUSH1 0x40 MLOAD PUSH2 0x6BB CODESIZE SUB DUP1 PUSH2 0x6BB DUP4 CODECOPY DUP2 DUP2 ADD PUSH1 0x40 MSTORE PUSH1 0x20 DUP2 LT ISZERO PUSH2 0x66 JUMPI PUSH1 0x0 DUP1 REVERT JUMPDEST DUP2 ADD SWAP1 DUP1 DUP1 MLOAD SWAP1 PUSH1 0x20 ADD SWAP1 SWAP3 SWAP2 SWAP1 POP POP POP CALLER PUSH1 0x0 DUP1 PUSH2 0x100 EXP DUP2 SLOAD DUP2 PUSH20 0xFFFFFFFFFFFFFFFFFFFFFFFFFFFFFFFFFFFFFFFF MUL NOT AND SWAP1 DUP4 PUSH20 0xFFFFFFFFFFFFFFFFFFFFFFFFFFFFFFFFFFFFFFFF AND MUL OR SWAP1 SSTORE POP DUP1 PUSH1 0x1 PUSH1 0x0 PUSH2 0x100 EXP DUP2 SLOAD DUP2 PUSH20 0xFFFFFFFFFFFFFFFFFFFFFFFFFFFFFFFFFFFFFFFF MUL NOT AND SWAP1 DUP4 PUSH20 0xFFFFFFFFFFFFFFFFFFFFFFFFFFFFFFFFFFFFFFFF AND MUL OR SWAP1 SSTORE POP POP PUSH2 0x5B3 DUP1 PUSH2 0x108 PUSH1 0x0 CODECOPY PUSH1 0x0 RETURN INVALID PUSH1 0x80 PUSH1 0x40 MSTORE PUSH1 0x4 CALLDATASIZE LT PUSH2 0x3F JUMPI PUSH1 0x0 CALLDATALOAD PUSH1 0xE0 SHR DUP1 PUSH4 0xF388B4F EQ PUSH2 0x90 JUMPI DUP1 PUSH4 0x51B42B00 EQ PUSH2 0xBB JUMPI DUP1 PUSH4 0x9BC717F1 EQ PUSH2 0xD2 JUMPI DUP1 PUSH4 0xE4FC6B6D EQ PUSH2 0xFD JUMPI JUMPDEST PUSH1 0x40 MLOAD PUSH32 0x8C379A000000000000000000000000000000000000000000000000000000000 DUP2 MSTORE PUSH1 0x4 ADD DUP1 DUP1 PUSH1 0x20 ADD DUP3 DUP2 SUB DUP3 MSTORE PUSH1 0x23 DUP2 MSTORE PUSH1 0x20 ADD DUP1 PUSH2 0x52C PUSH1 0x23 SWAP2 CODECOPY PUSH1 0x40 ADD SWAP2 POP POP PUSH1 0x40 MLOAD DUP1 SWAP2 SUB SWAP1 REVERT JUMPDEST CALLVALUE DUP1 ISZERO PUSH2 0x9C JUMPI PUSH1 0x0 DUP1 REVERT JUMPDEST POP PUSH2 0xA5 PUSH2 0x114 JUMP JUMPDEST PUSH1 0x40 MLOAD DUP1 DUP3 DUP2 MSTORE PUSH1 0x20 ADD SWAP2 POP POP PUSH1 0x40 MLOAD DUP1 SWAP2 SUB SWAP1 RETURN JUMPDEST CALLVALUE DUP1 ISZERO PUSH2 0xC7 JUMPI PUSH1 0x0 DUP1 REVERT JUMPDEST POP PUSH2 0xD0 PUSH2 0x11A JUMP JUMPDEST STOP JUMPDEST CALLVALUE DUP1 ISZERO PUSH2 0xDE JUMPI PUSH1 0x0 DUP1 REVERT JUMPDEST POP PUSH2 0xE7 PUSH2 0x234 JUMP JUMPDEST PUSH1 0x40 MLOAD DUP1 DUP3 DUP2 MSTORE PUSH1 0x20 ADD SWAP2 POP POP PUSH1 0x40 MLOAD DUP1 SWAP2 SUB SWAP1 RETURN JUMPDEST CALLVALUE DUP1 ISZERO PUSH2 0x109 JUMPI PUSH1 0x0 DUP1 REVERT JUMPDEST POP PUSH2 0x112 PUSH2 0x23A JUMP JUMPDEST STOP JUMPDEST PUSH1 0x5 SLOAD DUP2 JUMP JUMPDEST PUSH1 0x0 DUP1 SWAP1 SLOAD SWAP1 PUSH2 0x100 EXP SWAP1 DIV PUSH20 0xFFFFFFFFFFFFFFFFFFFFFFFFFFFFFFFFFFFFFFFF AND PUSH20 0xFFFFFFFFFFFFFFFFFFFFFFFFFFFFFFFFFFFFFFFF AND CALLER PUSH20 0xFFFFFFFFFFFFFFFFFFFFFFFFFFFFFFFFFFFFFFFF AND EQ DUP1 PUSH2 0x1C2 JUMPI POP PUSH1 0x1 PUSH1 0x0 SWAP1 SLOAD SWAP1 PUSH2 0x100 EXP SWAP1 DIV PUSH20 0xFFFFFFFFFFFFFFFFFFFFFFFFFFFFFFFFFFFFFFFF AND PUSH20 0xFFFFFFFFFFFFFFFFFFFFFFFFFFFFFFFFFFFFFFFF AND CALLER PUSH20 0xFFFFFFFFFFFFFFFFFFFFFFFFFFFFFFFFFFFFFFFF AND EQ JUMPDEST PUSH2 0x217 JUMPI PUSH1 0x40 MLOAD PUSH32 0x8C379A000000000000000000000000000000000000000000000000000000000 DUP2 MSTORE PUSH1 0x4 ADD DUP1 DUP1 PUSH1 0x20 ADD DUP3 DUP2 SUB DUP3 MSTORE PUSH1 0x33 DUP2 MSTORE PUSH1 0x20 ADD DUP1 PUSH2 0x4F9 PUSH1 0x33 SWAP2 CODECOPY PUSH1 0x40 ADD SWAP2 POP POP PUSH1 0x40 MLOAD DUP1 SWAP2 SUB SWAP1 REVERT JUMPDEST PUSH1 0x0 PUSH1 0x1 PUSH1 0x14 PUSH2 0x100 EXP DUP2 SLOAD DUP2 PUSH1 0xFF MUL NOT AND SWAP1 DUP4 ISZERO ISZERO MUL OR SWAP1 SSTORE POP JUMP JUMPDEST PUSH1 0x6 SLOAD DUP2 JUMP JUMPDEST PUSH1 0x0 DUP1 SWAP1 SLOAD SWAP1 PUSH2 0x100 EXP SWAP1 DIV PUSH20 0xFFFFFFFFFFFFFFFFFFFFFFFFFFFFFFFFFFFFFFFF AND PUSH20 0xFFFFFFFFFFFFFFFFFFFFFFFFFFFFFFFFFFFFFFFF AND CALLER PUSH20 0xFFFFFFFFFFFFFFFFFFFFFFFFFFFFFFFFFFFFFFFF AND EQ DUP1 PUSH2 0x2E2 JUMPI POP PUSH1 0x1 PUSH1 0x0 SWAP1 SLOAD SWAP1 PUSH2 0x100 EXP SWAP1 DIV PUSH20 0xFFFFFFFFFFFFFFFFFFFFFFFFFFFFFFFFFFFFFFFF AND PUSH20 0xFFFFFFFFFFFFFFFFFFFFFFFFFFFFFFFFFFFFFFFF AND CALLER PUSH20 0xFFFFFFFFFFFFFFFFFFFFFFFFFFFFFFFFFFFFFFFF AND EQ JUMPDEST PUSH2 0x337 JUMPI PUSH1 0x40 MLOAD PUSH32 0x8C379A000000000000000000000000000000000000000000000000000000000 DUP2 MSTORE PUSH1 0x4 ADD DUP1 DUP1 PUSH1 0x20 ADD DUP3 DUP2 SUB DUP3 MSTORE PUSH1 0x30 DUP2 MSTORE PUSH1 0x20 ADD DUP1 PUSH2 0x54F PUSH1 0x30 SWAP2 CODECOPY PUSH1 0x40 ADD SWAP2 POP POP PUSH1 0x40 MLOAD DUP1 SWAP2 SUB SWAP1 REVERT JUMPDEST PUSH1 0x1 ISZERO ISZERO PUSH1 0x1 PUSH1 0x14 SWAP1 SLOAD SWAP1 PUSH2 0x100 EXP SWAP1 DIV PUSH1 0xFF AND ISZERO ISZERO EQ PUSH2 0x3C0 JUMPI PUSH1 0x40 MLOAD PUSH32 0x8C379A000000000000000000000000000000000000000000000000000000000 DUP2 MSTORE PUSH1 0x4 ADD DUP1 DUP1 PUSH1 0x20 ADD DUP3 DUP2 SUB DUP3 MSTORE PUSH1 0x14 DUP2 MSTORE PUSH1 0x20 ADD DUP1 PUSH32 0x436F6E7472616374206E6F74206163746976652E000000000000000000000000 DUP2 MSTORE POP PUSH1 0x20 ADD SWAP2 POP POP PUSH1 0x40 MLOAD DUP1 SWAP2 SUB SWAP1 REVERT JUMPDEST TIMESTAMP PUSH1 0x5 SLOAD GT ISZERO PUSH2 0x438 JUMPI PUSH1 0x40 MLOAD PUSH32 0x8C379A000000000000000000000000000000000000000000000000000000000 DUP2 MSTORE PUSH1 0x4 ADD DUP1 DUP1 PUSH1 0x20 ADD DUP3 DUP2 SUB DUP3 MSTORE PUSH1 0x19 DUP2 MSTORE PUSH1 0x20 ADD DUP1 PUSH32 0x53686172657320617265206E6F74207965742076657374656400000000000000 DUP2 MSTORE POP PUSH1 0x20 ADD SWAP2 POP POP PUSH1 0x40 MLOAD DUP1 SWAP2 SUB SWAP1 REVERT JUMPDEST PUSH1 0x2 SLOAD PUSH1 0x6 SLOAD GT ISZERO PUSH2 0x4B2 JUMPI PUSH1 0x40 MLOAD PUSH32 0x8C379A000000000000000000000000000000000000000000000000000000000 DUP2 MSTORE PUSH1 0x4 ADD DUP1 DUP1 PUSH1 0x20 ADD DUP3 DUP2 SUB DUP3 MSTORE PUSH1 0x16 DUP2 MSTORE PUSH1 0x20 ADD DUP1 PUSH32 0x416C6C2053686172657320646973747269627574656400000000000000000000 DUP2 MSTORE POP PUSH1 0x20 ADD SWAP2 POP POP PUSH1 0x40 MLOAD DUP1 SWAP2 SUB SWAP1 REVERT JUMPDEST PUSH2 0x16D PUSH1 0x5 PUSH1 0x0 DUP3 DUP3 SLOAD ADD SWAP3 POP POP DUP2 SWAP1 SSTORE POP PUSH1 0x3 SLOAD PUSH4 0x1E13380 PUSH1 0x4 SLOAD TIMESTAMP SUB DUP2 PUSH2 0x4D8 JUMPI INVALID JUMPDEST DIV MUL PUSH1 0x6 DUP2 SWAP1 SSTORE POP PUSH2 0x3E8 PUSH1 0x6 SLOAD GT ISZERO PUSH2 0x4F6 JUMPI PUSH2 0x3E8 PUSH1 0x6 DUP2 SWAP1 SSTORE POP JUMPDEST JUMP INVALID MSIZE PUSH16 0x7520617265206E6F7420617574686F72 PUSH10 0x7A656420746F20646561 PUSH4 0x74697661 PUSH21 0x65207468697320636F6E74726163742E446F206E6F PUSH21 0x2073656E6420457468657220746F20746869732063 PUSH16 0x6E747261637421596F7520617265206E PUSH16 0x7420617574686F72697A656420746F20 PUSH6 0x786563757465 KECCAK256 PUSH21 0x68697320636F6E74726163742EA265627A7A723158 KECCAK256 PUSH25 0xFDF35F6132EAE2B5730F2C73FF7EB19032C3AC24A21E2310F 0xE1 0xE5 0xD6 0xC4 SWAP13 SHL PUSH5 0x736F6C6343 STOP SDIV GT STOP ORIGIN "
				},
				"gasEstimates": {
					"creation": {
						"codeDepositCost": "291800",
						"executionCost": "infinite",
						"totalCost": "infinite"
					},
					"external": {
						"": "infinite",
						"deactivate()": "infinite",
						"distribute()": "infinite",
						"distributed_shares()": "1027",
						"unlock_time()": "983"
					}
				},
				"methodIdentifiers": {
					"deactivate()": "51b42b00",
					"distribute()": "e4fc6b6d",
					"distributed_shares()": "9bc717f1",
					"unlock_time()": "0f388b4f"
				}
			},
			"storageLayout": {
				"storage": [
					{
						"astId": 3,
						"contract": "contracts/DeferredEquityPlan.sol:DeferredEquityPlan",
						"label": "human_resources",
						"offset": 0,
						"slot": "0",
						"type": "t_address"
					},
					{
						"astId": 5,
						"contract": "contracts/DeferredEquityPlan.sol:DeferredEquityPlan",
						"label": "employee",
						"offset": 0,
						"slot": "1",
						"type": "t_address_payable"
					},
					{
						"astId": 8,
						"contract": "contracts/DeferredEquityPlan.sol:DeferredEquityPlan",
						"label": "active",
						"offset": 20,
						"slot": "1",
						"type": "t_bool"
					},
					{
						"astId": 11,
						"contract": "contracts/DeferredEquityPlan.sol:DeferredEquityPlan",
						"label": "total_shares",
						"offset": 0,
						"slot": "2",
						"type": "t_uint256"
					},
					{
						"astId": 14,
						"contract": "contracts/DeferredEquityPlan.sol:DeferredEquityPlan",
						"label": "annual_distribution",
						"offset": 0,
						"slot": "3",
						"type": "t_uint256"
					},
					{
						"astId": 17,
						"contract": "contracts/DeferredEquityPlan.sol:DeferredEquityPlan",
						"label": "start_time",
						"offset": 0,
						"slot": "4",
						"type": "t_uint256"
					},
					{
						"astId": 22,
						"contract": "contracts/DeferredEquityPlan.sol:DeferredEquityPlan",
						"label": "unlock_time",
						"offset": 0,
						"slot": "5",
						"type": "t_uint256"
					},
					{
						"astId": 24,
						"contract": "contracts/DeferredEquityPlan.sol:DeferredEquityPlan",
						"label": "distributed_shares",
						"offset": 0,
						"slot": "6",
						"type": "t_uint256"
					}
				],
				"types": {
					"t_address": {
						"encoding": "inplace",
						"label": "address",
						"numberOfBytes": "20"
					},
					"t_address_payable": {
						"encoding": "inplace",
						"label": "address payable",
						"numberOfBytes": "20"
					},
					"t_bool": {
						"encoding": "inplace",
						"label": "bool",
						"numberOfBytes": "1"
					},
					"t_uint256": {
						"encoding": "inplace",
						"label": "uint256",
						"numberOfBytes": "32"
					}
				}
			},
			"userdoc": {
				"methods": {}
			}
		}
	}
}